{"contracts/WalletRegistry.sol":{"WalletRegistry":{"abi":[{"inputs":[],"stateMutability":"nonpayable","type":"constructor"},{"inputs":[],"name":"InvalidPinHash","type":"error"},{"inputs":[],"name":"InvalidWalletAddress","type":"error"},{"inputs":[],"name":"NotAuthorized","type":"error"},{"inputs":[{"internalType":"address","name":"owner","type":"address"}],"name":"OwnableInvalidOwner","type":"error"},{"inputs":[{"internalType":"address","name":"account","type":"address"}],"name":"OwnableUnauthorizedAccount","type":"error"},{"inputs":[],"name":"PhoneAlreadyRegistered","type":"error"},{"inputs":[],"name":"PhoneNotRegistered","type":"error"},{"inputs":[],"name":"ReentrancyGuardReentrantCall","type":"error"},{"inputs":[],"name":"WalletAlreadyRegistered","type":"error"},{"anonymous":false,"inputs":[{"indexed":true,"internalType":"address","name":"backend","type":"address"}],"name":"BackendAuthorized","type":"event"},{"anonymous":false,"inputs":[{"indexed":true,"internalType":"address","name":"backend","type":"address"}],"name":"BackendRevoked","type":"event"},{"anonymous":false,"inputs":[{"indexed":true,"internalType":"address","name":"previousOwner","type":"address"},{"indexed":true,"internalType":"address","name":"newOwner","type":"address"}],"name":"OwnershipTransferred","type":"event"},{"anonymous":false,"inputs":[{"indexed":true,"internalType":"bytes32","name":"phoneHash","type":"bytes32"},{"indexed":false,"internalType":"uint256","name":"timestamp","type":"uint256"}],"name":"PinUpdated","type":"event"},{"anonymous":false,"inputs":[{"indexed":true,"internalType":"bytes32","name":"phoneHash","type":"bytes32"},{"indexed":true,"internalType":"address","name":"wallet","type":"address"},{"indexed":false,"internalType":"uint256","name":"timestamp","type":"uint256"}],"name":"WalletRegistered","type":"event"},{"anonymous":false,"inputs":[{"indexed":true,"internalType":"bytes32","name":"phoneHash","type":"bytes32"},{"indexed":true,"internalType":"address","name":"oldWallet","type":"address"},{"indexed":true,"internalType":"address","name":"newWallet","type":"address"}],"name":"WalletUpdated","type":"event"},{"inputs":[{"internalType":"address","name":"backend","type":"address"}],"name":"addAuthorizedBackend","outputs":[],"stateMutability":"nonpayable","type":"function"},{"inputs":[{"internalType":"address","name":"","type":"address"}],"name":"authorizedBackends","outputs":[{"internalType":"bool","name":"","type":"bool"}],"stateMutability":"view","type":"function"},{"inputs":[{"internalType":"bytes32","name":"phoneHash","type":"bytes32"}],"name":"checkRegistration","outputs":[{"internalType":"bool","name":"registered","type":"bool"}],"stateMutability":"view","type":"function"},{"inputs":[{"internalType":"address","name":"wallet","type":"address"}],"name":"getPhoneHash","outputs":[{"internalType":"bytes32","name":"phoneHash","type":"bytes32"}],"stateMutability":"view","type":"function"},{"inputs":[{"internalType":"bytes32","name":"phoneHash","type":"bytes32"}],"name":"getWallet","outputs":[{"internalType":"address","name":"wallet","type":"address"}],"stateMutability":"view","type":"function"},{"inputs":[{"internalType":"address","name":"backend","type":"address"}],"name":"isAuthorizedBackend","outputs":[{"internalType":"bool","name":"authorized","type":"bool"}],"stateMutability":"view","type":"function"},{"inputs":[],"name":"owner","outputs":[{"internalType":"address","name":"","type":"address"}],"stateMutability":"view","type":"function"},{"inputs":[{"internalType":"bytes32","name":"phoneHash","type":"bytes32"},{"internalType":"address","name":"wallet","type":"address"},{"internalType":"bytes32","name":"pinHash","type":"bytes32"}],"name":"registerWallet","outputs":[],"stateMutability":"nonpayable","type":"function"},{"inputs":[{"internalType":"address","name":"backend","type":"address"}],"name":"removeAuthorizedBackend","outputs":[],"stateMutability":"nonpayable","type":"function"},{"inputs":[],"name":"renounceOwnership","outputs":[],"stateMutability":"nonpayable","type":"function"},{"inputs":[],"name":"totalUsers","outputs":[{"internalType":"uint256","name":"","type":"uint256"}],"stateMutability":"view","type":"function"},{"inputs":[{"internalType":"address","name":"newOwner","type":"address"}],"name":"transferOwnership","outputs":[],"stateMutability":"nonpayable","type":"function"},{"inputs":[{"internalType":"bytes32","name":"phoneHash","type":"bytes32"},{"internalType":"bytes32","name":"newPinHash","type":"bytes32"}],"name":"updatePin","outputs":[],"stateMutability":"nonpayable","type":"function"},{"inputs":[{"internalType":"bytes32","name":"phoneHash","type":"bytes32"},{"internalType":"address","name":"newWallet","type":"address"}],"name":"updateWallet","outputs":[],"stateMutability":"nonpayable","type":"function"},{"inputs":[{"internalType":"bytes32","name":"phoneHash","type":"bytes32"},{"internalType":"bytes32","name":"pinHash","type":"bytes32"}],"name":"verifyPin","outputs":[{"internalType":"bool","name":"valid","type":"bool"}],"stateMutability":"view","type":"function"}],"evm":{"bytecode":{"linkReferences":{},"object":"608080604052346100b85733156100a25760008054336001600160a01b031982168117835560405192916001600160a01b03167f8be0079c531659141344cd1fd0a4f28419497f9722a3daafe3b4186f6b6457e08380a360018055338152600660205260408120600160ff198254161790557fcaac1cded5f66c118ba915f0fc60cd20a0924fcf956320b5230e70c8d5a773ca339180a261084b90816100be8239f35b631e4fbdf760e01b815260006004820152602490fd5b600080fdfe608060408181526004918236101561001657600080fd5b600092833560e01c91826325ded4a21461061a57508163460f2e15146102335781635e8f040c146105ed5781636971f47914610525578163715018a6146104c8578163789d392a146104955781638da5cb5b1461046d5781639ba78fd914610407578163bff1f9e1146103e8578163c9fa631214610271578163e712a35d14610233578163ed9dbf42146101fb578163f2776d2e1461017c578163f2fde38b146100f1575063fc1c2157146100ca57600080fd5b346100ed576020906100e46100de36610785565b906107ea565b90519015158152f35b5080fd5b9050346101785760203660031901126101785761010c61076f565b9061011561079b565b6001600160a01b0391821692831561016257505082546001600160a01b0319811683178455167f8be0079c531659141344cd1fd0a4f28419497f9722a3daafe3b4186f6b6457e08380a380f35b51631e4fbdf760e01b8152908101849052602490fd5b8280fd5b919050346101785760203660031901126101785761019861076f565b6101a061079b565b6001600160a01b03169182156101ed575081835260066020528220805460ff191660011790557fcaac1cded5f66c118ba915f0fc60cd20a0924fcf956320b5230e70c8d5a773ca8280a280f35b905163a5f90a1160e01b8152fd5b5050346100ed5760203660031901126100ed5760209181906001600160a01b0361022361076f565b1681526003845220549051908152f35b5050346100ed5760203660031901126100ed5760209160ff9082906001600160a01b0361025e61076f565b1681526006855220541690519015158152f35b8383346100ed5760603660031901126100ed57823561028e610754565b604435923385526020916006835260ff828720541615806103d4575b6103c4576102b66107c7565b8386526005835260ff82872054166103b4576001600160a01b03169384156103a4578486526003835281862054610394578015610384578386526002835281862080546001600160a01b03191686179055848652600383528186208490558386528683528186205560058252808520805460ff19166001179055600754600019811461037157600101600755514281527ff350fdfb36982a8157a4061fbe3ed72f5c6589fe868750066c82863fd776e08d9190a36001805580f35b634e487b7160e01b865260118752602486fd5b8151636fe3611f60e01b81528790fd5b815163792279f360e01b81528790fd5b815163a5f90a1160e01b81528790fd5b8151630edb5ddb60e31b81528790fd5b815163ea8e4eb560e01b81528790fd5b5085546001600160a01b03163314156102aa565b5050346100ed57816003193601126100ed576020906007549051908152f35b5050346100ed5760203660031901126100ed5761042261076f565b61042a61079b565b6001600160a01b03168083526006602052908220805460ff191690557ff67d2fe786130b5e40e7072669d48d149b5f06b216df088ce137f3101d29fcf38280a280f35b5050346100ed57816003193601126100ed57905490516001600160a01b039091168152602090f35b9050346101785760203660031901126101785735825260026020908152918190205490516001600160a01b039091168152f35b83346105225780600319360112610522576104e161079b565b80546001600160a01b03198116825581906001600160a01b03167f8be0079c531659141344cd1fd0a4f28419497f9722a3daafe3b4186f6b6457e08280a380f35b80fd5b919050346101785761053636610785565b9092338552600660205260ff838620541615806105d9575b6105cb5761055a6107c7565b838552600560205260ff8386205416156105bd5781156105af57916020917f2b880068a2bff23bc157e98b3e94b6098cac08efb8f625d65cc1a712bb2b4b049385875283528186205551428152a26001805580f35b8251636fe3611f60e01b8152fd5b825163f1b3a35f60e01b8152fd5b825163ea8e4eb560e01b8152fd5b5084546001600160a01b031633141561054e565b905034610178576020366003190112610178578160209360ff923581526005855220541690519015158152f35b91509134610750578060031936011261075057823590610638610754565b3386526020936006855260ff8388205416158061073c575b61072e575061065d6107c7565b8286526005845260ff82872054161561071e576001600160a01b039081169485156107105785875260038552828720546107025750906003839283885260028652828820541694858852818152878381205583885260028152828820876bffffffffffffffffffffffff60a01b825416179055868852528520557f8360d87ce8148bdd27d0428cd4322018d2dfc7c37601431a95eee5c96b2aeccf8480a46001805580f35b825163792279f360e01b8152fd5b825163a5f90a1160e01b8152fd5b815163f1b3a35f60e01b81528590fd5b63ea8e4eb560e01b81528590fd5b5086546001600160a01b0316331415610650565b8380fd5b602435906001600160a01b038216820361076a57565b600080fd5b600435906001600160a01b038216820361076a57565b604090600319011261076a576004359060243590565b6000546001600160a01b031633036107af57565b60405163118cdaa760e01b8152336004820152602490fd5b6002600154146107d8576002600155565b604051633ee5aeb560e01b8152600490fd5b600052600560205260ff604060002054161561080f5760046020526040600020541490565b5060009056fea26469706673582212209b61a959a7f25ef01f93d412d39fd6341c534f902a6c9550e4c35bf16cc458c164736f6c63430008140033","opcodes":"PUSH1 0x80 DUP1 PUSH1 0x40 MSTORE CALLVALUE PUSH2 0xB8 JUMPI CALLER ISZERO PUSH2 0xA2 JUMPI PUSH1 0x0 DUP1 SLOAD CALLER PUSH1 0x1 PUSH1 0x1 PUSH1 0xA0 SHL SUB NOT DUP3 AND DUP2 OR DUP4 SSTORE PUSH1 0x40 MLOAD SWAP3 SWAP2 PUSH1 0x1 PUSH1 0x1 PUSH1 0xA0 SHL SUB AND PUSH32 0x8BE0079C531659141344CD1FD0A4F28419497F9722A3DAAFE3B4186F6B6457E0 DUP4 DUP1 LOG3 PUSH1 0x1 DUP1 SSTORE CALLER DUP2 MSTORE PUSH1 0x6 PUSH1 0x20 MSTORE PUSH1 0x40 DUP2 KECCAK256 PUSH1 0x1 PUSH1 0xFF NOT DUP3 SLOAD AND OR SWAP1 SSTORE PUSH32 0xCAAC1CDED5F66C118BA915F0FC60CD20A0924FCF956320B5230E70C8D5A773CA CALLER SWAP2 DUP1 LOG2 PUSH2 0x84B SWAP1 DUP2 PUSH2 0xBE DUP3 CODECOPY RETURN JUMPDEST PUSH4 0x1E4FBDF7 PUSH1 0xE0 SHL DUP2 MSTORE PUSH1 0x0 PUSH1 0x4 DUP3 ADD MSTORE PUSH1 0x24 SWAP1 REVERT JUMPDEST PUSH1 0x0 DUP1 REVERT INVALID PUSH1 0x80 PUSH1 0x40 DUP2 DUP2 MSTORE PUSH1 0x4 SWAP2 DUP3 CALLDATASIZE LT ISZERO PUSH2 0x16 JUMPI PUSH1 0x0 DUP1 REVERT JUMPDEST PUSH1 0x0 SWAP3 DUP4 CALLDATALOAD PUSH1 0xE0 SHR SWAP2 DUP3 PUSH4 0x25DED4A2 EQ PUSH2 0x61A JUMPI POP DUP2 PUSH4 0x460F2E15 EQ PUSH2 0x233 JUMPI DUP2 PUSH4 0x5E8F040C EQ PUSH2 0x5ED JUMPI DUP2 PUSH4 0x6971F479 EQ PUSH2 0x525 JUMPI DUP2 PUSH4 0x715018A6 EQ PUSH2 0x4C8 JUMPI DUP2 PUSH4 0x789D392A EQ PUSH2 0x495 JUMPI DUP2 PUSH4 0x8DA5CB5B EQ PUSH2 0x46D JUMPI DUP2 PUSH4 0x9BA78FD9 EQ PUSH2 0x407 JUMPI DUP2 PUSH4 0xBFF1F9E1 EQ PUSH2 0x3E8 JUMPI DUP2 PUSH4 0xC9FA6312 EQ PUSH2 0x271 JUMPI DUP2 PUSH4 0xE712A35D EQ PUSH2 0x233 JUMPI DUP2 PUSH4 0xED9DBF42 EQ PUSH2 0x1FB JUMPI DUP2 PUSH4 0xF2776D2E EQ PUSH2 0x17C JUMPI DUP2 PUSH4 0xF2FDE38B EQ PUSH2 0xF1 JUMPI POP PUSH4 0xFC1C2157 EQ PUSH2 0xCA JUMPI PUSH1 0x0 DUP1 REVERT JUMPDEST CALLVALUE PUSH2 0xED JUMPI PUSH1 0x20 SWAP1 PUSH2 0xE4 PUSH2 0xDE CALLDATASIZE PUSH2 0x785 JUMP JUMPDEST SWAP1 PUSH2 0x7EA JUMP JUMPDEST SWAP1 MLOAD SWAP1 ISZERO ISZERO DUP2 MSTORE RETURN JUMPDEST POP DUP1 REVERT JUMPDEST SWAP1 POP CALLVALUE PUSH2 0x178 JUMPI PUSH1 0x20 CALLDATASIZE PUSH1 0x3 NOT ADD SLT PUSH2 0x178 JUMPI PUSH2 0x10C PUSH2 0x76F JUMP JUMPDEST SWAP1 PUSH2 0x115 PUSH2 0x79B JUMP JUMPDEST PUSH1 0x1 PUSH1 0x1 PUSH1 0xA0 SHL SUB SWAP2 DUP3 AND SWAP3 DUP4 ISZERO PUSH2 0x162 JUMPI POP POP DUP3 SLOAD PUSH1 0x1 PUSH1 0x1 PUSH1 0xA0 SHL SUB NOT DUP2 AND DUP4 OR DUP5 SSTORE AND PUSH32 0x8BE0079C531659141344CD1FD0A4F28419497F9722A3DAAFE3B4186F6B6457E0 DUP4 DUP1 LOG3 DUP1 RETURN JUMPDEST MLOAD PUSH4 0x1E4FBDF7 PUSH1 0xE0 SHL DUP2 MSTORE SWAP1 DUP2 ADD DUP5 SWAP1 MSTORE PUSH1 0x24 SWAP1 REVERT JUMPDEST DUP3 DUP1 REVERT JUMPDEST SWAP2 SWAP1 POP CALLVALUE PUSH2 0x178 JUMPI PUSH1 0x20 CALLDATASIZE PUSH1 0x3 NOT ADD SLT PUSH2 0x178 JUMPI PUSH2 0x198 PUSH2 0x76F JUMP JUMPDEST PUSH2 0x1A0 PUSH2 0x79B JUMP JUMPDEST PUSH1 0x1 PUSH1 0x1 PUSH1 0xA0 SHL SUB AND SWAP2 DUP3 ISZERO PUSH2 0x1ED JUMPI POP DUP2 DUP4 MSTORE PUSH1 0x6 PUSH1 0x20 MSTORE DUP3 KECCAK256 DUP1 SLOAD PUSH1 0xFF NOT AND PUSH1 0x1 OR SWAP1 SSTORE PUSH32 0xCAAC1CDED5F66C118BA915F0FC60CD20A0924FCF956320B5230E70C8D5A773CA DUP3 DUP1 LOG2 DUP1 RETURN JUMPDEST SWAP1 MLOAD PUSH4 0xA5F90A11 PUSH1 0xE0 SHL DUP2 MSTORE REVERT JUMPDEST POP POP CALLVALUE PUSH2 0xED JUMPI PUSH1 0x20 CALLDATASIZE PUSH1 0x3 NOT ADD SLT PUSH2 0xED JUMPI PUSH1 0x20 SWAP2 DUP2 SWAP1 PUSH1 0x1 PUSH1 0x1 PUSH1 0xA0 SHL SUB PUSH2 0x223 PUSH2 0x76F JUMP JUMPDEST AND DUP2 MSTORE PUSH1 0x3 DUP5 MSTORE KECCAK256 SLOAD SWAP1 MLOAD SWAP1 DUP2 MSTORE RETURN JUMPDEST POP POP CALLVALUE PUSH2 0xED JUMPI PUSH1 0x20 CALLDATASIZE PUSH1 0x3 NOT ADD SLT PUSH2 0xED JUMPI PUSH1 0x20 SWAP2 PUSH1 0xFF SWAP1 DUP3 SWAP1 PUSH1 0x1 PUSH1 0x1 PUSH1 0xA0 SHL SUB PUSH2 0x25E PUSH2 0x76F JUMP JUMPDEST AND DUP2 MSTORE PUSH1 0x6 DUP6 MSTORE KECCAK256 SLOAD AND SWAP1 MLOAD SWAP1 ISZERO ISZERO DUP2 MSTORE RETURN JUMPDEST DUP4 DUP4 CALLVALUE PUSH2 0xED JUMPI PUSH1 0x60 CALLDATASIZE PUSH1 0x3 NOT ADD SLT PUSH2 0xED JUMPI DUP3 CALLDATALOAD PUSH2 0x28E PUSH2 0x754 JUMP JUMPDEST PUSH1 0x44 CALLDATALOAD SWAP3 CALLER DUP6 MSTORE PUSH1 0x20 SWAP2 PUSH1 0x6 DUP4 MSTORE PUSH1 0xFF DUP3 DUP8 KECCAK256 SLOAD AND ISZERO DUP1 PUSH2 0x3D4 JUMPI JUMPDEST PUSH2 0x3C4 JUMPI PUSH2 0x2B6 PUSH2 0x7C7 JUMP JUMPDEST DUP4 DUP7 MSTORE PUSH1 0x5 DUP4 MSTORE PUSH1 0xFF DUP3 DUP8 KECCAK256 SLOAD AND PUSH2 0x3B4 JUMPI PUSH1 0x1 PUSH1 0x1 PUSH1 0xA0 SHL SUB AND SWAP4 DUP5 ISZERO PUSH2 0x3A4 JUMPI DUP5 DUP7 MSTORE PUSH1 0x3 DUP4 MSTORE DUP2 DUP7 KECCAK256 SLOAD PUSH2 0x394 JUMPI DUP1 ISZERO PUSH2 0x384 JUMPI DUP4 DUP7 MSTORE PUSH1 0x2 DUP4 MSTORE DUP2 DUP7 KECCAK256 DUP1 SLOAD PUSH1 0x1 PUSH1 0x1 PUSH1 0xA0 SHL SUB NOT AND DUP7 OR SWAP1 SSTORE DUP5 DUP7 MSTORE PUSH1 0x3 DUP4 MSTORE DUP2 DUP7 KECCAK256 DUP5 SWAP1 SSTORE DUP4 DUP7 MSTORE DUP7 DUP4 MSTORE DUP2 DUP7 KECCAK256 SSTORE PUSH1 0x5 DUP3 MSTORE DUP1 DUP6 KECCAK256 DUP1 SLOAD PUSH1 0xFF NOT AND PUSH1 0x1 OR SWAP1 SSTORE PUSH1 0x7 SLOAD PUSH1 0x0 NOT DUP2 EQ PUSH2 0x371 JUMPI PUSH1 0x1 ADD PUSH1 0x7 SSTORE MLOAD TIMESTAMP DUP2 MSTORE PUSH32 0xF350FDFB36982A8157A4061FBE3ED72F5C6589FE868750066C82863FD776E08D SWAP2 SWAP1 LOG3 PUSH1 0x1 DUP1 SSTORE DUP1 RETURN JUMPDEST PUSH4 0x4E487B71 PUSH1 0xE0 SHL DUP7 MSTORE PUSH1 0x11 DUP8 MSTORE PUSH1 0x24 DUP7 REVERT JUMPDEST DUP2 MLOAD PUSH4 0x6FE3611F PUSH1 0xE0 SHL DUP2 MSTORE DUP8 SWAP1 REVERT JUMPDEST DUP2 MLOAD PUSH4 0x792279F3 PUSH1 0xE0 SHL DUP2 MSTORE DUP8 SWAP1 REVERT JUMPDEST DUP2 MLOAD PUSH4 0xA5F90A11 PUSH1 0xE0 SHL DUP2 MSTORE DUP8 SWAP1 REVERT JUMPDEST DUP2 MLOAD PUSH4 0xEDB5DDB PUSH1 0xE3 SHL DUP2 MSTORE DUP8 SWAP1 REVERT JUMPDEST DUP2 MLOAD PUSH4 0xEA8E4EB5 PUSH1 0xE0 SHL DUP2 MSTORE DUP8 SWAP1 REVERT JUMPDEST POP DUP6 SLOAD PUSH1 0x1 PUSH1 0x1 PUSH1 0xA0 SHL SUB AND CALLER EQ ISZERO PUSH2 0x2AA JUMP JUMPDEST POP POP CALLVALUE PUSH2 0xED JUMPI DUP2 PUSH1 0x3 NOT CALLDATASIZE ADD SLT PUSH2 0xED JUMPI PUSH1 0x20 SWAP1 PUSH1 0x7 SLOAD SWAP1 MLOAD SWAP1 DUP2 MSTORE RETURN JUMPDEST POP POP CALLVALUE PUSH2 0xED JUMPI PUSH1 0x20 CALLDATASIZE PUSH1 0x3 NOT ADD SLT PUSH2 0xED JUMPI PUSH2 0x422 PUSH2 0x76F JUMP JUMPDEST PUSH2 0x42A PUSH2 0x79B JUMP JUMPDEST PUSH1 0x1 PUSH1 0x1 PUSH1 0xA0 SHL SUB AND DUP1 DUP4 MSTORE PUSH1 0x6 PUSH1 0x20 MSTORE SWAP1 DUP3 KECCAK256 DUP1 SLOAD PUSH1 0xFF NOT AND SWAP1 SSTORE PUSH32 0xF67D2FE786130B5E40E7072669D48D149B5F06B216DF088CE137F3101D29FCF3 DUP3 DUP1 LOG2 DUP1 RETURN JUMPDEST POP POP CALLVALUE PUSH2 0xED JUMPI DUP2 PUSH1 0x3 NOT CALLDATASIZE ADD SLT PUSH2 0xED JUMPI SWAP1 SLOAD SWAP1 MLOAD PUSH1 0x1 PUSH1 0x1 PUSH1 0xA0 SHL SUB SWAP1 SWAP2 AND DUP2 MSTORE PUSH1 0x20 SWAP1 RETURN JUMPDEST SWAP1 POP CALLVALUE PUSH2 0x178 JUMPI PUSH1 0x20 CALLDATASIZE PUSH1 0x3 NOT ADD SLT PUSH2 0x178 JUMPI CALLDATALOAD DUP3 MSTORE PUSH1 0x2 PUSH1 0x20 SWAP1 DUP2 MSTORE SWAP2 DUP2 SWAP1 KECCAK256 SLOAD SWAP1 MLOAD PUSH1 0x1 PUSH1 0x1 PUSH1 0xA0 SHL SUB SWAP1 SWAP2 AND DUP2 MSTORE RETURN JUMPDEST DUP4 CALLVALUE PUSH2 0x522 JUMPI DUP1 PUSH1 0x3 NOT CALLDATASIZE ADD SLT PUSH2 0x522 JUMPI PUSH2 0x4E1 PUSH2 0x79B JUMP JUMPDEST DUP1 SLOAD PUSH1 0x1 PUSH1 0x1 PUSH1 0xA0 SHL SUB NOT DUP2 AND DUP3 SSTORE DUP2 SWAP1 PUSH1 0x1 PUSH1 0x1 PUSH1 0xA0 SHL SUB AND PUSH32 0x8BE0079C531659141344CD1FD0A4F28419497F9722A3DAAFE3B4186F6B6457E0 DUP3 DUP1 LOG3 DUP1 RETURN JUMPDEST DUP1 REVERT JUMPDEST SWAP2 SWAP1 POP CALLVALUE PUSH2 0x178 JUMPI PUSH2 0x536 CALLDATASIZE PUSH2 0x785 JUMP JUMPDEST SWAP1 SWAP3 CALLER DUP6 MSTORE PUSH1 0x6 PUSH1 0x20 MSTORE PUSH1 0xFF DUP4 DUP7 KECCAK256 SLOAD AND ISZERO DUP1 PUSH2 0x5D9 JUMPI JUMPDEST PUSH2 0x5CB JUMPI PUSH2 0x55A PUSH2 0x7C7 JUMP JUMPDEST DUP4 DUP6 MSTORE PUSH1 0x5 PUSH1 0x20 MSTORE PUSH1 0xFF DUP4 DUP7 KECCAK256 SLOAD AND ISZERO PUSH2 0x5BD JUMPI DUP2 ISZERO PUSH2 0x5AF JUMPI SWAP2 PUSH1 0x20 SWAP2 PUSH32 0x2B880068A2BFF23BC157E98B3E94B6098CAC08EFB8F625D65CC1A712BB2B4B04 SWAP4 DUP6 DUP8 MSTORE DUP4 MSTORE DUP2 DUP7 KECCAK256 SSTORE MLOAD TIMESTAMP DUP2 MSTORE LOG2 PUSH1 0x1 DUP1 SSTORE DUP1 RETURN JUMPDEST DUP3 MLOAD PUSH4 0x6FE3611F PUSH1 0xE0 SHL DUP2 MSTORE REVERT JUMPDEST DUP3 MLOAD PUSH4 0xF1B3A35F PUSH1 0xE0 SHL DUP2 MSTORE REVERT JUMPDEST DUP3 MLOAD PUSH4 0xEA8E4EB5 PUSH1 0xE0 SHL DUP2 MSTORE REVERT JUMPDEST POP DUP5 SLOAD PUSH1 0x1 PUSH1 0x1 PUSH1 0xA0 SHL SUB AND CALLER EQ ISZERO PUSH2 0x54E JUMP JUMPDEST SWAP1 POP CALLVALUE PUSH2 0x178 JUMPI PUSH1 0x20 CALLDATASIZE PUSH1 0x3 NOT ADD SLT PUSH2 0x178 JUMPI DUP2 PUSH1 0x20 SWAP4 PUSH1 0xFF SWAP3 CALLDATALOAD DUP2 MSTORE PUSH1 0x5 DUP6 MSTORE KECCAK256 SLOAD AND SWAP1 MLOAD SWAP1 ISZERO ISZERO DUP2 MSTORE RETURN JUMPDEST SWAP2 POP SWAP2 CALLVALUE PUSH2 0x750 JUMPI DUP1 PUSH1 0x3 NOT CALLDATASIZE ADD SLT PUSH2 0x750 JUMPI DUP3 CALLDATALOAD SWAP1 PUSH2 0x638 PUSH2 0x754 JUMP JUMPDEST CALLER DUP7 MSTORE PUSH1 0x20 SWAP4 PUSH1 0x6 DUP6 MSTORE PUSH1 0xFF DUP4 DUP9 KECCAK256 SLOAD AND ISZERO DUP1 PUSH2 0x73C JUMPI JUMPDEST PUSH2 0x72E JUMPI POP PUSH2 0x65D PUSH2 0x7C7 JUMP JUMPDEST DUP3 DUP7 MSTORE PUSH1 0x5 DUP5 MSTORE PUSH1 0xFF DUP3 DUP8 KECCAK256 SLOAD AND ISZERO PUSH2 0x71E JUMPI PUSH1 0x1 PUSH1 0x1 PUSH1 0xA0 SHL SUB SWAP1 DUP2 AND SWAP5 DUP6 ISZERO PUSH2 0x710 JUMPI DUP6 DUP8 MSTORE PUSH1 0x3 DUP6 MSTORE DUP3 DUP8 KECCAK256 SLOAD PUSH2 0x702 JUMPI POP SWAP1 PUSH1 0x3 DUP4 SWAP3 DUP4 DUP9 MSTORE PUSH1 0x2 DUP7 MSTORE DUP3 DUP9 KECCAK256 SLOAD AND SWAP5 DUP6 DUP9 MSTORE DUP2 DUP2 MSTORE DUP8 DUP4 DUP2 KECCAK256 SSTORE DUP4 DUP9 MSTORE PUSH1 0x2 DUP2 MSTORE DUP3 DUP9 KECCAK256 DUP8 PUSH12 0xFFFFFFFFFFFFFFFFFFFFFFFF PUSH1 0xA0 SHL DUP3 SLOAD AND OR SWAP1 SSTORE DUP7 DUP9 MSTORE MSTORE DUP6 KECCAK256 SSTORE PUSH32 0x8360D87CE8148BDD27D0428CD4322018D2DFC7C37601431A95EEE5C96B2AECCF DUP5 DUP1 LOG4 PUSH1 0x1 DUP1 SSTORE DUP1 RETURN JUMPDEST DUP3 MLOAD PUSH4 0x792279F3 PUSH1 0xE0 SHL DUP2 MSTORE REVERT JUMPDEST DUP3 MLOAD PUSH4 0xA5F90A11 PUSH1 0xE0 SHL DUP2 MSTORE REVERT JUMPDEST DUP2 MLOAD PUSH4 0xF1B3A35F PUSH1 0xE0 SHL DUP2 MSTORE DUP6 SWAP1 REVERT JUMPDEST PUSH4 0xEA8E4EB5 PUSH1 0xE0 SHL DUP2 MSTORE DUP6 SWAP1 REVERT JUMPDEST POP DUP7 SLOAD PUSH1 0x1 PUSH1 0x1 PUSH1 0xA0 SHL SUB AND CALLER EQ ISZERO PUSH2 0x650 JUMP JUMPDEST DUP4 DUP1 REVERT JUMPDEST PUSH1 0x24 CALLDATALOAD SWAP1 PUSH1 0x1 PUSH1 0x1 PUSH1 0xA0 SHL SUB DUP3 AND DUP3 SUB PUSH2 0x76A JUMPI JUMP JUMPDEST PUSH1 0x0 DUP1 REVERT JUMPDEST PUSH1 0x4 CALLDATALOAD SWAP1 PUSH1 0x1 PUSH1 0x1 PUSH1 0xA0 SHL SUB DUP3 AND DUP3 SUB PUSH2 0x76A JUMPI JUMP JUMPDEST PUSH1 0x40 SWAP1 PUSH1 0x3 NOT ADD SLT PUSH2 0x76A JUMPI PUSH1 0x4 CALLDATALOAD SWAP1 PUSH1 0x24 CALLDATALOAD SWAP1 JUMP JUMPDEST PUSH1 0x0 SLOAD PUSH1 0x1 PUSH1 0x1 PUSH1 0xA0 SHL SUB AND CALLER SUB PUSH2 0x7AF JUMPI JUMP JUMPDEST PUSH1 0x40 MLOAD PUSH4 0x118CDAA7 PUSH1 0xE0 SHL DUP2 MSTORE CALLER PUSH1 0x4 DUP3 ADD MSTORE PUSH1 0x24 SWAP1 REVERT JUMPDEST PUSH1 0x2 PUSH1 0x1 SLOAD EQ PUSH2 0x7D8 JUMPI PUSH1 0x2 PUSH1 0x1 SSTORE JUMP JUMPDEST PUSH1 0x40 MLOAD PUSH4 0x3EE5AEB5 PUSH1 0xE0 SHL DUP2 MSTORE PUSH1 0x4 SWAP1 REVERT JUMPDEST PUSH1 0x0 MSTORE PUSH1 0x5 PUSH1 0x20 MSTORE PUSH1 0xFF PUSH1 0x40 PUSH1 0x0 KECCAK256 SLOAD AND ISZERO PUSH2 0x80F JUMPI PUSH1 0x4 PUSH1 0x20 MSTORE PUSH1 0x40 PUSH1 0x0 KECCAK256 SLOAD EQ SWAP1 JUMP JUMPDEST POP PUSH1 0x0 SWAP1 JUMP INVALID LOG2 PUSH5 0x6970667358 0x22 SLT KECCAK256 SWAP12 PUSH2 0xA959 0xA7 CALLCODE 0x5E CREATE 0x1F SWAP4 0xD4 SLT 0xD3 SWAP16 0xD6 CALLVALUE SHR MSTORE8 0x4F SWAP1 0x2A PUSH13 0x9550E4C35BF16CC458C164736F PUSH13 0x63430008140033000000000000 "},"methodIdentifiers":{"addAuthorizedBackend(address)":"f2776d2e","authorizedBackends(address)":"e712a35d","checkRegistration(bytes32)":"5e8f040c","getPhoneHash(address)":"ed9dbf42","getWallet(bytes32)":"789d392a","isAuthorizedBackend(address)":"460f2e15","owner()":"8da5cb5b","registerWallet(bytes32,address,bytes32)":"c9fa6312","removeAuthorizedBackend(address)":"9ba78fd9","renounceOwnership()":"715018a6","totalUsers()":"bff1f9e1","transferOwnership(address)":"f2fde38b","updatePin(bytes32,bytes32)":"6971f479","updateWallet(bytes32,address)":"25ded4a2","verifyPin(bytes32,bytes32)":"fc1c2157"}}}}}