{"contracts/MicroLoan.sol":{"MicroLoan":{"abi":[{"inputs":[{"internalType":"address","name":"_walletRegistry","type":"address"}],"stateMutability":"nonpayable","type":"constructor"},{"inputs":[],"name":"ActiveLoanExists","type":"error"},{"inputs":[],"name":"EnforcedPause","type":"error"},{"inputs":[],"name":"ExpectedPause","type":"error"},{"inputs":[],"name":"InsufficientCollateral","type":"error"},{"inputs":[],"name":"InsufficientLiquidity","type":"error"},{"inputs":[],"name":"InsufficientRepayment","type":"error"},{"inputs":[],"name":"InvalidAmount","type":"error"},{"inputs":[],"name":"InvalidDuration","type":"error"},{"inputs":[],"name":"InvalidTier","type":"error"},{"inputs":[],"name":"LoanAlreadyDefaulted","type":"error"},{"inputs":[],"name":"LoanNotDue","type":"error"},{"inputs":[],"name":"NoActiveLoan","type":"error"},{"inputs":[],"name":"NotAuthorized","type":"error"},{"inputs":[],"name":"NotRegistered","type":"error"},{"inputs":[{"internalType":"address","name":"owner","type":"address"}],"name":"OwnableInvalidOwner","type":"error"},{"inputs":[{"internalType":"address","name":"account","type":"address"}],"name":"OwnableUnauthorizedAccount","type":"error"},{"inputs":[],"name":"ReentrancyGuardReentrantCall","type":"error"},{"inputs":[],"name":"TransferFailed","type":"error"},{"anonymous":false,"inputs":[{"indexed":false,"internalType":"uint256","name":"oldRatio","type":"uint256"},{"indexed":false,"internalType":"uint256","name":"newRatio","type":"uint256"}],"name":"CollateralRatioUpdated","type":"event"},{"anonymous":false,"inputs":[{"indexed":true,"internalType":"address","name":"provider","type":"address"},{"indexed":false,"internalType":"uint256","name":"amount","type":"uint256"}],"name":"LiquidityAdded","type":"event"},{"anonymous":false,"inputs":[{"indexed":true,"internalType":"address","name":"to","type":"address"},{"indexed":false,"internalType":"uint256","name":"amount","type":"uint256"}],"name":"LiquidityRemoved","type":"event"},{"anonymous":false,"inputs":[{"indexed":true,"internalType":"bytes32","name":"phoneHash","type":"bytes32"},{"indexed":true,"internalType":"uint256","name":"loanId","type":"uint256"},{"indexed":false,"internalType":"uint256","name":"collateralSeized","type":"uint256"}],"name":"LoanDefaulted","type":"event"},{"anonymous":false,"inputs":[{"indexed":true,"internalType":"bytes32","name":"phoneHash","type":"bytes32"},{"indexed":true,"internalType":"uint256","name":"loanId","type":"uint256"},{"indexed":false,"internalType":"uint256","name":"amountPaid","type":"uint256"},{"indexed":false,"internalType":"uint256","name":"collateralReturned","type":"uint256"}],"name":"LoanRepaid","type":"event"},{"anonymous":false,"inputs":[{"indexed":true,"internalType":"bytes32","name":"phoneHash","type":"bytes32"},{"indexed":true,"internalType":"uint256","name":"loanId","type":"uint256"},{"indexed":false,"internalType":"uint256","name":"principal","type":"uint256"},{"indexed":false,"internalType":"uint256","name":"collateral","type":"uint256"},{"indexed":false,"internalType":"uint256","name":"totalDue","type":"uint256"},{"indexed":false,"internalType":"uint256","name":"dueDate","type":"uint256"}],"name":"LoanRequested","type":"event"},{"anonymous":false,"inputs":[{"indexed":true,"internalType":"address","name":"previousOwner","type":"address"},{"indexed":true,"internalType":"address","name":"newOwner","type":"address"}],"name":"OwnershipTransferred","type":"event"},{"anonymous":false,"inputs":[{"indexed":true,"internalType":"bytes32","name":"phoneHash","type":"bytes32"},{"indexed":true,"internalType":"uint256","name":"loanId","type":"uint256"},{"indexed":false,"internalType":"uint256","name":"amountPaid","type":"uint256"},{"indexed":false,"internalType":"uint256","name":"remainingDue","type":"uint256"}],"name":"PartialRepayment","type":"event"},{"anonymous":false,"inputs":[{"indexed":false,"internalType":"address","name":"account","type":"address"}],"name":"Paused","type":"event"},{"anonymous":false,"inputs":[{"indexed":true,"internalType":"uint256","name":"tierId","type":"uint256"},{"indexed":false,"internalType":"uint256","name":"minAmount","type":"uint256"},{"indexed":false,"internalType":"uint256","name":"maxAmount","type":"uint256"}],"name":"TierUpdated","type":"event"},{"anonymous":false,"inputs":[{"indexed":false,"internalType":"address","name":"account","type":"address"}],"name":"Unpaused","type":"event"},{"inputs":[{"internalType":"address","name":"backend","type":"address"}],"name":"addAuthorizedBackend","outputs":[],"stateMutability":"nonpayable","type":"function"},{"inputs":[],"name":"addLiquidity","outputs":[],"stateMutability":"payable","type":"function"},{"inputs":[{"internalType":"address","name":"","type":"address"}],"name":"authorizedBackends","outputs":[{"internalType":"bool","name":"","type":"bool"}],"stateMutability":"view","type":"function"},{"inputs":[],"name":"availableLiquidity","outputs":[{"internalType":"uint256","name":"","type":"uint256"}],"stateMutability":"view","type":"function"},{"inputs":[{"internalType":"uint256","name":"principal","type":"uint256"},{"internalType":"uint256","name":"duration","type":"uint256"},{"internalType":"uint256","name":"tierId","type":"uint256"}],"name":"calculateLoanQuote","outputs":[{"internalType":"uint256","name":"requiredCollateral","type":"uint256"},{"internalType":"uint256","name":"interest","type":"uint256"},{"internalType":"uint256","name":"totalDue","type":"uint256"},{"internalType":"uint256","name":"monthlyEquivalentRate","type":"uint256"},{"internalType":"bool","name":"valid","type":"bool"}],"stateMutability":"view","type":"function"},{"inputs":[{"internalType":"bytes32","name":"phoneHash","type":"bytes32"}],"name":"checkEligibility","outputs":[{"internalType":"bool","name":"eligible","type":"bool"},{"internalType":"string","name":"reason","type":"string"}],"stateMutability":"view","type":"function"},{"inputs":[],"name":"getAvailableTiers","outputs":[{"components":[{"internalType":"uint256","name":"minAmount","type":"uint256"},{"internalType":"uint256","name":"maxAmount","type":"uint256"},{"internalType":"uint256","name":"interestRateBps","type":"uint256"},{"internalType":"uint256","name":"minDuration","type":"uint256"},{"internalType":"uint256","name":"maxDuration","type":"uint256"},{"internalType":"bool","name":"active","type":"bool"}],"internalType":"struct MicroLoan.LoanTier[]","name":"tiers","type":"tuple[]"}],"stateMutability":"view","type":"function"},{"inputs":[{"internalType":"bytes32","name":"phoneHash","type":"bytes32"}],"name":"getLoanDetails","outputs":[{"internalType":"uint256","name":"loanId","type":"uint256"},{"internalType":"uint256","name":"principal","type":"uint256"},{"internalType":"uint256","name":"collateral","type":"uint256"},{"internalType":"uint256","name":"totalDue","type":"uint256"},{"internalType":"uint256","name":"repaidAmount","type":"uint256"},{"internalType":"uint256","name":"remainingDue","type":"uint256"},{"internalType":"uint256","name":"dueDate","type":"uint256"},{"internalType":"enum MicroLoan.LoanStatus","name":"status","type":"uint8"}],"stateMutability":"view","type":"function"},{"inputs":[{"internalType":"bytes32","name":"phoneHash","type":"bytes32"},{"internalType":"uint256","name":"limit","type":"uint256"}],"name":"getLoanHistory","outputs":[{"components":[{"internalType":"uint256","name":"loanId","type":"uint256"},{"internalType":"uint256","name":"principal","type":"uint256"},{"internalType":"uint256","name":"collateral","type":"uint256"},{"internalType":"uint256","name":"interestRate","type":"uint256"},{"internalType":"uint256","name":"startTime","type":"uint256"},{"internalType":"uint256","name":"duration","type":"uint256"},{"internalType":"uint256","name":"totalDue","type":"uint256"},{"internalType":"uint256","name":"repaidAmount","type":"uint256"},{"internalType":"enum MicroLoan.LoanStatus","name":"status","type":"uint8"}],"internalType":"struct MicroLoan.Loan[]","name":"","type":"tuple[]"}],"stateMutability":"view","type":"function"},{"inputs":[],"name":"liquidationThreshold","outputs":[{"internalType":"uint256","name":"","type":"uint256"}],"stateMutability":"view","type":"function"},{"inputs":[{"internalType":"uint256","name":"","type":"uint256"}],"name":"loanTiers","outputs":[{"internalType":"uint256","name":"minAmount","type":"uint256"},{"internalType":"uint256","name":"maxAmount","type":"uint256"},{"internalType":"uint256","name":"interestRateBps","type":"uint256"},{"internalType":"uint256","name":"minDuration","type":"uint256"},{"internalType":"uint256","name":"maxDuration","type":"uint256"},{"internalType":"bool","name":"active","type":"bool"}],"stateMutability":"view","type":"function"},{"inputs":[{"internalType":"bytes32","name":"","type":"bytes32"}],"name":"loans","outputs":[{"internalType":"uint256","name":"loanId","type":"uint256"},{"internalType":"uint256","name":"principal","type":"uint256"},{"internalType":"uint256","name":"collateral","type":"uint256"},{"internalType":"uint256","name":"interestRate","type":"uint256"},{"internalType":"uint256","name":"startTime","type":"uint256"},{"internalType":"uint256","name":"duration","type":"uint256"},{"internalType":"uint256","name":"totalDue","type":"uint256"},{"internalType":"uint256","name":"repaidAmount","type":"uint256"},{"internalType":"enum MicroLoan.LoanStatus","name":"status","type":"uint8"}],"stateMutability":"view","type":"function"},{"inputs":[],"name":"minCollateralRatio","outputs":[{"internalType":"uint256","name":"","type":"uint256"}],"stateMutability":"view","type":"function"},{"inputs":[],"name":"owner","outputs":[{"internalType":"address","name":"","type":"address"}],"stateMutability":"view","type":"function"},{"inputs":[],"name":"pause","outputs":[],"stateMutability":"nonpayable","type":"function"},{"inputs":[],"name":"paused","outputs":[{"internalType":"bool","name":"","type":"bool"}],"stateMutability":"view","type":"function"},{"inputs":[{"internalType":"bytes32","name":"phoneHash","type":"bytes32"}],"name":"processDefault","outputs":[],"stateMutability":"nonpayable","type":"function"},{"inputs":[{"internalType":"address","name":"backend","type":"address"}],"name":"removeAuthorizedBackend","outputs":[],"stateMutability":"nonpayable","type":"function"},{"inputs":[{"internalType":"uint256","name":"amount","type":"uint256"}],"name":"removeLiquidity","outputs":[],"stateMutability":"nonpayable","type":"function"},{"inputs":[],"name":"renounceOwnership","outputs":[],"stateMutability":"nonpayable","type":"function"},{"inputs":[{"internalType":"bytes32","name":"phoneHash","type":"bytes32"}],"name":"repayLoan","outputs":[],"stateMutability":"payable","type":"function"},{"inputs":[{"internalType":"bytes32","name":"phoneHash","type":"bytes32"},{"internalType":"uint256","name":"principal","type":"uint256"},{"internalType":"uint256","name":"duration","type":"uint256"},{"internalType":"uint256","name":"tierId","type":"uint256"}],"name":"requestLoan","outputs":[],"stateMutability":"payable","type":"function"},{"inputs":[],"name":"tierCount","outputs":[{"internalType":"uint256","name":"","type":"uint256"}],"stateMutability":"view","type":"function"},{"inputs":[],"name":"totalActiveLoanValue","outputs":[{"internalType":"uint256","name":"","type":"uint256"}],"stateMutability":"view","type":"function"},{"inputs":[],"name":"totalInterestEarned","outputs":[{"internalType":"uint256","name":"","type":"uint256"}],"stateMutability":"view","type":"function"},{"inputs":[],"name":"totalLoansIssued","outputs":[{"internalType":"uint256","name":"","type":"uint256"}],"stateMutability":"view","type":"function"},{"inputs":[{"internalType":"address","name":"newOwner","type":"address"}],"name":"transferOwnership","outputs":[],"stateMutability":"nonpayable","type":"function"},{"inputs":[],"name":"unpause","outputs":[],"stateMutability":"nonpayable","type":"function"},{"inputs":[{"internalType":"uint256","name":"newRatio","type":"uint256"}],"name":"updateCollateralRatio","outputs":[],"stateMutability":"nonpayable","type":"function"},{"inputs":[{"internalType":"uint256","name":"tierId","type":"uint256"},{"internalType":"uint256","name":"minAmount","type":"uint256"},{"internalType":"uint256","name":"maxAmount","type":"uint256"},{"internalType":"uint256","name":"interestRateBps","type":"uint256"},{"internalType":"uint256","name":"minDuration","type":"uint256"},{"internalType":"uint256","name":"maxDuration","type":"uint256"},{"internalType":"bool","name":"active","type":"bool"}],"name":"updateTier","outputs":[],"stateMutability":"nonpayable","type":"function"},{"inputs":[],"name":"walletRegistry","outputs":[{"internalType":"contract IWalletRegistry","name":"","type":"address"}],"stateMutability":"view","type":"function"},{"stateMutability":"payable","type":"receive"}],"evm":{"bytecode":{"linkReferences":{},"object":"60a034620002ae57601f620020f738819003918201601f1916830192916001600160401b03841183851017620002b35780839260409586528339602092839181010312620002ae57516001600160a01b03808216929091839003620002ae57600192600092848455331562000296578454336001600160a01b0319821681178755879594600d9490939092167f8be0079c531659141344cd1fd0a4f28419497f9722a3daafe3b4186f6b6457e08680a3608052613a98600755612ee06008556200024f8584620000ce620002c9565b66038d7ea4c680008152620001d5858201916200015667016345785d8a000091828552888c8083016105dc81526060840162093a808152608085019162278d00998a845260a08701948d86528c805260059c8d8098522096518755518c87015551600286015551600385015551600484015551151591019060ff801983541691151516179055565b62000160620002c9565b90815283878a8c8285016706f05b59d3b20000998a8252828701916104b0835260608801936212750085526080890195624f1a0087528860a08b0198858a52858352522097518855519087015551600286015551600385015551600484015551151591019060ff801983541691151516179055565b620001df620002c9565b92835284830190671bc16d674ec800008252888401906103e882526060850190815260808501916276a700835260a08601938c855260028b528589528b8b2096518755518c87015551600286015551600385015551600484015551151591019060ff801983541691151516179055565b600360065533835252209060ff1982541617905551611e0d9081620002ea823960805181818161071b01528181610b9a01528181610e5a0152818161119c01526119650152f35b8551631e4fbdf760e01b815260048101859052602490fd5b600080fd5b634e487b7160e01b600052604160045260246000fd5b6040519060c082016001600160401b03811183821017620002b35760405256fe6080806040526004361015610025575b50361561001b57600080fd5b610023611d9a565b005b60003560e01c9081631c1abdc51461158a5750806324af5c011461144a5780633f4ba83a146113d85780633f84210f146110b15780634031234c146110935780635c975abb1461106d57806369108a8f14610b44578063715018a614610ae75780637437535914610ac95780637992ec48146109e85780638456cb591461098657806384da2666146109685780638da5cb5b1461093f57806396b55f7d146109215780639ba78fd9146108db5780639c8f9f23146107df5780639d34b839146107c1578063a2027d151461074a578063ab7aa6ad14610705578063b7d93f34146106e7578063c4a908151461065a578063c5da137e14610614578063c6eb92541461057d578063c7959d041461055f578063c84a8fc7146104f7578063e712a35d146104b4578063e8078d94146104a0578063ed44f544146103e2578063f2776d2e14610399578063f2fde38b146103095763f932437a14610187573861000f565b34610304576000366003190112610304576006546101a481611b94565b906101b260405192836117ce565b808252601f196101c182611b94565b0160005b8181106102c357505060005b81811061024a5760408051602080825285518183018190528187019383019160005b8281106102005784840385f35b855180518552808301518584015260408082015190860152606080820151908601526080808201519086015260a0908101511515908501529481019460c0909301926001016101f3565b806102be91600052600560ff60209180835260406000206040519361026e85611779565b81548552600182015490850152600281015460408501526003810154606085015260048101546080850152015416151560a08201526102ad8286611bac565b526102b88185611bac565b5061183e565b6101d1565b6020906040516102d281611779565b6000815282600081830152600060408301526000606083015260006080830152600060a08301528287010152016101c5565b600080fd5b34610304576020366003190112610304576004356001600160a01b03818116918290036103045761033861174d565b811561038057600154826bffffffffffffffffffffffff60a01b821617600155167f8be0079c531659141344cd1fd0a4f28419497f9722a3daafe3b4186f6b6457e0600080a3005b604051631e4fbdf760e01b815260006004820152602490fd5b34610304576020366003190112610304576004356001600160a01b03811690819003610304576103c761174d565b6000908152600d60205260409020805460ff19166001179055005b3461030457604036600319011261030457610401602435600435611bc0565b6040516020918282018383528151809152836040840192019360005b82811061042a5784840385f35b90919282610120600192610491895180518352848101518584015260408101516040840152606080820151908401526080808201519084015260a0808201519084015260c0808201519084015260e081015160e08401526101008091015190830190611740565b0196019101949291909461041d565b60003660031901126103045761001b61174d565b34610304576020366003190112610304576004356001600160a01b0381169081900361030457600052600d602052602060ff604060002054166040519015158152f35b3461030457602036600319011261030457600435600052600560205260c06040600020805490600181015490600281015460038201549060ff6005600485015494015416936040519586526020860152604085015260608401526080830152151560a0820152f35b34610304576000366003190112610304576020600954604051908152f35b346103045760203660031901126103045760043560005260026020526101006040600020610612815491600181015490600281015460068201546007830154906105c78282611893565b9260ff60086105df6004880154600589015490611831565b9601541695604051988952602089015260408801526060870152608086015260a085015260c084015260e0830190611740565bf35b346103045760603660031901126103045760a0610638604435602435600435611aae565b9260409291925194855260208501526040840152606083015215156080820152f35b34610304576020366003190112610304576004356000526002602052610120604060002061061281549160018101549060028101546003820154600483015460058401549160068501549360ff600860078801549701541696604051998a5260208a015260408901526060880152608087015260a086015260c085015260e0840152610100830190611740565b34610304576000366003190112610304576020600c54604051908152f35b34610304576000366003190112610304576040517f00000000000000000000000000000000000000000000000000000000000000006001600160a01b03168152602090f35b346103045760208060031936011261030457610767600435611943565b90604051928391151582526040818301528251908160408401526000935b8285106107a8575050606092506000838284010152601f80199101168101030190f35b8481018201518686016060015293810193859350610785565b34610304576000366003190112610304576020600a54604051908152f35b34610304576020366003190112610304576004356107fb61174d565b610803611920565b600b5480821161089d578161081791611893565b600b55600080808084335af161082b6118bf565b5015610864576040519081527fc2c3f06e49b9f15e7b4af9055e183b0d73362e033ad82a07dec9bf984017171960203392a26001600055005b60405162461bcd60e51b815260206004820152601160248201527015da5d1a191c985dd85b0819985a5b1959607a1b6044820152606490fd5b60405162461bcd60e51b8152602060048201526016602482015275496e73756666696369656e74206c697175696469747960501b6044820152606490fd5b34610304576020366003190112610304576004356001600160a01b038116908190036103045761090961174d565b6000908152600d60205260409020805460ff19169055005b34610304576000366003190112610304576020600654604051908152f35b34610304576000366003190112610304576001546040516001600160a01b039091168152602090f35b34610304576000366003190112610304576020600754604051908152f35b346103045760003660031901126103045761099f61174d565b6109a76118ff565b6001805460ff60a01b1916600160a01b1790556040513381527f62e78cea01bee320cd4e420270b5ea74000d11b0c9f74754ebdbfc544b05a25890602090a1005b3461030457602036600319011261030457600435610a0461174d565b6127108110610a8c576175308111610a4f5760407fea851fc89ebccda62380b76fc8e8317f0bcd4d75ea908cf501bd2ebc6ac1c8f291600754908060075582519182526020820152a1005b60405162461bcd60e51b8152602060048201526015602482015274526174696f206d757374206265203c3d203330302560581b6044820152606490fd5b60405162461bcd60e51b8152602060048201526015602482015274526174696f206d757374206265203e3d203130302560581b6044820152606490fd5b34610304576000366003190112610304576020600b54604051908152f35b3461030457600036600319011261030457610b0061174d565b600180546001600160a01b031981169091556000906001600160a01b03167f8be0079c531659141344cd1fd0a4f28419497f9722a3daafe3b4186f6b6457e08280a3005b60803660031901126103045733600052600d60205260ff604060002054161580611058575b61104657610b75611920565b610b7d6118ff565b6040516317a3c10360e21b815260048035908201526020816024817f00000000000000000000000000000000000000000000000000000000000000006001600160a01b03165afa908115610f4357600091611017575b501561100557600435600052600260205260ff600860406000200154166005811015610f6557600114610ff3576064356000526005602052604060002060ff60058201541615610fe1578054602435108015610fd2575b610fc0576003810154604435108015610fb1575b610f9f57602435600b5410610f8d57612710610c5e600754602435611808565b043410610f7b57610c9264496cebb800610c89604435610c846002860154602435611808565b611808565b04602435611831565b600260095492610ca18461183e565b600955015460405190610cb382611795565b8382526024356020830152346040830152606082015242608082015260443560a08201528160c0820152600060e0820152600161010082015260043560005260026020526040600020815181556020820151600182015560408201516002820155606082015160038201556080820151600482015560a0820151600582015560c0820151600682015560e082015160078201556101008201516005811015610f65576008610d61920161184d565b826000526004602052610100604060002091805183556020810151600184015560408101516002840155606081015160038401556080810151600484015560a0810151600584015560c0810151600684015560e0810151600784015501516005811015610f65576008610dd4920161184d565b60043560005260036020526040600020805468010000000000000000811015610f4f57610e0691600182018155611865565b81549060031b9084821b91600019901b1916179055610e29602435600b54611893565b600b55610e3a602435600a54611831565b600a55604051633c4e9c9560e11b815260048035908201526020816024817f00000000000000000000000000000000000000000000000000000000000000006001600160a01b03165afa908115610f4357600080809381938291610f14575b50602435905af1610ea86118bf565b5015610f0257610eba60443542611831565b604051916024358352346020840152604083015260608201527fba104e504e28875c033f91d6ca168027e60424bcfbe3e9ba78f890751c883efc608060043592a36001600055005b6040516312171d8360e31b8152600490fd5b610f36915060203d602011610f3c575b610f2e81836117ce565b8101906118a0565b87610e99565b503d610f24565b6040513d6000823e3d90fd5b634e487b7160e01b600052604160045260246000fd5b634e487b7160e01b600052602160045260246000fd5b604051633a23d82560e01b8152600490fd5b60405163bb55fd2760e01b8152600490fd5b604051637616640160e01b8152600490fd5b50600481015460443511610c3e565b60405163162908e360e11b8152600490fd5b50600181015460243511610c2a565b60405163e142361760e01b8152600490fd5b604051632179f9db60e21b8152600490fd5b60405163aba4733960e01b8152600490fd5b611039915060203d60201161103f575b61103181836117ce565b8101906117f0565b81610bd3565b503d611027565b60405163ea8e4eb560e01b8152600490fd5b506001546001600160a01b0316331415610b69565b3461030457600036600319011261030457602060ff60015460a01c166040519015158152f35b34610304576000366003190112610304576020600854604051908152f35b60203660031901126103045760043533600052600d60205260ff6040600020541615806113c3575b611046576110e5611920565b8060005260026020526040600020600881019160ff835416926005841015610f655760018094036113b15760068301928354600782019161112883548093611893565b913483116112d85750855493848455600260ff1982541617815561115c61115489840196875490611893565b600c54611831565b600c5561116c8754600b54611831565b600b5561117c8554600a54611893565b600a55604051633c4e9c9560e11b815260048101879052966020886024817f00000000000000000000000000000000000000000000000000000000000000006001600160a01b03165afa978815610f43576000986112b7575b506000808080600287019b6111f58d546111ef8b34611893565b90611831565b905af16112006118bf565b5015610f02577fa2f5983d6d2baa62ab069116f13e5d0223bf605b22e3552a62ad850d38bfab8a956040958a938554918260005260046020528860002094878603611260575b5050505050505054945482519182526020820152a3600055005b6112ab9660089560ff95885554908701558c5460028701556003880154600387015560048801546004870155600588015460058701555460068601555460078501555416910161184d565b86888080808080611246565b6112d191985060203d602011610f3c57610f2e81836117ce565b96896111d5565b6113469250907f1fb86b9ac4d6c4c287a9026f9c22da470207f7a7723a814aff83432ce6947b169461130e604095933490611831565b835561131c34600b54611831565b600b558154908160005260046020528560002090838203611357575b505050549554905490611893565b8151903482526020820152a3600055005b60ff6008916113a99484558c8601548d850155600286015460028501556003860154600385015560048601546004850155600586015460058501558b546006850155865460078501555416910161184d565b888080611338565b6040516301c8bc7760e21b8152600490fd5b506001546001600160a01b03163314156110d9565b34610304576000366003190112610304576113f161174d565b60015460ff8160a01c16156114385760ff60a01b19166001556040513381527f5db9ee0a495bf2e6ff9c91a7834c1ba4fdd244a5e8aa4e537bd38aeae4b073aa90602090a1005b604051638dfc202b60e01b8152600490fd5b346103045760e03660031901126103045760043560243560443560c435918215158093036103045761147a61174d565b600654918285108015611581575b1561154d577f2702951ec468d8fb7c1501e01af87b4bd50cda65a20463fc38ee59b954a777b09383604094871461153b575b50600584516114c881611779565b84815260208101848152868201606435815260608301906084358252608084019260a435845260a085019687528b600052856020528960002094518555516001850155516002840155516003830155516004820155019051151560ff8019835416911617905582519182526020820152a2005b6115449061183e565b600655866114ba565b60405162461bcd60e51b815260206004820152600c60248201526b24b73b30b634b2103a34b2b960a11b6044820152606490fd5b50828514611488565b34610304576020366003190112610304576004359033600052600d60205260ff60406000205416158061172b575b61171c57506115c5611920565b8060005260026020526040600020906008820191825460ff81166005811015610f65576001036113b15760048201918254946116076005830196875490611831565b42111561170a577fc220bec3f0df7d7192da38dfba2cddeff069ed769b0a710445d754dbee94469593600360209460ff191617825560028301918254976006850191825461165b6007880191825490611893565b506116688b600b54611831565b600b5560018701936116886116808654845490611893565b600a54611893565b600a558754938460005260048a526040600020968988036116b9575b8d8d8d8d8d5493604051908152a36001600055005b6116fc9860089760ff978a555460018a015554600289015560038a015460038901555460048801555460058701555460068601555460078501555416910161184d565b8580808080808080806116a4565b604051632539349b60e01b8152600490fd5b63ea8e4eb560e01b8152600490fd5b506001546001600160a01b03163314156115b8565b906005821015610f655752565b6001546001600160a01b0316330361176157565b60405163118cdaa760e01b8152336004820152602490fd5b60c0810190811067ffffffffffffffff821117610f4f57604052565b610120810190811067ffffffffffffffff821117610f4f57604052565b6040810190811067ffffffffffffffff821117610f4f57604052565b90601f8019910116810190811067ffffffffffffffff821117610f4f57604052565b90816020910312610304575180151581036103045790565b8181029291811591840414171561181b57565b634e487b7160e01b600052601160045260246000fd5b9190820180921161181b57565b600019811461181b5760010190565b906005811015610f655760ff80198354169116179055565b805482101561187d5760005260206000200190600090565b634e487b7160e01b600052603260045260246000fd5b9190820391821161181b57565b9081602091031261030457516001600160a01b03811681036103045790565b3d156118fa573d9067ffffffffffffffff8211610f4f57604051916118ee601f8201601f1916602001846117ce565b82523d6000602084013e565b606090565b60ff60015460a01c1661190e57565b60405163d93c066560e01b8152600490fd5b600260005414611931576002600055565b604051633ee5aeb560e01b8152600490fd5b604080516317a3c10360e21b81526004810183905290929160209182816024817f00000000000000000000000000000000000000000000000000000000000000006001600160a01b03165afa908115611aa357600091611a86575b5015611a5b576000526002815260ff6008846000200154166005811015610f6557600114611a2d57600b54156119fb577022b634b3b4b13632903337b9103637b0b760791b60019351916119f1836117b2565b6011835282015290565b754e6f206c697175696469747920617661696c61626c6560501b6000935191611a23836117b2565b6016835282015290565b71416374697665206c6f616e2065786973747360701b6000935191611a51836117b2565b6012835282015290565b506d139bdd081c9959da5cdd195c995960921b6000935191611a7c836117b2565b600e835282015290565b611a9d9150833d851161103f5761103181836117ce565b3861199e565b85513d6000823e3d90fd5b91909260009182526005602052604082209360ff600586015416158015611b8a575b8015611b7d575b8015611b70575b8015611b63575b611b5557611b1d64496cebb800611b156002612710611b066007548a611808565b0498015493610c848589611808565b048095611831565b9262278d0091828102928184041490151715611b4157506301e13380900490600190565b634e487b7160e01b81526011600452602490fd5b509250809150918180918190565b5060048501548111611ae5565b5060038501548110611ade565b5060018501548411611ad7565b5084548410611ad0565b67ffffffffffffffff8111610f4f5760051b60200190565b805182101561187d5760209160051b010190565b600090815260039060208281526040808320928354958615611d615780871015611d5b575085935b611bf185611b94565b96611bfe845198896117ce565b858852601f19611c0d87611b94565b0185845b828110611d10575050506000198101908111835b878110611c385750505050505050505090565b81611cfc57611c50611c4a8285611893565b85611865565b9054908a1b1c85526004808852868620875191611c6c83611795565b8154835260018201548a8401526002820154898401528b820154606084015280820154608084015260ff60086005938481015460a0870152600681015460c0870152600781015460e087015201541691821015611ce95750610100820152611ce49190611cd9828d611bac565b526102b8818c611bac565b611c25565b634e487b7160e01b885260219052602487fd5b634e487b7160e01b85526011600452602485fd5b8651611d1b81611795565b868152868382015286888201528660608201528660808201528660a08201528660c08201528660e08201528661010082015282828d010152018690611c11565b93611be8565b50815195509350908401915067ffffffffffffffff821184831017611d865752815290565b634e487b7160e01b83526041600452602483fd5b611da634600b54611831565b600b556040513481527fc17cea59c2955cb181b03393209566960365771dbba9dc3d510180e7cb31208860203392a256fea2646970667358221220c8f2f2cf38e1946abc76b57a2da7adf9fa7d16e9b51aafa62cac970a13344e2064736f6c63430008140033","opcodes":"PUSH1 0xA0 CALLVALUE PUSH3 0x2AE JUMPI PUSH1 0x1F PUSH3 0x20F7 CODESIZE DUP2 SWAP1 SUB SWAP2 DUP3 ADD PUSH1 0x1F NOT AND DUP4 ADD SWAP3 SWAP2 PUSH1 0x1 PUSH1 0x1 PUSH1 0x40 SHL SUB DUP5 GT DUP4 DUP6 LT OR PUSH3 0x2B3 JUMPI DUP1 DUP4 SWAP3 PUSH1 0x40 SWAP6 DUP7 MSTORE DUP4 CODECOPY PUSH1 0x20 SWAP3 DUP4 SWAP2 DUP2 ADD SUB SLT PUSH3 0x2AE JUMPI MLOAD PUSH1 0x1 PUSH1 0x1 PUSH1 0xA0 SHL SUB DUP1 DUP3 AND SWAP3 SWAP1 SWAP2 DUP4 SWAP1 SUB PUSH3 0x2AE JUMPI PUSH1 0x1 SWAP3 PUSH1 0x0 SWAP3 DUP5 DUP5 SSTORE CALLER ISZERO PUSH3 0x296 JUMPI DUP5 SLOAD CALLER PUSH1 0x1 PUSH1 0x1 PUSH1 0xA0 SHL SUB NOT DUP3 AND DUP2 OR DUP8 SSTORE DUP8 SWAP6 SWAP5 PUSH1 0xD SWAP5 SWAP1 SWAP4 SWAP1 SWAP3 AND PUSH32 0x8BE0079C531659141344CD1FD0A4F28419497F9722A3DAAFE3B4186F6B6457E0 DUP7 DUP1 LOG3 PUSH1 0x80 MSTORE PUSH2 0x3A98 PUSH1 0x7 SSTORE PUSH2 0x2EE0 PUSH1 0x8 SSTORE PUSH3 0x24F DUP6 DUP5 PUSH3 0xCE PUSH3 0x2C9 JUMP JUMPDEST PUSH7 0x38D7EA4C68000 DUP2 MSTORE PUSH3 0x1D5 DUP6 DUP3 ADD SWAP2 PUSH3 0x156 PUSH8 0x16345785D8A0000 SWAP2 DUP3 DUP6 MSTORE DUP9 DUP13 DUP1 DUP4 ADD PUSH2 0x5DC DUP2 MSTORE PUSH1 0x60 DUP5 ADD PUSH3 0x93A80 DUP2 MSTORE PUSH1 0x80 DUP6 ADD SWAP2 PUSH3 0x278D00 SWAP10 DUP11 DUP5 MSTORE PUSH1 0xA0 DUP8 ADD SWAP5 DUP14 DUP7 MSTORE DUP13 DUP1 MSTORE PUSH1 0x5 SWAP13 DUP14 DUP1 SWAP9 MSTORE KECCAK256 SWAP7 MLOAD DUP8 SSTORE MLOAD DUP13 DUP8 ADD SSTORE MLOAD PUSH1 0x2 DUP7 ADD SSTORE MLOAD PUSH1 0x3 DUP6 ADD SSTORE MLOAD PUSH1 0x4 DUP5 ADD SSTORE MLOAD ISZERO ISZERO SWAP2 ADD SWAP1 PUSH1 0xFF DUP1 NOT DUP4 SLOAD AND SWAP2 ISZERO ISZERO AND OR SWAP1 SSTORE JUMP JUMPDEST PUSH3 0x160 PUSH3 0x2C9 JUMP JUMPDEST SWAP1 DUP2 MSTORE DUP4 DUP8 DUP11 DUP13 DUP3 DUP6 ADD PUSH8 0x6F05B59D3B20000 SWAP10 DUP11 DUP3 MSTORE DUP3 DUP8 ADD SWAP2 PUSH2 0x4B0 DUP4 MSTORE PUSH1 0x60 DUP9 ADD SWAP4 PUSH3 0x127500 DUP6 MSTORE PUSH1 0x80 DUP10 ADD SWAP6 PUSH3 0x4F1A00 DUP8 MSTORE DUP9 PUSH1 0xA0 DUP12 ADD SWAP9 DUP6 DUP11 MSTORE DUP6 DUP4 MSTORE MSTORE KECCAK256 SWAP8 MLOAD DUP9 SSTORE MLOAD SWAP1 DUP8 ADD SSTORE MLOAD PUSH1 0x2 DUP7 ADD SSTORE MLOAD PUSH1 0x3 DUP6 ADD SSTORE MLOAD PUSH1 0x4 DUP5 ADD SSTORE MLOAD ISZERO ISZERO SWAP2 ADD SWAP1 PUSH1 0xFF DUP1 NOT DUP4 SLOAD AND SWAP2 ISZERO ISZERO AND OR SWAP1 SSTORE JUMP JUMPDEST PUSH3 0x1DF PUSH3 0x2C9 JUMP JUMPDEST SWAP3 DUP4 MSTORE DUP5 DUP4 ADD SWAP1 PUSH8 0x1BC16D674EC80000 DUP3 MSTORE DUP9 DUP5 ADD SWAP1 PUSH2 0x3E8 DUP3 MSTORE PUSH1 0x60 DUP6 ADD SWAP1 DUP2 MSTORE PUSH1 0x80 DUP6 ADD SWAP2 PUSH3 0x76A700 DUP4 MSTORE PUSH1 0xA0 DUP7 ADD SWAP4 DUP13 DUP6 MSTORE PUSH1 0x2 DUP12 MSTORE DUP6 DUP10 MSTORE DUP12 DUP12 KECCAK256 SWAP7 MLOAD DUP8 SSTORE MLOAD DUP13 DUP8 ADD SSTORE MLOAD PUSH1 0x2 DUP7 ADD SSTORE MLOAD PUSH1 0x3 DUP6 ADD SSTORE MLOAD PUSH1 0x4 DUP5 ADD SSTORE MLOAD ISZERO ISZERO SWAP2 ADD SWAP1 PUSH1 0xFF DUP1 NOT DUP4 SLOAD AND SWAP2 ISZERO ISZERO AND OR SWAP1 SSTORE JUMP JUMPDEST PUSH1 0x3 PUSH1 0x6 SSTORE CALLER DUP4 MSTORE MSTORE KECCAK256 SWAP1 PUSH1 0xFF NOT DUP3 SLOAD AND OR SWAP1 SSTORE MLOAD PUSH2 0x1E0D SWAP1 DUP2 PUSH3 0x2EA DUP3 CODECOPY PUSH1 0x80 MLOAD DUP2 DUP2 DUP2 PUSH2 0x71B ADD MSTORE DUP2 DUP2 PUSH2 0xB9A ADD MSTORE DUP2 DUP2 PUSH2 0xE5A ADD MSTORE DUP2 DUP2 PUSH2 0x119C ADD MSTORE PUSH2 0x1965 ADD MSTORE RETURN JUMPDEST DUP6 MLOAD PUSH4 0x1E4FBDF7 PUSH1 0xE0 SHL DUP2 MSTORE PUSH1 0x4 DUP2 ADD DUP6 SWAP1 MSTORE PUSH1 0x24 SWAP1 REVERT JUMPDEST PUSH1 0x0 DUP1 REVERT JUMPDEST PUSH4 0x4E487B71 PUSH1 0xE0 SHL PUSH1 0x0 MSTORE PUSH1 0x41 PUSH1 0x4 MSTORE PUSH1 0x24 PUSH1 0x0 REVERT JUMPDEST PUSH1 0x40 MLOAD SWAP1 PUSH1 0xC0 DUP3 ADD PUSH1 0x1 PUSH1 0x1 PUSH1 0x40 SHL SUB DUP2 GT DUP4 DUP3 LT OR PUSH3 0x2B3 JUMPI PUSH1 0x40 MSTORE JUMP INVALID PUSH1 0x80 DUP1 PUSH1 0x40 MSTORE PUSH1 0x4 CALLDATASIZE LT ISZERO PUSH2 0x25 JUMPI JUMPDEST POP CALLDATASIZE ISZERO PUSH2 0x1B JUMPI PUSH1 0x0 DUP1 REVERT JUMPDEST PUSH2 0x23 PUSH2 0x1D9A JUMP JUMPDEST STOP JUMPDEST PUSH1 0x0 CALLDATALOAD PUSH1 0xE0 SHR SWAP1 DUP2 PUSH4 0x1C1ABDC5 EQ PUSH2 0x158A JUMPI POP DUP1 PUSH4 0x24AF5C01 EQ PUSH2 0x144A JUMPI DUP1 PUSH4 0x3F4BA83A EQ PUSH2 0x13D8 JUMPI DUP1 PUSH4 0x3F84210F EQ PUSH2 0x10B1 JUMPI DUP1 PUSH4 0x4031234C EQ PUSH2 0x1093 JUMPI DUP1 PUSH4 0x5C975ABB EQ PUSH2 0x106D JUMPI DUP1 PUSH4 0x69108A8F EQ PUSH2 0xB44 JUMPI DUP1 PUSH4 0x715018A6 EQ PUSH2 0xAE7 JUMPI DUP1 PUSH4 0x74375359 EQ PUSH2 0xAC9 JUMPI DUP1 PUSH4 0x7992EC48 EQ PUSH2 0x9E8 JUMPI DUP1 PUSH4 0x8456CB59 EQ PUSH2 0x986 JUMPI DUP1 PUSH4 0x84DA2666 EQ PUSH2 0x968 JUMPI DUP1 PUSH4 0x8DA5CB5B EQ PUSH2 0x93F JUMPI DUP1 PUSH4 0x96B55F7D EQ PUSH2 0x921 JUMPI DUP1 PUSH4 0x9BA78FD9 EQ PUSH2 0x8DB JUMPI DUP1 PUSH4 0x9C8F9F23 EQ PUSH2 0x7DF JUMPI DUP1 PUSH4 0x9D34B839 EQ PUSH2 0x7C1 JUMPI DUP1 PUSH4 0xA2027D15 EQ PUSH2 0x74A JUMPI DUP1 PUSH4 0xAB7AA6AD EQ PUSH2 0x705 JUMPI DUP1 PUSH4 0xB7D93F34 EQ PUSH2 0x6E7 JUMPI DUP1 PUSH4 0xC4A90815 EQ PUSH2 0x65A JUMPI DUP1 PUSH4 0xC5DA137E EQ PUSH2 0x614 JUMPI DUP1 PUSH4 0xC6EB9254 EQ PUSH2 0x57D JUMPI DUP1 PUSH4 0xC7959D04 EQ PUSH2 0x55F JUMPI DUP1 PUSH4 0xC84A8FC7 EQ PUSH2 0x4F7 JUMPI DUP1 PUSH4 0xE712A35D EQ PUSH2 0x4B4 JUMPI DUP1 PUSH4 0xE8078D94 EQ PUSH2 0x4A0 JUMPI DUP1 PUSH4 0xED44F544 EQ PUSH2 0x3E2 JUMPI DUP1 PUSH4 0xF2776D2E EQ PUSH2 0x399 JUMPI DUP1 PUSH4 0xF2FDE38B EQ PUSH2 0x309 JUMPI PUSH4 0xF932437A EQ PUSH2 0x187 JUMPI CODESIZE PUSH2 0xF JUMP JUMPDEST CALLVALUE PUSH2 0x304 JUMPI PUSH1 0x0 CALLDATASIZE PUSH1 0x3 NOT ADD SLT PUSH2 0x304 JUMPI PUSH1 0x6 SLOAD PUSH2 0x1A4 DUP2 PUSH2 0x1B94 JUMP JUMPDEST SWAP1 PUSH2 0x1B2 PUSH1 0x40 MLOAD SWAP3 DUP4 PUSH2 0x17CE JUMP JUMPDEST DUP1 DUP3 MSTORE PUSH1 0x1F NOT PUSH2 0x1C1 DUP3 PUSH2 0x1B94 JUMP JUMPDEST ADD PUSH1 0x0 JUMPDEST DUP2 DUP2 LT PUSH2 0x2C3 JUMPI POP POP PUSH1 0x0 JUMPDEST DUP2 DUP2 LT PUSH2 0x24A JUMPI PUSH1 0x40 DUP1 MLOAD PUSH1 0x20 DUP1 DUP3 MSTORE DUP6 MLOAD DUP2 DUP4 ADD DUP2 SWAP1 MSTORE DUP2 DUP8 ADD SWAP4 DUP4 ADD SWAP2 PUSH1 0x0 JUMPDEST DUP3 DUP2 LT PUSH2 0x200 JUMPI DUP5 DUP5 SUB DUP6 RETURN JUMPDEST DUP6 MLOAD DUP1 MLOAD DUP6 MSTORE DUP1 DUP4 ADD MLOAD DUP6 DUP5 ADD MSTORE PUSH1 0x40 DUP1 DUP3 ADD MLOAD SWAP1 DUP7 ADD MSTORE PUSH1 0x60 DUP1 DUP3 ADD MLOAD SWAP1 DUP7 ADD MSTORE PUSH1 0x80 DUP1 DUP3 ADD MLOAD SWAP1 DUP7 ADD MSTORE PUSH1 0xA0 SWAP1 DUP2 ADD MLOAD ISZERO ISZERO SWAP1 DUP6 ADD MSTORE SWAP5 DUP2 ADD SWAP5 PUSH1 0xC0 SWAP1 SWAP4 ADD SWAP3 PUSH1 0x1 ADD PUSH2 0x1F3 JUMP JUMPDEST DUP1 PUSH2 0x2BE SWAP2 PUSH1 0x0 MSTORE PUSH1 0x5 PUSH1 0xFF PUSH1 0x20 SWAP2 DUP1 DUP4 MSTORE PUSH1 0x40 PUSH1 0x0 KECCAK256 PUSH1 0x40 MLOAD SWAP4 PUSH2 0x26E DUP6 PUSH2 0x1779 JUMP JUMPDEST DUP2 SLOAD DUP6 MSTORE PUSH1 0x1 DUP3 ADD SLOAD SWAP1 DUP6 ADD MSTORE PUSH1 0x2 DUP2 ADD SLOAD PUSH1 0x40 DUP6 ADD MSTORE PUSH1 0x3 DUP2 ADD SLOAD PUSH1 0x60 DUP6 ADD MSTORE PUSH1 0x4 DUP2 ADD SLOAD PUSH1 0x80 DUP6 ADD MSTORE ADD SLOAD AND ISZERO ISZERO PUSH1 0xA0 DUP3 ADD MSTORE PUSH2 0x2AD DUP3 DUP7 PUSH2 0x1BAC JUMP JUMPDEST MSTORE PUSH2 0x2B8 DUP2 DUP6 PUSH2 0x1BAC JUMP JUMPDEST POP PUSH2 0x183E JUMP JUMPDEST PUSH2 0x1D1 JUMP JUMPDEST PUSH1 0x20 SWAP1 PUSH1 0x40 MLOAD PUSH2 0x2D2 DUP2 PUSH2 0x1779 JUMP JUMPDEST PUSH1 0x0 DUP2 MSTORE DUP3 PUSH1 0x0 DUP2 DUP4 ADD MSTORE PUSH1 0x0 PUSH1 0x40 DUP4 ADD MSTORE PUSH1 0x0 PUSH1 0x60 DUP4 ADD MSTORE PUSH1 0x0 PUSH1 0x80 DUP4 ADD MSTORE PUSH1 0x0 PUSH1 0xA0 DUP4 ADD MSTORE DUP3 DUP8 ADD ADD MSTORE ADD PUSH2 0x1C5 JUMP JUMPDEST PUSH1 0x0 DUP1 REVERT JUMPDEST CALLVALUE PUSH2 0x304 JUMPI PUSH1 0x20 CALLDATASIZE PUSH1 0x3 NOT ADD SLT PUSH2 0x304 JUMPI PUSH1 0x4 CALLDATALOAD PUSH1 0x1 PUSH1 0x1 PUSH1 0xA0 SHL SUB DUP2 DUP2 AND SWAP2 DUP3 SWAP1 SUB PUSH2 0x304 JUMPI PUSH2 0x338 PUSH2 0x174D JUMP JUMPDEST DUP2 ISZERO PUSH2 0x380 JUMPI PUSH1 0x1 SLOAD DUP3 PUSH12 0xFFFFFFFFFFFFFFFFFFFFFFFF PUSH1 0xA0 SHL DUP3 AND OR PUSH1 0x1 SSTORE AND PUSH32 0x8BE0079C531659141344CD1FD0A4F28419497F9722A3DAAFE3B4186F6B6457E0 PUSH1 0x0 DUP1 LOG3 STOP JUMPDEST PUSH1 0x40 MLOAD PUSH4 0x1E4FBDF7 PUSH1 0xE0 SHL DUP2 MSTORE PUSH1 0x0 PUSH1 0x4 DUP3 ADD MSTORE PUSH1 0x24 SWAP1 REVERT JUMPDEST CALLVALUE PUSH2 0x304 JUMPI PUSH1 0x20 CALLDATASIZE PUSH1 0x3 NOT ADD SLT PUSH2 0x304 JUMPI PUSH1 0x4 CALLDATALOAD PUSH1 0x1 PUSH1 0x1 PUSH1 0xA0 SHL SUB DUP2 AND SWAP1 DUP2 SWAP1 SUB PUSH2 0x304 JUMPI PUSH2 0x3C7 PUSH2 0x174D JUMP JUMPDEST PUSH1 0x0 SWAP1 DUP2 MSTORE PUSH1 0xD PUSH1 0x20 MSTORE PUSH1 0x40 SWAP1 KECCAK256 DUP1 SLOAD PUSH1 0xFF NOT AND PUSH1 0x1 OR SWAP1 SSTORE STOP JUMPDEST CALLVALUE PUSH2 0x304 JUMPI PUSH1 0x40 CALLDATASIZE PUSH1 0x3 NOT ADD SLT PUSH2 0x304 JUMPI PUSH2 0x401 PUSH1 0x24 CALLDATALOAD PUSH1 0x4 CALLDATALOAD PUSH2 0x1BC0 JUMP JUMPDEST PUSH1 0x40 MLOAD PUSH1 0x20 SWAP2 DUP3 DUP3 ADD DUP4 DUP4 MSTORE DUP2 MLOAD DUP1 SWAP2 MSTORE DUP4 PUSH1 0x40 DUP5 ADD SWAP3 ADD SWAP4 PUSH1 0x0 JUMPDEST DUP3 DUP2 LT PUSH2 0x42A JUMPI DUP5 DUP5 SUB DUP6 RETURN JUMPDEST SWAP1 SWAP2 SWAP3 DUP3 PUSH2 0x120 PUSH1 0x1 SWAP3 PUSH2 0x491 DUP10 MLOAD DUP1 MLOAD DUP4 MSTORE DUP5 DUP2 ADD MLOAD DUP6 DUP5 ADD MSTORE PUSH1 0x40 DUP2 ADD MLOAD PUSH1 0x40 DUP5 ADD MSTORE PUSH1 0x60 DUP1 DUP3 ADD MLOAD SWAP1 DUP5 ADD MSTORE PUSH1 0x80 DUP1 DUP3 ADD MLOAD SWAP1 DUP5 ADD MSTORE PUSH1 0xA0 DUP1 DUP3 ADD MLOAD SWAP1 DUP5 ADD MSTORE PUSH1 0xC0 DUP1 DUP3 ADD MLOAD SWAP1 DUP5 ADD MSTORE PUSH1 0xE0 DUP2 ADD MLOAD PUSH1 0xE0 DUP5 ADD MSTORE PUSH2 0x100 DUP1 SWAP2 ADD MLOAD SWAP1 DUP4 ADD SWAP1 PUSH2 0x1740 JUMP JUMPDEST ADD SWAP7 ADD SWAP2 ADD SWAP5 SWAP3 SWAP2 SWAP1 SWAP5 PUSH2 0x41D JUMP JUMPDEST PUSH1 0x0 CALLDATASIZE PUSH1 0x3 NOT ADD SLT PUSH2 0x304 JUMPI PUSH2 0x1B PUSH2 0x174D JUMP JUMPDEST CALLVALUE PUSH2 0x304 JUMPI PUSH1 0x20 CALLDATASIZE PUSH1 0x3 NOT ADD SLT PUSH2 0x304 JUMPI PUSH1 0x4 CALLDATALOAD PUSH1 0x1 PUSH1 0x1 PUSH1 0xA0 SHL SUB DUP2 AND SWAP1 DUP2 SWAP1 SUB PUSH2 0x304 JUMPI PUSH1 0x0 MSTORE PUSH1 0xD PUSH1 0x20 MSTORE PUSH1 0x20 PUSH1 0xFF PUSH1 0x40 PUSH1 0x0 KECCAK256 SLOAD AND PUSH1 0x40 MLOAD SWAP1 ISZERO ISZERO DUP2 MSTORE RETURN JUMPDEST CALLVALUE PUSH2 0x304 JUMPI PUSH1 0x20 CALLDATASIZE PUSH1 0x3 NOT ADD SLT PUSH2 0x304 JUMPI PUSH1 0x4 CALLDATALOAD PUSH1 0x0 MSTORE PUSH1 0x5 PUSH1 0x20 MSTORE PUSH1 0xC0 PUSH1 0x40 PUSH1 0x0 KECCAK256 DUP1 SLOAD SWAP1 PUSH1 0x1 DUP2 ADD SLOAD SWAP1 PUSH1 0x2 DUP2 ADD SLOAD PUSH1 0x3 DUP3 ADD SLOAD SWAP1 PUSH1 0xFF PUSH1 0x5 PUSH1 0x4 DUP6 ADD SLOAD SWAP5 ADD SLOAD AND SWAP4 PUSH1 0x40 MLOAD SWAP6 DUP7 MSTORE PUSH1 0x20 DUP7 ADD MSTORE PUSH1 0x40 DUP6 ADD MSTORE PUSH1 0x60 DUP5 ADD MSTORE PUSH1 0x80 DUP4 ADD MSTORE ISZERO ISZERO PUSH1 0xA0 DUP3 ADD MSTORE RETURN JUMPDEST CALLVALUE PUSH2 0x304 JUMPI PUSH1 0x0 CALLDATASIZE PUSH1 0x3 NOT ADD SLT PUSH2 0x304 JUMPI PUSH1 0x20 PUSH1 0x9 SLOAD PUSH1 0x40 MLOAD SWAP1 DUP2 MSTORE RETURN JUMPDEST CALLVALUE PUSH2 0x304 JUMPI PUSH1 0x20 CALLDATASIZE PUSH1 0x3 NOT ADD SLT PUSH2 0x304 JUMPI PUSH1 0x4 CALLDATALOAD PUSH1 0x0 MSTORE PUSH1 0x2 PUSH1 0x20 MSTORE PUSH2 0x100 PUSH1 0x40 PUSH1 0x0 KECCAK256 PUSH2 0x612 DUP2 SLOAD SWAP2 PUSH1 0x1 DUP2 ADD SLOAD SWAP1 PUSH1 0x2 DUP2 ADD SLOAD PUSH1 0x6 DUP3 ADD SLOAD PUSH1 0x7 DUP4 ADD SLOAD SWAP1 PUSH2 0x5C7 DUP3 DUP3 PUSH2 0x1893 JUMP JUMPDEST SWAP3 PUSH1 0xFF PUSH1 0x8 PUSH2 0x5DF PUSH1 0x4 DUP9 ADD SLOAD PUSH1 0x5 DUP10 ADD SLOAD SWAP1 PUSH2 0x1831 JUMP JUMPDEST SWAP7 ADD SLOAD AND SWAP6 PUSH1 0x40 MLOAD SWAP9 DUP10 MSTORE PUSH1 0x20 DUP10 ADD MSTORE PUSH1 0x40 DUP9 ADD MSTORE PUSH1 0x60 DUP8 ADD MSTORE PUSH1 0x80 DUP7 ADD MSTORE PUSH1 0xA0 DUP6 ADD MSTORE PUSH1 0xC0 DUP5 ADD MSTORE PUSH1 0xE0 DUP4 ADD SWAP1 PUSH2 0x1740 JUMP JUMPDEST RETURN JUMPDEST CALLVALUE PUSH2 0x304 JUMPI PUSH1 0x60 CALLDATASIZE PUSH1 0x3 NOT ADD SLT PUSH2 0x304 JUMPI PUSH1 0xA0 PUSH2 0x638 PUSH1 0x44 CALLDATALOAD PUSH1 0x24 CALLDATALOAD PUSH1 0x4 CALLDATALOAD PUSH2 0x1AAE JUMP JUMPDEST SWAP3 PUSH1 0x40 SWAP3 SWAP2 SWAP3 MLOAD SWAP5 DUP6 MSTORE PUSH1 0x20 DUP6 ADD MSTORE PUSH1 0x40 DUP5 ADD MSTORE PUSH1 0x60 DUP4 ADD MSTORE ISZERO ISZERO PUSH1 0x80 DUP3 ADD MSTORE RETURN JUMPDEST CALLVALUE PUSH2 0x304 JUMPI PUSH1 0x20 CALLDATASIZE PUSH1 0x3 NOT ADD SLT PUSH2 0x304 JUMPI PUSH1 0x4 CALLDATALOAD PUSH1 0x0 MSTORE PUSH1 0x2 PUSH1 0x20 MSTORE PUSH2 0x120 PUSH1 0x40 PUSH1 0x0 KECCAK256 PUSH2 0x612 DUP2 SLOAD SWAP2 PUSH1 0x1 DUP2 ADD SLOAD SWAP1 PUSH1 0x2 DUP2 ADD SLOAD PUSH1 0x3 DUP3 ADD SLOAD PUSH1 0x4 DUP4 ADD SLOAD PUSH1 0x5 DUP5 ADD SLOAD SWAP2 PUSH1 0x6 DUP6 ADD SLOAD SWAP4 PUSH1 0xFF PUSH1 0x8 PUSH1 0x7 DUP9 ADD SLOAD SWAP8 ADD SLOAD AND SWAP7 PUSH1 0x40 MLOAD SWAP10 DUP11 MSTORE PUSH1 0x20 DUP11 ADD MSTORE PUSH1 0x40 DUP10 ADD MSTORE PUSH1 0x60 DUP9 ADD MSTORE PUSH1 0x80 DUP8 ADD MSTORE PUSH1 0xA0 DUP7 ADD MSTORE PUSH1 0xC0 DUP6 ADD MSTORE PUSH1 0xE0 DUP5 ADD MSTORE PUSH2 0x100 DUP4 ADD SWAP1 PUSH2 0x1740 JUMP JUMPDEST CALLVALUE PUSH2 0x304 JUMPI PUSH1 0x0 CALLDATASIZE PUSH1 0x3 NOT ADD SLT PUSH2 0x304 JUMPI PUSH1 0x20 PUSH1 0xC SLOAD PUSH1 0x40 MLOAD SWAP1 DUP2 MSTORE RETURN JUMPDEST CALLVALUE PUSH2 0x304 JUMPI PUSH1 0x0 CALLDATASIZE PUSH1 0x3 NOT ADD SLT PUSH2 0x304 JUMPI PUSH1 0x40 MLOAD PUSH32 0x0 PUSH1 0x1 PUSH1 0x1 PUSH1 0xA0 SHL SUB AND DUP2 MSTORE PUSH1 0x20 SWAP1 RETURN JUMPDEST CALLVALUE PUSH2 0x304 JUMPI PUSH1 0x20 DUP1 PUSH1 0x3 NOT CALLDATASIZE ADD SLT PUSH2 0x304 JUMPI PUSH2 0x767 PUSH1 0x4 CALLDATALOAD PUSH2 0x1943 JUMP JUMPDEST SWAP1 PUSH1 0x40 MLOAD SWAP3 DUP4 SWAP2 ISZERO ISZERO DUP3 MSTORE PUSH1 0x40 DUP2 DUP4 ADD MSTORE DUP3 MLOAD SWAP1 DUP2 PUSH1 0x40 DUP5 ADD MSTORE PUSH1 0x0 SWAP4 JUMPDEST DUP3 DUP6 LT PUSH2 0x7A8 JUMPI POP POP PUSH1 0x60 SWAP3 POP PUSH1 0x0 DUP4 DUP3 DUP5 ADD ADD MSTORE PUSH1 0x1F DUP1 NOT SWAP2 ADD AND DUP2 ADD SUB ADD SWAP1 RETURN JUMPDEST DUP5 DUP2 ADD DUP3 ADD MLOAD DUP7 DUP7 ADD PUSH1 0x60 ADD MSTORE SWAP4 DUP2 ADD SWAP4 DUP6 SWAP4 POP PUSH2 0x785 JUMP JUMPDEST CALLVALUE PUSH2 0x304 JUMPI PUSH1 0x0 CALLDATASIZE PUSH1 0x3 NOT ADD SLT PUSH2 0x304 JUMPI PUSH1 0x20 PUSH1 0xA SLOAD PUSH1 0x40 MLOAD SWAP1 DUP2 MSTORE RETURN JUMPDEST CALLVALUE PUSH2 0x304 JUMPI PUSH1 0x20 CALLDATASIZE PUSH1 0x3 NOT ADD SLT PUSH2 0x304 JUMPI PUSH1 0x4 CALLDATALOAD PUSH2 0x7FB PUSH2 0x174D JUMP JUMPDEST PUSH2 0x803 PUSH2 0x1920 JUMP JUMPDEST PUSH1 0xB SLOAD DUP1 DUP3 GT PUSH2 0x89D JUMPI DUP2 PUSH2 0x817 SWAP2 PUSH2 0x1893 JUMP JUMPDEST PUSH1 0xB SSTORE PUSH1 0x0 DUP1 DUP1 DUP1 DUP5 CALLER GAS CALL PUSH2 0x82B PUSH2 0x18BF JUMP JUMPDEST POP ISZERO PUSH2 0x864 JUMPI PUSH1 0x40 MLOAD SWAP1 DUP2 MSTORE PUSH32 0xC2C3F06E49B9F15E7B4AF9055E183B0D73362E033AD82A07DEC9BF9840171719 PUSH1 0x20 CALLER SWAP3 LOG2 PUSH1 0x1 PUSH1 0x0 SSTORE STOP JUMPDEST PUSH1 0x40 MLOAD PUSH3 0x461BCD PUSH1 0xE5 SHL DUP2 MSTORE PUSH1 0x20 PUSH1 0x4 DUP3 ADD MSTORE PUSH1 0x11 PUSH1 0x24 DUP3 ADD MSTORE PUSH17 0x15DA5D1A191C985DD85B0819985A5B1959 PUSH1 0x7A SHL PUSH1 0x44 DUP3 ADD MSTORE PUSH1 0x64 SWAP1 REVERT JUMPDEST PUSH1 0x40 MLOAD PUSH3 0x461BCD PUSH1 0xE5 SHL DUP2 MSTORE PUSH1 0x20 PUSH1 0x4 DUP3 ADD MSTORE PUSH1 0x16 PUSH1 0x24 DUP3 ADD MSTORE PUSH22 0x496E73756666696369656E74206C6971756964697479 PUSH1 0x50 SHL PUSH1 0x44 DUP3 ADD MSTORE PUSH1 0x64 SWAP1 REVERT JUMPDEST CALLVALUE PUSH2 0x304 JUMPI PUSH1 0x20 CALLDATASIZE PUSH1 0x3 NOT ADD SLT PUSH2 0x304 JUMPI PUSH1 0x4 CALLDATALOAD PUSH1 0x1 PUSH1 0x1 PUSH1 0xA0 SHL SUB DUP2 AND SWAP1 DUP2 SWAP1 SUB PUSH2 0x304 JUMPI PUSH2 0x909 PUSH2 0x174D JUMP JUMPDEST PUSH1 0x0 SWAP1 DUP2 MSTORE PUSH1 0xD PUSH1 0x20 MSTORE PUSH1 0x40 SWAP1 KECCAK256 DUP1 SLOAD PUSH1 0xFF NOT AND SWAP1 SSTORE STOP JUMPDEST CALLVALUE PUSH2 0x304 JUMPI PUSH1 0x0 CALLDATASIZE PUSH1 0x3 NOT ADD SLT PUSH2 0x304 JUMPI PUSH1 0x20 PUSH1 0x6 SLOAD PUSH1 0x40 MLOAD SWAP1 DUP2 MSTORE RETURN JUMPDEST CALLVALUE PUSH2 0x304 JUMPI PUSH1 0x0 CALLDATASIZE PUSH1 0x3 NOT ADD SLT PUSH2 0x304 JUMPI PUSH1 0x1 SLOAD PUSH1 0x40 MLOAD PUSH1 0x1 PUSH1 0x1 PUSH1 0xA0 SHL SUB SWAP1 SWAP2 AND DUP2 MSTORE PUSH1 0x20 SWAP1 RETURN JUMPDEST CALLVALUE PUSH2 0x304 JUMPI PUSH1 0x0 CALLDATASIZE PUSH1 0x3 NOT ADD SLT PUSH2 0x304 JUMPI PUSH1 0x20 PUSH1 0x7 SLOAD PUSH1 0x40 MLOAD SWAP1 DUP2 MSTORE RETURN JUMPDEST CALLVALUE PUSH2 0x304 JUMPI PUSH1 0x0 CALLDATASIZE PUSH1 0x3 NOT ADD SLT PUSH2 0x304 JUMPI PUSH2 0x99F PUSH2 0x174D JUMP JUMPDEST PUSH2 0x9A7 PUSH2 0x18FF JUMP JUMPDEST PUSH1 0x1 DUP1 SLOAD PUSH1 0xFF PUSH1 0xA0 SHL NOT AND PUSH1 0x1 PUSH1 0xA0 SHL OR SWAP1 SSTORE PUSH1 0x40 MLOAD CALLER DUP2 MSTORE PUSH32 0x62E78CEA01BEE320CD4E420270B5EA74000D11B0C9F74754EBDBFC544B05A258 SWAP1 PUSH1 0x20 SWAP1 LOG1 STOP JUMPDEST CALLVALUE PUSH2 0x304 JUMPI PUSH1 0x20 CALLDATASIZE PUSH1 0x3 NOT ADD SLT PUSH2 0x304 JUMPI PUSH1 0x4 CALLDATALOAD PUSH2 0xA04 PUSH2 0x174D JUMP JUMPDEST PUSH2 0x2710 DUP2 LT PUSH2 0xA8C JUMPI PUSH2 0x7530 DUP2 GT PUSH2 0xA4F JUMPI PUSH1 0x40 PUSH32 0xEA851FC89EBCCDA62380B76FC8E8317F0BCD4D75EA908CF501BD2EBC6AC1C8F2 SWAP2 PUSH1 0x7 SLOAD SWAP1 DUP1 PUSH1 0x7 SSTORE DUP3 MLOAD SWAP2 DUP3 MSTORE PUSH1 0x20 DUP3 ADD MSTORE LOG1 STOP JUMPDEST PUSH1 0x40 MLOAD PUSH3 0x461BCD PUSH1 0xE5 SHL DUP2 MSTORE PUSH1 0x20 PUSH1 0x4 DUP3 ADD MSTORE PUSH1 0x15 PUSH1 0x24 DUP3 ADD MSTORE PUSH21 0x526174696F206D757374206265203C3D2033303025 PUSH1 0x58 SHL PUSH1 0x44 DUP3 ADD MSTORE PUSH1 0x64 SWAP1 REVERT JUMPDEST PUSH1 0x40 MLOAD PUSH3 0x461BCD PUSH1 0xE5 SHL DUP2 MSTORE PUSH1 0x20 PUSH1 0x4 DUP3 ADD MSTORE PUSH1 0x15 PUSH1 0x24 DUP3 ADD MSTORE PUSH21 0x526174696F206D757374206265203E3D2031303025 PUSH1 0x58 SHL PUSH1 0x44 DUP3 ADD MSTORE PUSH1 0x64 SWAP1 REVERT JUMPDEST CALLVALUE PUSH2 0x304 JUMPI PUSH1 0x0 CALLDATASIZE PUSH1 0x3 NOT ADD SLT PUSH2 0x304 JUMPI PUSH1 0x20 PUSH1 0xB SLOAD PUSH1 0x40 MLOAD SWAP1 DUP2 MSTORE RETURN JUMPDEST CALLVALUE PUSH2 0x304 JUMPI PUSH1 0x0 CALLDATASIZE PUSH1 0x3 NOT ADD SLT PUSH2 0x304 JUMPI PUSH2 0xB00 PUSH2 0x174D JUMP JUMPDEST PUSH1 0x1 DUP1 SLOAD PUSH1 0x1 PUSH1 0x1 PUSH1 0xA0 SHL SUB NOT DUP2 AND SWAP1 SWAP2 SSTORE PUSH1 0x0 SWAP1 PUSH1 0x1 PUSH1 0x1 PUSH1 0xA0 SHL SUB AND PUSH32 0x8BE0079C531659141344CD1FD0A4F28419497F9722A3DAAFE3B4186F6B6457E0 DUP3 DUP1 LOG3 STOP JUMPDEST PUSH1 0x80 CALLDATASIZE PUSH1 0x3 NOT ADD SLT PUSH2 0x304 JUMPI CALLER PUSH1 0x0 MSTORE PUSH1 0xD PUSH1 0x20 MSTORE PUSH1 0xFF PUSH1 0x40 PUSH1 0x0 KECCAK256 SLOAD AND ISZERO DUP1 PUSH2 0x1058 JUMPI JUMPDEST PUSH2 0x1046 JUMPI PUSH2 0xB75 PUSH2 0x1920 JUMP JUMPDEST PUSH2 0xB7D PUSH2 0x18FF JUMP JUMPDEST PUSH1 0x40 MLOAD PUSH4 0x17A3C103 PUSH1 0xE2 SHL DUP2 MSTORE PUSH1 0x4 DUP1 CALLDATALOAD SWAP1 DUP3 ADD MSTORE PUSH1 0x20 DUP2 PUSH1 0x24 DUP2 PUSH32 0x0 PUSH1 0x1 PUSH1 0x1 PUSH1 0xA0 SHL SUB AND GAS STATICCALL SWAP1 DUP2 ISZERO PUSH2 0xF43 JUMPI PUSH1 0x0 SWAP2 PUSH2 0x1017 JUMPI JUMPDEST POP ISZERO PUSH2 0x1005 JUMPI PUSH1 0x4 CALLDATALOAD PUSH1 0x0 MSTORE PUSH1 0x2 PUSH1 0x20 MSTORE PUSH1 0xFF PUSH1 0x8 PUSH1 0x40 PUSH1 0x0 KECCAK256 ADD SLOAD AND PUSH1 0x5 DUP2 LT ISZERO PUSH2 0xF65 JUMPI PUSH1 0x1 EQ PUSH2 0xFF3 JUMPI PUSH1 0x64 CALLDATALOAD PUSH1 0x0 MSTORE PUSH1 0x5 PUSH1 0x20 MSTORE PUSH1 0x40 PUSH1 0x0 KECCAK256 PUSH1 0xFF PUSH1 0x5 DUP3 ADD SLOAD AND ISZERO PUSH2 0xFE1 JUMPI DUP1 SLOAD PUSH1 0x24 CALLDATALOAD LT DUP1 ISZERO PUSH2 0xFD2 JUMPI JUMPDEST PUSH2 0xFC0 JUMPI PUSH1 0x3 DUP2 ADD SLOAD PUSH1 0x44 CALLDATALOAD LT DUP1 ISZERO PUSH2 0xFB1 JUMPI JUMPDEST PUSH2 0xF9F JUMPI PUSH1 0x24 CALLDATALOAD PUSH1 0xB SLOAD LT PUSH2 0xF8D JUMPI PUSH2 0x2710 PUSH2 0xC5E PUSH1 0x7 SLOAD PUSH1 0x24 CALLDATALOAD PUSH2 0x1808 JUMP JUMPDEST DIV CALLVALUE LT PUSH2 0xF7B JUMPI PUSH2 0xC92 PUSH5 0x496CEBB800 PUSH2 0xC89 PUSH1 0x44 CALLDATALOAD PUSH2 0xC84 PUSH1 0x2 DUP7 ADD SLOAD PUSH1 0x24 CALLDATALOAD PUSH2 0x1808 JUMP JUMPDEST PUSH2 0x1808 JUMP JUMPDEST DIV PUSH1 0x24 CALLDATALOAD PUSH2 0x1831 JUMP JUMPDEST PUSH1 0x2 PUSH1 0x9 SLOAD SWAP3 PUSH2 0xCA1 DUP5 PUSH2 0x183E JUMP JUMPDEST PUSH1 0x9 SSTORE ADD SLOAD PUSH1 0x40 MLOAD SWAP1 PUSH2 0xCB3 DUP3 PUSH2 0x1795 JUMP JUMPDEST DUP4 DUP3 MSTORE PUSH1 0x24 CALLDATALOAD PUSH1 0x20 DUP4 ADD MSTORE CALLVALUE PUSH1 0x40 DUP4 ADD MSTORE PUSH1 0x60 DUP3 ADD MSTORE TIMESTAMP PUSH1 0x80 DUP3 ADD MSTORE PUSH1 0x44 CALLDATALOAD PUSH1 0xA0 DUP3 ADD MSTORE DUP2 PUSH1 0xC0 DUP3 ADD MSTORE PUSH1 0x0 PUSH1 0xE0 DUP3 ADD MSTORE PUSH1 0x1 PUSH2 0x100 DUP3 ADD MSTORE PUSH1 0x4 CALLDATALOAD PUSH1 0x0 MSTORE PUSH1 0x2 PUSH1 0x20 MSTORE PUSH1 0x40 PUSH1 0x0 KECCAK256 DUP2 MLOAD DUP2 SSTORE PUSH1 0x20 DUP3 ADD MLOAD PUSH1 0x1 DUP3 ADD SSTORE PUSH1 0x40 DUP3 ADD MLOAD PUSH1 0x2 DUP3 ADD SSTORE PUSH1 0x60 DUP3 ADD MLOAD PUSH1 0x3 DUP3 ADD SSTORE PUSH1 0x80 DUP3 ADD MLOAD PUSH1 0x4 DUP3 ADD SSTORE PUSH1 0xA0 DUP3 ADD MLOAD PUSH1 0x5 DUP3 ADD SSTORE PUSH1 0xC0 DUP3 ADD MLOAD PUSH1 0x6 DUP3 ADD SSTORE PUSH1 0xE0 DUP3 ADD MLOAD PUSH1 0x7 DUP3 ADD SSTORE PUSH2 0x100 DUP3 ADD MLOAD PUSH1 0x5 DUP2 LT ISZERO PUSH2 0xF65 JUMPI PUSH1 0x8 PUSH2 0xD61 SWAP3 ADD PUSH2 0x184D JUMP JUMPDEST DUP3 PUSH1 0x0 MSTORE PUSH1 0x4 PUSH1 0x20 MSTORE PUSH2 0x100 PUSH1 0x40 PUSH1 0x0 KECCAK256 SWAP2 DUP1 MLOAD DUP4 SSTORE PUSH1 0x20 DUP2 ADD MLOAD PUSH1 0x1 DUP5 ADD SSTORE PUSH1 0x40 DUP2 ADD MLOAD PUSH1 0x2 DUP5 ADD SSTORE PUSH1 0x60 DUP2 ADD MLOAD PUSH1 0x3 DUP5 ADD SSTORE PUSH1 0x80 DUP2 ADD MLOAD PUSH1 0x4 DUP5 ADD SSTORE PUSH1 0xA0 DUP2 ADD MLOAD PUSH1 0x5 DUP5 ADD SSTORE PUSH1 0xC0 DUP2 ADD MLOAD PUSH1 0x6 DUP5 ADD SSTORE PUSH1 0xE0 DUP2 ADD MLOAD PUSH1 0x7 DUP5 ADD SSTORE ADD MLOAD PUSH1 0x5 DUP2 LT ISZERO PUSH2 0xF65 JUMPI PUSH1 0x8 PUSH2 0xDD4 SWAP3 ADD PUSH2 0x184D JUMP JUMPDEST PUSH1 0x4 CALLDATALOAD PUSH1 0x0 MSTORE PUSH1 0x3 PUSH1 0x20 MSTORE PUSH1 0x40 PUSH1 0x0 KECCAK256 DUP1 SLOAD PUSH9 0x10000000000000000 DUP2 LT ISZERO PUSH2 0xF4F JUMPI PUSH2 0xE06 SWAP2 PUSH1 0x1 DUP3 ADD DUP2 SSTORE PUSH2 0x1865 JUMP JUMPDEST DUP2 SLOAD SWAP1 PUSH1 0x3 SHL SWAP1 DUP5 DUP3 SHL SWAP2 PUSH1 0x0 NOT SWAP1 SHL NOT AND OR SWAP1 SSTORE PUSH2 0xE29 PUSH1 0x24 CALLDATALOAD PUSH1 0xB SLOAD PUSH2 0x1893 JUMP JUMPDEST PUSH1 0xB SSTORE PUSH2 0xE3A PUSH1 0x24 CALLDATALOAD PUSH1 0xA SLOAD PUSH2 0x1831 JUMP JUMPDEST PUSH1 0xA SSTORE PUSH1 0x40 MLOAD PUSH4 0x3C4E9C95 PUSH1 0xE1 SHL DUP2 MSTORE PUSH1 0x4 DUP1 CALLDATALOAD SWAP1 DUP3 ADD MSTORE PUSH1 0x20 DUP2 PUSH1 0x24 DUP2 PUSH32 0x0 PUSH1 0x1 PUSH1 0x1 PUSH1 0xA0 SHL SUB AND GAS STATICCALL SWAP1 DUP2 ISZERO PUSH2 0xF43 JUMPI PUSH1 0x0 DUP1 DUP1 SWAP4 DUP2 SWAP4 DUP3 SWAP2 PUSH2 0xF14 JUMPI JUMPDEST POP PUSH1 0x24 CALLDATALOAD SWAP1 GAS CALL PUSH2 0xEA8 PUSH2 0x18BF JUMP JUMPDEST POP ISZERO PUSH2 0xF02 JUMPI PUSH2 0xEBA PUSH1 0x44 CALLDATALOAD TIMESTAMP PUSH2 0x1831 JUMP JUMPDEST PUSH1 0x40 MLOAD SWAP2 PUSH1 0x24 CALLDATALOAD DUP4 MSTORE CALLVALUE PUSH1 0x20 DUP5 ADD MSTORE PUSH1 0x40 DUP4 ADD MSTORE PUSH1 0x60 DUP3 ADD MSTORE PUSH32 0xBA104E504E28875C033F91D6CA168027E60424BCFBE3E9BA78F890751C883EFC PUSH1 0x80 PUSH1 0x4 CALLDATALOAD SWAP3 LOG3 PUSH1 0x1 PUSH1 0x0 SSTORE STOP JUMPDEST PUSH1 0x40 MLOAD PUSH4 0x12171D83 PUSH1 0xE3 SHL DUP2 MSTORE PUSH1 0x4 SWAP1 REVERT JUMPDEST PUSH2 0xF36 SWAP2 POP PUSH1 0x20 RETURNDATASIZE PUSH1 0x20 GT PUSH2 0xF3C JUMPI JUMPDEST PUSH2 0xF2E DUP2 DUP4 PUSH2 0x17CE JUMP JUMPDEST DUP2 ADD SWAP1 PUSH2 0x18A0 JUMP JUMPDEST DUP8 PUSH2 0xE99 JUMP JUMPDEST POP RETURNDATASIZE PUSH2 0xF24 JUMP JUMPDEST PUSH1 0x40 MLOAD RETURNDATASIZE PUSH1 0x0 DUP3 RETURNDATACOPY RETURNDATASIZE SWAP1 REVERT JUMPDEST PUSH4 0x4E487B71 PUSH1 0xE0 SHL PUSH1 0x0 MSTORE PUSH1 0x41 PUSH1 0x4 MSTORE PUSH1 0x24 PUSH1 0x0 REVERT JUMPDEST PUSH4 0x4E487B71 PUSH1 0xE0 SHL PUSH1 0x0 MSTORE PUSH1 0x21 PUSH1 0x4 MSTORE PUSH1 0x24 PUSH1 0x0 REVERT JUMPDEST PUSH1 0x40 MLOAD PUSH4 0x3A23D825 PUSH1 0xE0 SHL DUP2 MSTORE PUSH1 0x4 SWAP1 REVERT JUMPDEST PUSH1 0x40 MLOAD PUSH4 0xBB55FD27 PUSH1 0xE0 SHL DUP2 MSTORE PUSH1 0x4 SWAP1 REVERT JUMPDEST PUSH1 0x40 MLOAD PUSH4 0x76166401 PUSH1 0xE0 SHL DUP2 MSTORE PUSH1 0x4 SWAP1 REVERT JUMPDEST POP PUSH1 0x4 DUP2 ADD SLOAD PUSH1 0x44 CALLDATALOAD GT PUSH2 0xC3E JUMP JUMPDEST PUSH1 0x40 MLOAD PUSH4 0x162908E3 PUSH1 0xE1 SHL DUP2 MSTORE PUSH1 0x4 SWAP1 REVERT JUMPDEST POP PUSH1 0x1 DUP2 ADD SLOAD PUSH1 0x24 CALLDATALOAD GT PUSH2 0xC2A JUMP JUMPDEST PUSH1 0x40 MLOAD PUSH4 0xE1423617 PUSH1 0xE0 SHL DUP2 MSTORE PUSH1 0x4 SWAP1 REVERT JUMPDEST PUSH1 0x40 MLOAD PUSH4 0x2179F9DB PUSH1 0xE2 SHL DUP2 MSTORE PUSH1 0x4 SWAP1 REVERT JUMPDEST PUSH1 0x40 MLOAD PUSH4 0xABA47339 PUSH1 0xE0 SHL DUP2 MSTORE PUSH1 0x4 SWAP1 REVERT JUMPDEST PUSH2 0x1039 SWAP2 POP PUSH1 0x20 RETURNDATASIZE PUSH1 0x20 GT PUSH2 0x103F JUMPI JUMPDEST PUSH2 0x1031 DUP2 DUP4 PUSH2 0x17CE JUMP JUMPDEST DUP2 ADD SWAP1 PUSH2 0x17F0 JUMP JUMPDEST DUP2 PUSH2 0xBD3 JUMP JUMPDEST POP RETURNDATASIZE PUSH2 0x1027 JUMP JUMPDEST PUSH1 0x40 MLOAD PUSH4 0xEA8E4EB5 PUSH1 0xE0 SHL DUP2 MSTORE PUSH1 0x4 SWAP1 REVERT JUMPDEST POP PUSH1 0x1 SLOAD PUSH1 0x1 PUSH1 0x1 PUSH1 0xA0 SHL SUB AND CALLER EQ ISZERO PUSH2 0xB69 JUMP JUMPDEST CALLVALUE PUSH2 0x304 JUMPI PUSH1 0x0 CALLDATASIZE PUSH1 0x3 NOT ADD SLT PUSH2 0x304 JUMPI PUSH1 0x20 PUSH1 0xFF PUSH1 0x1 SLOAD PUSH1 0xA0 SHR AND PUSH1 0x40 MLOAD SWAP1 ISZERO ISZERO DUP2 MSTORE RETURN JUMPDEST CALLVALUE PUSH2 0x304 JUMPI PUSH1 0x0 CALLDATASIZE PUSH1 0x3 NOT ADD SLT PUSH2 0x304 JUMPI PUSH1 0x20 PUSH1 0x8 SLOAD PUSH1 0x40 MLOAD SWAP1 DUP2 MSTORE RETURN JUMPDEST PUSH1 0x20 CALLDATASIZE PUSH1 0x3 NOT ADD SLT PUSH2 0x304 JUMPI PUSH1 0x4 CALLDATALOAD CALLER PUSH1 0x0 MSTORE PUSH1 0xD PUSH1 0x20 MSTORE PUSH1 0xFF PUSH1 0x40 PUSH1 0x0 KECCAK256 SLOAD AND ISZERO DUP1 PUSH2 0x13C3 JUMPI JUMPDEST PUSH2 0x1046 JUMPI PUSH2 0x10E5 PUSH2 0x1920 JUMP JUMPDEST DUP1 PUSH1 0x0 MSTORE PUSH1 0x2 PUSH1 0x20 MSTORE PUSH1 0x40 PUSH1 0x0 KECCAK256 PUSH1 0x8 DUP2 ADD SWAP2 PUSH1 0xFF DUP4 SLOAD AND SWAP3 PUSH1 0x5 DUP5 LT ISZERO PUSH2 0xF65 JUMPI PUSH1 0x1 DUP1 SWAP5 SUB PUSH2 0x13B1 JUMPI PUSH1 0x6 DUP4 ADD SWAP3 DUP4 SLOAD PUSH1 0x7 DUP3 ADD SWAP2 PUSH2 0x1128 DUP4 SLOAD DUP1 SWAP4 PUSH2 0x1893 JUMP JUMPDEST SWAP2 CALLVALUE DUP4 GT PUSH2 0x12D8 JUMPI POP DUP6 SLOAD SWAP4 DUP5 DUP5 SSTORE PUSH1 0x2 PUSH1 0xFF NOT DUP3 SLOAD AND OR DUP2 SSTORE PUSH2 0x115C PUSH2 0x1154 DUP10 DUP5 ADD SWAP7 DUP8 SLOAD SWAP1 PUSH2 0x1893 JUMP JUMPDEST PUSH1 0xC SLOAD PUSH2 0x1831 JUMP JUMPDEST PUSH1 0xC SSTORE PUSH2 0x116C DUP8 SLOAD PUSH1 0xB SLOAD PUSH2 0x1831 JUMP JUMPDEST PUSH1 0xB SSTORE PUSH2 0x117C DUP6 SLOAD PUSH1 0xA SLOAD PUSH2 0x1893 JUMP JUMPDEST PUSH1 0xA SSTORE PUSH1 0x40 MLOAD PUSH4 0x3C4E9C95 PUSH1 0xE1 SHL DUP2 MSTORE PUSH1 0x4 DUP2 ADD DUP8 SWAP1 MSTORE SWAP7 PUSH1 0x20 DUP9 PUSH1 0x24 DUP2 PUSH32 0x0 PUSH1 0x1 PUSH1 0x1 PUSH1 0xA0 SHL SUB AND GAS STATICCALL SWAP8 DUP9 ISZERO PUSH2 0xF43 JUMPI PUSH1 0x0 SWAP9 PUSH2 0x12B7 JUMPI JUMPDEST POP PUSH1 0x0 DUP1 DUP1 DUP1 PUSH1 0x2 DUP8 ADD SWAP12 PUSH2 0x11F5 DUP14 SLOAD PUSH2 0x11EF DUP12 CALLVALUE PUSH2 0x1893 JUMP JUMPDEST SWAP1 PUSH2 0x1831 JUMP JUMPDEST SWAP1 GAS CALL PUSH2 0x1200 PUSH2 0x18BF JUMP JUMPDEST POP ISZERO PUSH2 0xF02 JUMPI PUSH32 0xA2F5983D6D2BAA62AB069116F13E5D0223BF605B22E3552A62AD850D38BFAB8A SWAP6 PUSH1 0x40 SWAP6 DUP11 SWAP4 DUP6 SLOAD SWAP2 DUP3 PUSH1 0x0 MSTORE PUSH1 0x4 PUSH1 0x20 MSTORE DUP9 PUSH1 0x0 KECCAK256 SWAP5 DUP8 DUP7 SUB PUSH2 0x1260 JUMPI JUMPDEST POP POP POP POP POP POP POP SLOAD SWAP5 SLOAD DUP3 MLOAD SWAP2 DUP3 MSTORE PUSH1 0x20 DUP3 ADD MSTORE LOG3 PUSH1 0x0 SSTORE STOP JUMPDEST PUSH2 0x12AB SWAP7 PUSH1 0x8 SWAP6 PUSH1 0xFF SWAP6 DUP9 SSTORE SLOAD SWAP1 DUP8 ADD SSTORE DUP13 SLOAD PUSH1 0x2 DUP8 ADD SSTORE PUSH1 0x3 DUP9 ADD SLOAD PUSH1 0x3 DUP8 ADD SSTORE PUSH1 0x4 DUP9 ADD SLOAD PUSH1 0x4 DUP8 ADD SSTORE PUSH1 0x5 DUP9 ADD SLOAD PUSH1 0x5 DUP8 ADD SSTORE SLOAD PUSH1 0x6 DUP7 ADD SSTORE SLOAD PUSH1 0x7 DUP6 ADD SSTORE SLOAD AND SWAP2 ADD PUSH2 0x184D JUMP JUMPDEST DUP7 DUP9 DUP1 DUP1 DUP1 DUP1 DUP1 PUSH2 0x1246 JUMP JUMPDEST PUSH2 0x12D1 SWAP2 SWAP9 POP PUSH1 0x20 RETURNDATASIZE PUSH1 0x20 GT PUSH2 0xF3C JUMPI PUSH2 0xF2E DUP2 DUP4 PUSH2 0x17CE JUMP JUMPDEST SWAP7 DUP10 PUSH2 0x11D5 JUMP JUMPDEST PUSH2 0x1346 SWAP3 POP SWAP1 PUSH32 0x1FB86B9AC4D6C4C287A9026F9C22DA470207F7A7723A814AFF83432CE6947B16 SWAP5 PUSH2 0x130E PUSH1 0x40 SWAP6 SWAP4 CALLVALUE SWAP1 PUSH2 0x1831 JUMP JUMPDEST DUP4 SSTORE PUSH2 0x131C CALLVALUE PUSH1 0xB SLOAD PUSH2 0x1831 JUMP JUMPDEST PUSH1 0xB SSTORE DUP2 SLOAD SWAP1 DUP2 PUSH1 0x0 MSTORE PUSH1 0x4 PUSH1 0x20 MSTORE DUP6 PUSH1 0x0 KECCAK256 SWAP1 DUP4 DUP3 SUB PUSH2 0x1357 JUMPI JUMPDEST POP POP POP SLOAD SWAP6 SLOAD SWAP1 SLOAD SWAP1 PUSH2 0x1893 JUMP JUMPDEST DUP2 MLOAD SWAP1 CALLVALUE DUP3 MSTORE PUSH1 0x20 DUP3 ADD MSTORE LOG3 PUSH1 0x0 SSTORE STOP JUMPDEST PUSH1 0xFF PUSH1 0x8 SWAP2 PUSH2 0x13A9 SWAP5 DUP5 SSTORE DUP13 DUP7 ADD SLOAD DUP14 DUP6 ADD SSTORE PUSH1 0x2 DUP7 ADD SLOAD PUSH1 0x2 DUP6 ADD SSTORE PUSH1 0x3 DUP7 ADD SLOAD PUSH1 0x3 DUP6 ADD SSTORE PUSH1 0x4 DUP7 ADD SLOAD PUSH1 0x4 DUP6 ADD SSTORE PUSH1 0x5 DUP7 ADD SLOAD PUSH1 0x5 DUP6 ADD SSTORE DUP12 SLOAD PUSH1 0x6 DUP6 ADD SSTORE DUP7 SLOAD PUSH1 0x7 DUP6 ADD SSTORE SLOAD AND SWAP2 ADD PUSH2 0x184D JUMP JUMPDEST DUP9 DUP1 DUP1 PUSH2 0x1338 JUMP JUMPDEST PUSH1 0x40 MLOAD PUSH4 0x1C8BC77 PUSH1 0xE2 SHL DUP2 MSTORE PUSH1 0x4 SWAP1 REVERT JUMPDEST POP PUSH1 0x1 SLOAD PUSH1 0x1 PUSH1 0x1 PUSH1 0xA0 SHL SUB AND CALLER EQ ISZERO PUSH2 0x10D9 JUMP JUMPDEST CALLVALUE PUSH2 0x304 JUMPI PUSH1 0x0 CALLDATASIZE PUSH1 0x3 NOT ADD SLT PUSH2 0x304 JUMPI PUSH2 0x13F1 PUSH2 0x174D JUMP JUMPDEST PUSH1 0x1 SLOAD PUSH1 0xFF DUP2 PUSH1 0xA0 SHR AND ISZERO PUSH2 0x1438 JUMPI PUSH1 0xFF PUSH1 0xA0 SHL NOT AND PUSH1 0x1 SSTORE PUSH1 0x40 MLOAD CALLER DUP2 MSTORE PUSH32 0x5DB9EE0A495BF2E6FF9C91A7834C1BA4FDD244A5E8AA4E537BD38AEAE4B073AA SWAP1 PUSH1 0x20 SWAP1 LOG1 STOP JUMPDEST PUSH1 0x40 MLOAD PUSH4 0x8DFC202B PUSH1 0xE0 SHL DUP2 MSTORE PUSH1 0x4 SWAP1 REVERT JUMPDEST CALLVALUE PUSH2 0x304 JUMPI PUSH1 0xE0 CALLDATASIZE PUSH1 0x3 NOT ADD SLT PUSH2 0x304 JUMPI PUSH1 0x4 CALLDATALOAD PUSH1 0x24 CALLDATALOAD PUSH1 0x44 CALLDATALOAD PUSH1 0xC4 CALLDATALOAD SWAP2 DUP3 ISZERO ISZERO DUP1 SWAP4 SUB PUSH2 0x304 JUMPI PUSH2 0x147A PUSH2 0x174D JUMP JUMPDEST PUSH1 0x6 SLOAD SWAP2 DUP3 DUP6 LT DUP1 ISZERO PUSH2 0x1581 JUMPI JUMPDEST ISZERO PUSH2 0x154D JUMPI PUSH32 0x2702951EC468D8FB7C1501E01AF87B4BD50CDA65A20463FC38EE59B954A777B0 SWAP4 DUP4 PUSH1 0x40 SWAP5 DUP8 EQ PUSH2 0x153B JUMPI JUMPDEST POP PUSH1 0x5 DUP5 MLOAD PUSH2 0x14C8 DUP2 PUSH2 0x1779 JUMP JUMPDEST DUP5 DUP2 MSTORE PUSH1 0x20 DUP2 ADD DUP5 DUP2 MSTORE DUP7 DUP3 ADD PUSH1 0x64 CALLDATALOAD DUP2 MSTORE PUSH1 0x60 DUP4 ADD SWAP1 PUSH1 0x84 CALLDATALOAD DUP3 MSTORE PUSH1 0x80 DUP5 ADD SWAP3 PUSH1 0xA4 CALLDATALOAD DUP5 MSTORE PUSH1 0xA0 DUP6 ADD SWAP7 DUP8 MSTORE DUP12 PUSH1 0x0 MSTORE DUP6 PUSH1 0x20 MSTORE DUP10 PUSH1 0x0 KECCAK256 SWAP5 MLOAD DUP6 SSTORE MLOAD PUSH1 0x1 DUP6 ADD SSTORE MLOAD PUSH1 0x2 DUP5 ADD SSTORE MLOAD PUSH1 0x3 DUP4 ADD SSTORE MLOAD PUSH1 0x4 DUP3 ADD SSTORE ADD SWAP1 MLOAD ISZERO ISZERO PUSH1 0xFF DUP1 NOT DUP4 SLOAD AND SWAP2 AND OR SWAP1 SSTORE DUP3 MLOAD SWAP2 DUP3 MSTORE PUSH1 0x20 DUP3 ADD MSTORE LOG2 STOP JUMPDEST PUSH2 0x1544 SWAP1 PUSH2 0x183E JUMP JUMPDEST PUSH1 0x6 SSTORE DUP7 PUSH2 0x14BA JUMP JUMPDEST PUSH1 0x40 MLOAD PUSH3 0x461BCD PUSH1 0xE5 SHL DUP2 MSTORE PUSH1 0x20 PUSH1 0x4 DUP3 ADD MSTORE PUSH1 0xC PUSH1 0x24 DUP3 ADD MSTORE PUSH12 0x24B73B30B634B2103A34B2B9 PUSH1 0xA1 SHL PUSH1 0x44 DUP3 ADD MSTORE PUSH1 0x64 SWAP1 REVERT JUMPDEST POP DUP3 DUP6 EQ PUSH2 0x1488 JUMP JUMPDEST CALLVALUE PUSH2 0x304 JUMPI PUSH1 0x20 CALLDATASIZE PUSH1 0x3 NOT ADD SLT PUSH2 0x304 JUMPI PUSH1 0x4 CALLDATALOAD SWAP1 CALLER PUSH1 0x0 MSTORE PUSH1 0xD PUSH1 0x20 MSTORE PUSH1 0xFF PUSH1 0x40 PUSH1 0x0 KECCAK256 SLOAD AND ISZERO DUP1 PUSH2 0x172B JUMPI JUMPDEST PUSH2 0x171C JUMPI POP PUSH2 0x15C5 PUSH2 0x1920 JUMP JUMPDEST DUP1 PUSH1 0x0 MSTORE PUSH1 0x2 PUSH1 0x20 MSTORE PUSH1 0x40 PUSH1 0x0 KECCAK256 SWAP1 PUSH1 0x8 DUP3 ADD SWAP2 DUP3 SLOAD PUSH1 0xFF DUP2 AND PUSH1 0x5 DUP2 LT ISZERO PUSH2 0xF65 JUMPI PUSH1 0x1 SUB PUSH2 0x13B1 JUMPI PUSH1 0x4 DUP3 ADD SWAP2 DUP3 SLOAD SWAP5 PUSH2 0x1607 PUSH1 0x5 DUP4 ADD SWAP7 DUP8 SLOAD SWAP1 PUSH2 0x1831 JUMP JUMPDEST TIMESTAMP GT ISZERO PUSH2 0x170A JUMPI PUSH32 0xC220BEC3F0DF7D7192DA38DFBA2CDDEFF069ED769B0A710445D754DBEE944695 SWAP4 PUSH1 0x3 PUSH1 0x20 SWAP5 PUSH1 0xFF NOT AND OR DUP3 SSTORE PUSH1 0x2 DUP4 ADD SWAP2 DUP3 SLOAD SWAP8 PUSH1 0x6 DUP6 ADD SWAP2 DUP3 SLOAD PUSH2 0x165B PUSH1 0x7 DUP9 ADD SWAP2 DUP3 SLOAD SWAP1 PUSH2 0x1893 JUMP JUMPDEST POP PUSH2 0x1668 DUP12 PUSH1 0xB SLOAD PUSH2 0x1831 JUMP JUMPDEST PUSH1 0xB SSTORE PUSH1 0x1 DUP8 ADD SWAP4 PUSH2 0x1688 PUSH2 0x1680 DUP7 SLOAD DUP5 SLOAD SWAP1 PUSH2 0x1893 JUMP JUMPDEST PUSH1 0xA SLOAD PUSH2 0x1893 JUMP JUMPDEST PUSH1 0xA SSTORE DUP8 SLOAD SWAP4 DUP5 PUSH1 0x0 MSTORE PUSH1 0x4 DUP11 MSTORE PUSH1 0x40 PUSH1 0x0 KECCAK256 SWAP7 DUP10 DUP9 SUB PUSH2 0x16B9 JUMPI JUMPDEST DUP14 DUP14 DUP14 DUP14 DUP14 SLOAD SWAP4 PUSH1 0x40 MLOAD SWAP1 DUP2 MSTORE LOG3 PUSH1 0x1 PUSH1 0x0 SSTORE STOP JUMPDEST PUSH2 0x16FC SWAP9 PUSH1 0x8 SWAP8 PUSH1 0xFF SWAP8 DUP11 SSTORE SLOAD PUSH1 0x1 DUP11 ADD SSTORE SLOAD PUSH1 0x2 DUP10 ADD SSTORE PUSH1 0x3 DUP11 ADD SLOAD PUSH1 0x3 DUP10 ADD SSTORE SLOAD PUSH1 0x4 DUP9 ADD SSTORE SLOAD PUSH1 0x5 DUP8 ADD SSTORE SLOAD PUSH1 0x6 DUP7 ADD SSTORE SLOAD PUSH1 0x7 DUP6 ADD SSTORE SLOAD AND SWAP2 ADD PUSH2 0x184D JUMP JUMPDEST DUP6 DUP1 DUP1 DUP1 DUP1 DUP1 DUP1 DUP1 DUP1 PUSH2 0x16A4 JUMP JUMPDEST PUSH1 0x40 MLOAD PUSH4 0x2539349B PUSH1 0xE0 SHL DUP2 MSTORE PUSH1 0x4 SWAP1 REVERT JUMPDEST PUSH4 0xEA8E4EB5 PUSH1 0xE0 SHL DUP2 MSTORE PUSH1 0x4 SWAP1 REVERT JUMPDEST POP PUSH1 0x1 SLOAD PUSH1 0x1 PUSH1 0x1 PUSH1 0xA0 SHL SUB AND CALLER EQ ISZERO PUSH2 0x15B8 JUMP JUMPDEST SWAP1 PUSH1 0x5 DUP3 LT ISZERO PUSH2 0xF65 JUMPI MSTORE JUMP JUMPDEST PUSH1 0x1 SLOAD PUSH1 0x1 PUSH1 0x1 PUSH1 0xA0 SHL SUB AND CALLER SUB PUSH2 0x1761 JUMPI JUMP JUMPDEST PUSH1 0x40 MLOAD PUSH4 0x118CDAA7 PUSH1 0xE0 SHL DUP2 MSTORE CALLER PUSH1 0x4 DUP3 ADD MSTORE PUSH1 0x24 SWAP1 REVERT JUMPDEST PUSH1 0xC0 DUP2 ADD SWAP1 DUP2 LT PUSH8 0xFFFFFFFFFFFFFFFF DUP3 GT OR PUSH2 0xF4F JUMPI PUSH1 0x40 MSTORE JUMP JUMPDEST PUSH2 0x120 DUP2 ADD SWAP1 DUP2 LT PUSH8 0xFFFFFFFFFFFFFFFF DUP3 GT OR PUSH2 0xF4F JUMPI PUSH1 0x40 MSTORE JUMP JUMPDEST PUSH1 0x40 DUP2 ADD SWAP1 DUP2 LT PUSH8 0xFFFFFFFFFFFFFFFF DUP3 GT OR PUSH2 0xF4F JUMPI PUSH1 0x40 MSTORE JUMP JUMPDEST SWAP1 PUSH1 0x1F DUP1 NOT SWAP2 ADD AND DUP2 ADD SWAP1 DUP2 LT PUSH8 0xFFFFFFFFFFFFFFFF DUP3 GT OR PUSH2 0xF4F JUMPI PUSH1 0x40 MSTORE JUMP JUMPDEST SWAP1 DUP2 PUSH1 0x20 SWAP2 SUB SLT PUSH2 0x304 JUMPI MLOAD DUP1 ISZERO ISZERO DUP2 SUB PUSH2 0x304 JUMPI SWAP1 JUMP JUMPDEST DUP2 DUP2 MUL SWAP3 SWAP2 DUP2 ISZERO SWAP2 DUP5 DIV EQ OR ISZERO PUSH2 0x181B JUMPI JUMP JUMPDEST PUSH4 0x4E487B71 PUSH1 0xE0 SHL PUSH1 0x0 MSTORE PUSH1 0x11 PUSH1 0x4 MSTORE PUSH1 0x24 PUSH1 0x0 REVERT JUMPDEST SWAP2 SWAP1 DUP3 ADD DUP1 SWAP3 GT PUSH2 0x181B JUMPI JUMP JUMPDEST PUSH1 0x0 NOT DUP2 EQ PUSH2 0x181B JUMPI PUSH1 0x1 ADD SWAP1 JUMP JUMPDEST SWAP1 PUSH1 0x5 DUP2 LT ISZERO PUSH2 0xF65 JUMPI PUSH1 0xFF DUP1 NOT DUP4 SLOAD AND SWAP2 AND OR SWAP1 SSTORE JUMP JUMPDEST DUP1 SLOAD DUP3 LT ISZERO PUSH2 0x187D JUMPI PUSH1 0x0 MSTORE PUSH1 0x20 PUSH1 0x0 KECCAK256 ADD SWAP1 PUSH1 0x0 SWAP1 JUMP JUMPDEST PUSH4 0x4E487B71 PUSH1 0xE0 SHL PUSH1 0x0 MSTORE PUSH1 0x32 PUSH1 0x4 MSTORE PUSH1 0x24 PUSH1 0x0 REVERT JUMPDEST SWAP2 SWAP1 DUP3 SUB SWAP2 DUP3 GT PUSH2 0x181B JUMPI JUMP JUMPDEST SWAP1 DUP2 PUSH1 0x20 SWAP2 SUB SLT PUSH2 0x304 JUMPI MLOAD PUSH1 0x1 PUSH1 0x1 PUSH1 0xA0 SHL SUB DUP2 AND DUP2 SUB PUSH2 0x304 JUMPI SWAP1 JUMP JUMPDEST RETURNDATASIZE ISZERO PUSH2 0x18FA JUMPI RETURNDATASIZE SWAP1 PUSH8 0xFFFFFFFFFFFFFFFF DUP3 GT PUSH2 0xF4F JUMPI PUSH1 0x40 MLOAD SWAP2 PUSH2 0x18EE PUSH1 0x1F DUP3 ADD PUSH1 0x1F NOT AND PUSH1 0x20 ADD DUP5 PUSH2 0x17CE JUMP JUMPDEST DUP3 MSTORE RETURNDATASIZE PUSH1 0x0 PUSH1 0x20 DUP5 ADD RETURNDATACOPY JUMP JUMPDEST PUSH1 0x60 SWAP1 JUMP JUMPDEST PUSH1 0xFF PUSH1 0x1 SLOAD PUSH1 0xA0 SHR AND PUSH2 0x190E JUMPI JUMP JUMPDEST PUSH1 0x40 MLOAD PUSH4 0xD93C0665 PUSH1 0xE0 SHL DUP2 MSTORE PUSH1 0x4 SWAP1 REVERT JUMPDEST PUSH1 0x2 PUSH1 0x0 SLOAD EQ PUSH2 0x1931 JUMPI PUSH1 0x2 PUSH1 0x0 SSTORE JUMP JUMPDEST PUSH1 0x40 MLOAD PUSH4 0x3EE5AEB5 PUSH1 0xE0 SHL DUP2 MSTORE PUSH1 0x4 SWAP1 REVERT JUMPDEST PUSH1 0x40 DUP1 MLOAD PUSH4 0x17A3C103 PUSH1 0xE2 SHL DUP2 MSTORE PUSH1 0x4 DUP2 ADD DUP4 SWAP1 MSTORE SWAP1 SWAP3 SWAP2 PUSH1 0x20 SWAP2 DUP3 DUP2 PUSH1 0x24 DUP2 PUSH32 0x0 PUSH1 0x1 PUSH1 0x1 PUSH1 0xA0 SHL SUB AND GAS STATICCALL SWAP1 DUP2 ISZERO PUSH2 0x1AA3 JUMPI PUSH1 0x0 SWAP2 PUSH2 0x1A86 JUMPI JUMPDEST POP ISZERO PUSH2 0x1A5B JUMPI PUSH1 0x0 MSTORE PUSH1 0x2 DUP2 MSTORE PUSH1 0xFF PUSH1 0x8 DUP5 PUSH1 0x0 KECCAK256 ADD SLOAD AND PUSH1 0x5 DUP2 LT ISZERO PUSH2 0xF65 JUMPI PUSH1 0x1 EQ PUSH2 0x1A2D JUMPI PUSH1 0xB SLOAD ISZERO PUSH2 0x19FB JUMPI PUSH17 0x22B634B3B4B13632903337B9103637B0B7 PUSH1 0x79 SHL PUSH1 0x1 SWAP4 MLOAD SWAP2 PUSH2 0x19F1 DUP4 PUSH2 0x17B2 JUMP JUMPDEST PUSH1 0x11 DUP4 MSTORE DUP3 ADD MSTORE SWAP1 JUMP JUMPDEST PUSH22 0x4E6F206C697175696469747920617661696C61626C65 PUSH1 0x50 SHL PUSH1 0x0 SWAP4 MLOAD SWAP2 PUSH2 0x1A23 DUP4 PUSH2 0x17B2 JUMP JUMPDEST PUSH1 0x16 DUP4 MSTORE DUP3 ADD MSTORE SWAP1 JUMP JUMPDEST PUSH18 0x416374697665206C6F616E20657869737473 PUSH1 0x70 SHL PUSH1 0x0 SWAP4 MLOAD SWAP2 PUSH2 0x1A51 DUP4 PUSH2 0x17B2 JUMP JUMPDEST PUSH1 0x12 DUP4 MSTORE DUP3 ADD MSTORE SWAP1 JUMP JUMPDEST POP PUSH14 0x139BDD081C9959DA5CDD195C9959 PUSH1 0x92 SHL PUSH1 0x0 SWAP4 MLOAD SWAP2 PUSH2 0x1A7C DUP4 PUSH2 0x17B2 JUMP JUMPDEST PUSH1 0xE DUP4 MSTORE DUP3 ADD MSTORE SWAP1 JUMP JUMPDEST PUSH2 0x1A9D SWAP2 POP DUP4 RETURNDATASIZE DUP6 GT PUSH2 0x103F JUMPI PUSH2 0x1031 DUP2 DUP4 PUSH2 0x17CE JUMP JUMPDEST CODESIZE PUSH2 0x199E JUMP JUMPDEST DUP6 MLOAD RETURNDATASIZE PUSH1 0x0 DUP3 RETURNDATACOPY RETURNDATASIZE SWAP1 REVERT JUMPDEST SWAP2 SWAP1 SWAP3 PUSH1 0x0 SWAP2 DUP3 MSTORE PUSH1 0x5 PUSH1 0x20 MSTORE PUSH1 0x40 DUP3 KECCAK256 SWAP4 PUSH1 0xFF PUSH1 0x5 DUP7 ADD SLOAD AND ISZERO DUP1 ISZERO PUSH2 0x1B8A JUMPI JUMPDEST DUP1 ISZERO PUSH2 0x1B7D JUMPI JUMPDEST DUP1 ISZERO PUSH2 0x1B70 JUMPI JUMPDEST DUP1 ISZERO PUSH2 0x1B63 JUMPI JUMPDEST PUSH2 0x1B55 JUMPI PUSH2 0x1B1D PUSH5 0x496CEBB800 PUSH2 0x1B15 PUSH1 0x2 PUSH2 0x2710 PUSH2 0x1B06 PUSH1 0x7 SLOAD DUP11 PUSH2 0x1808 JUMP JUMPDEST DIV SWAP9 ADD SLOAD SWAP4 PUSH2 0xC84 DUP6 DUP10 PUSH2 0x1808 JUMP JUMPDEST DIV DUP1 SWAP6 PUSH2 0x1831 JUMP JUMPDEST SWAP3 PUSH3 0x278D00 SWAP2 DUP3 DUP2 MUL SWAP3 DUP2 DUP5 DIV EQ SWAP1 ISZERO OR ISZERO PUSH2 0x1B41 JUMPI POP PUSH4 0x1E13380 SWAP1 DIV SWAP1 PUSH1 0x1 SWAP1 JUMP JUMPDEST PUSH4 0x4E487B71 PUSH1 0xE0 SHL DUP2 MSTORE PUSH1 0x11 PUSH1 0x4 MSTORE PUSH1 0x24 SWAP1 REVERT JUMPDEST POP SWAP3 POP DUP1 SWAP2 POP SWAP2 DUP2 DUP1 SWAP2 DUP2 SWAP1 JUMP JUMPDEST POP PUSH1 0x4 DUP6 ADD SLOAD DUP2 GT PUSH2 0x1AE5 JUMP JUMPDEST POP PUSH1 0x3 DUP6 ADD SLOAD DUP2 LT PUSH2 0x1ADE JUMP JUMPDEST POP PUSH1 0x1 DUP6 ADD SLOAD DUP5 GT PUSH2 0x1AD7 JUMP JUMPDEST POP DUP5 SLOAD DUP5 LT PUSH2 0x1AD0 JUMP JUMPDEST PUSH8 0xFFFFFFFFFFFFFFFF DUP2 GT PUSH2 0xF4F JUMPI PUSH1 0x5 SHL PUSH1 0x20 ADD SWAP1 JUMP JUMPDEST DUP1 MLOAD DUP3 LT ISZERO PUSH2 0x187D JUMPI PUSH1 0x20 SWAP2 PUSH1 0x5 SHL ADD ADD SWAP1 JUMP JUMPDEST PUSH1 0x0 SWAP1 DUP2 MSTORE PUSH1 0x3 SWAP1 PUSH1 0x20 DUP3 DUP2 MSTORE PUSH1 0x40 DUP1 DUP4 KECCAK256 SWAP3 DUP4 SLOAD SWAP6 DUP7 ISZERO PUSH2 0x1D61 JUMPI DUP1 DUP8 LT ISZERO PUSH2 0x1D5B JUMPI POP DUP6 SWAP4 JUMPDEST PUSH2 0x1BF1 DUP6 PUSH2 0x1B94 JUMP JUMPDEST SWAP7 PUSH2 0x1BFE DUP5 MLOAD SWAP9 DUP10 PUSH2 0x17CE JUMP JUMPDEST DUP6 DUP9 MSTORE PUSH1 0x1F NOT PUSH2 0x1C0D DUP8 PUSH2 0x1B94 JUMP JUMPDEST ADD DUP6 DUP5 JUMPDEST DUP3 DUP2 LT PUSH2 0x1D10 JUMPI POP POP POP PUSH1 0x0 NOT DUP2 ADD SWAP1 DUP2 GT DUP4 JUMPDEST DUP8 DUP2 LT PUSH2 0x1C38 JUMPI POP POP POP POP POP POP POP POP POP SWAP1 JUMP JUMPDEST DUP2 PUSH2 0x1CFC JUMPI PUSH2 0x1C50 PUSH2 0x1C4A DUP3 DUP6 PUSH2 0x1893 JUMP JUMPDEST DUP6 PUSH2 0x1865 JUMP JUMPDEST SWAP1 SLOAD SWAP1 DUP11 SHL SHR DUP6 MSTORE PUSH1 0x4 DUP1 DUP9 MSTORE DUP7 DUP7 KECCAK256 DUP8 MLOAD SWAP2 PUSH2 0x1C6C DUP4 PUSH2 0x1795 JUMP JUMPDEST DUP2 SLOAD DUP4 MSTORE PUSH1 0x1 DUP3 ADD SLOAD DUP11 DUP5 ADD MSTORE PUSH1 0x2 DUP3 ADD SLOAD DUP10 DUP5 ADD MSTORE DUP12 DUP3 ADD SLOAD PUSH1 0x60 DUP5 ADD MSTORE DUP1 DUP3 ADD SLOAD PUSH1 0x80 DUP5 ADD MSTORE PUSH1 0xFF PUSH1 0x8 PUSH1 0x5 SWAP4 DUP5 DUP2 ADD SLOAD PUSH1 0xA0 DUP8 ADD MSTORE PUSH1 0x6 DUP2 ADD SLOAD PUSH1 0xC0 DUP8 ADD MSTORE PUSH1 0x7 DUP2 ADD SLOAD PUSH1 0xE0 DUP8 ADD MSTORE ADD SLOAD AND SWAP2 DUP3 LT ISZERO PUSH2 0x1CE9 JUMPI POP PUSH2 0x100 DUP3 ADD MSTORE PUSH2 0x1CE4 SWAP2 SWAP1 PUSH2 0x1CD9 DUP3 DUP14 PUSH2 0x1BAC JUMP JUMPDEST MSTORE PUSH2 0x2B8 DUP2 DUP13 PUSH2 0x1BAC JUMP JUMPDEST PUSH2 0x1C25 JUMP JUMPDEST PUSH4 0x4E487B71 PUSH1 0xE0 SHL DUP9 MSTORE PUSH1 0x21 SWAP1 MSTORE PUSH1 0x24 DUP8 REVERT JUMPDEST PUSH4 0x4E487B71 PUSH1 0xE0 SHL DUP6 MSTORE PUSH1 0x11 PUSH1 0x4 MSTORE PUSH1 0x24 DUP6 REVERT JUMPDEST DUP7 MLOAD PUSH2 0x1D1B DUP2 PUSH2 0x1795 JUMP JUMPDEST DUP7 DUP2 MSTORE DUP7 DUP4 DUP3 ADD MSTORE DUP7 DUP9 DUP3 ADD MSTORE DUP7 PUSH1 0x60 DUP3 ADD MSTORE DUP7 PUSH1 0x80 DUP3 ADD MSTORE DUP7 PUSH1 0xA0 DUP3 ADD MSTORE DUP7 PUSH1 0xC0 DUP3 ADD MSTORE DUP7 PUSH1 0xE0 DUP3 ADD MSTORE DUP7 PUSH2 0x100 DUP3 ADD MSTORE DUP3 DUP3 DUP14 ADD ADD MSTORE ADD DUP7 SWAP1 PUSH2 0x1C11 JUMP JUMPDEST SWAP4 PUSH2 0x1BE8 JUMP JUMPDEST POP DUP2 MLOAD SWAP6 POP SWAP4 POP SWAP1 DUP5 ADD SWAP2 POP PUSH8 0xFFFFFFFFFFFFFFFF DUP3 GT DUP5 DUP4 LT OR PUSH2 0x1D86 JUMPI MSTORE DUP2 MSTORE SWAP1 JUMP JUMPDEST PUSH4 0x4E487B71 PUSH1 0xE0 SHL DUP4 MSTORE PUSH1 0x41 PUSH1 0x4 MSTORE PUSH1 0x24 DUP4 REVERT JUMPDEST PUSH2 0x1DA6 CALLVALUE PUSH1 0xB SLOAD PUSH2 0x1831 JUMP JUMPDEST PUSH1 0xB SSTORE PUSH1 0x40 MLOAD CALLVALUE DUP2 MSTORE PUSH32 0xC17CEA59C2955CB181B03393209566960365771DBBA9DC3D510180E7CB312088 PUSH1 0x20 CALLER SWAP3 LOG2 JUMP INVALID LOG2 PUSH5 0x6970667358 0x22 SLT KECCAK256 0xC8 CALLCODE CALLCODE 0xCF CODESIZE 0xE1 SWAP5 PUSH11 0xBC76B57A2DA7ADF9FA7D16 0xE9 0xB5 BYTE 0xAF 0xA6 0x2C 0xAC SWAP8 EXP SGT CALLVALUE 0x4E KECCAK256 PUSH5 0x736F6C6343 STOP ADDMOD EQ STOP CALLER "},"methodIdentifiers":{"addAuthorizedBackend(address)":"f2776d2e","addLiquidity()":"e8078d94","authorizedBackends(address)":"e712a35d","availableLiquidity()":"74375359","calculateLoanQuote(uint256,uint256,uint256)":"c5da137e","checkEligibility(bytes32)":"a2027d15","getAvailableTiers()":"f932437a","getLoanDetails(bytes32)":"c6eb9254","getLoanHistory(bytes32,uint256)":"ed44f544","liquidationThreshold()":"4031234c","loanTiers(uint256)":"c84a8fc7","loans(bytes32)":"c4a90815","minCollateralRatio()":"84da2666","owner()":"8da5cb5b","pause()":"8456cb59","paused()":"5c975abb","processDefault(bytes32)":"1c1abdc5","removeAuthorizedBackend(address)":"9ba78fd9","removeLiquidity(uint256)":"9c8f9f23","renounceOwnership()":"715018a6","repayLoan(bytes32)":"3f84210f","requestLoan(bytes32,uint256,uint256,uint256)":"69108a8f","tierCount()":"96b55f7d","totalActiveLoanValue()":"9d34b839","totalInterestEarned()":"b7d93f34","totalLoansIssued()":"c7959d04","transferOwnership(address)":"f2fde38b","unpause()":"3f4ba83a","updateCollateralRatio(uint256)":"7992ec48","updateTier(uint256,uint256,uint256,uint256,uint256,uint256,bool)":"24af5c01","walletRegistry()":"ab7aa6ad"}}}}}