{"contracts/P2PTransfer.sol":{"P2PTransfer":{"abi":[{"inputs":[{"internalType":"address","name":"_walletRegistry","type":"address"}],"stateMutability":"nonpayable","type":"constructor"},{"inputs":[],"name":"DailyLimitExceeded","type":"error"},{"inputs":[],"name":"EnforcedPause","type":"error"},{"inputs":[],"name":"ExpectedPause","type":"error"},{"inputs":[],"name":"InsufficientFunds","type":"error"},{"inputs":[],"name":"InvalidAmount","type":"error"},{"inputs":[],"name":"InvalidFee","type":"error"},{"inputs":[],"name":"NoFeesToWithdraw","type":"error"},{"inputs":[],"name":"NotAuthorized","type":"error"},{"inputs":[{"internalType":"address","name":"owner","type":"address"}],"name":"OwnableInvalidOwner","type":"error"},{"inputs":[{"internalType":"address","name":"account","type":"address"}],"name":"OwnableUnauthorizedAccount","type":"error"},{"inputs":[],"name":"RecipientNotRegistered","type":"error"},{"inputs":[],"name":"ReentrancyGuardReentrantCall","type":"error"},{"inputs":[],"name":"SelfTransferNotAllowed","type":"error"},{"inputs":[],"name":"TransferFailed","type":"error"},{"anonymous":false,"inputs":[{"indexed":true,"internalType":"address","name":"backend","type":"address"}],"name":"BackendAuthorized","type":"event"},{"anonymous":false,"inputs":[{"indexed":true,"internalType":"address","name":"backend","type":"address"}],"name":"BackendRevoked","type":"event"},{"anonymous":false,"inputs":[{"indexed":false,"internalType":"uint256","name":"oldFee","type":"uint256"},{"indexed":false,"internalType":"uint256","name":"newFee","type":"uint256"}],"name":"FeeUpdated","type":"event"},{"anonymous":false,"inputs":[{"indexed":true,"internalType":"address","name":"to","type":"address"},{"indexed":false,"internalType":"uint256","name":"amount","type":"uint256"}],"name":"FeesWithdrawn","type":"event"},{"anonymous":false,"inputs":[{"indexed":false,"internalType":"uint256","name":"minAmount","type":"uint256"},{"indexed":false,"internalType":"uint256","name":"maxAmount","type":"uint256"},{"indexed":false,"internalType":"uint256","name":"dailyLimit","type":"uint256"}],"name":"LimitsUpdated","type":"event"},{"anonymous":false,"inputs":[{"indexed":true,"internalType":"address","name":"previousOwner","type":"address"},{"indexed":true,"internalType":"address","name":"newOwner","type":"address"}],"name":"OwnershipTransferred","type":"event"},{"anonymous":false,"inputs":[{"indexed":false,"internalType":"address","name":"account","type":"address"}],"name":"Paused","type":"event"},{"anonymous":false,"inputs":[{"indexed":true,"internalType":"bytes32","name":"fromPhoneHash","type":"bytes32"},{"indexed":true,"internalType":"bytes32","name":"toPhoneHash","type":"bytes32"},{"indexed":false,"internalType":"uint256","name":"amount","type":"uint256"},{"indexed":false,"internalType":"uint256","name":"fee","type":"uint256"},{"indexed":true,"internalType":"bytes32","name":"txHash","type":"bytes32"},{"indexed":false,"internalType":"uint256","name":"timestamp","type":"uint256"}],"name":"TransferExecuted","type":"event"},{"anonymous":false,"inputs":[{"indexed":false,"internalType":"address","name":"account","type":"address"}],"name":"Unpaused","type":"event"},{"inputs":[],"name":"MAX_FEE_BPS","outputs":[{"internalType":"uint256","name":"","type":"uint256"}],"stateMutability":"view","type":"function"},{"inputs":[],"name":"accumulatedFees","outputs":[{"internalType":"uint256","name":"","type":"uint256"}],"stateMutability":"view","type":"function"},{"inputs":[{"internalType":"address","name":"backend","type":"address"}],"name":"addAuthorizedBackend","outputs":[],"stateMutability":"nonpayable","type":"function"},{"inputs":[{"internalType":"address","name":"","type":"address"}],"name":"authorizedBackends","outputs":[{"internalType":"bool","name":"","type":"bool"}],"stateMutability":"view","type":"function"},{"inputs":[{"internalType":"uint256","name":"amount","type":"uint256"}],"name":"calculateFee","outputs":[{"internalType":"uint256","name":"fee","type":"uint256"},{"internalType":"uint256","name":"netAmount","type":"uint256"}],"stateMutability":"view","type":"function"},{"inputs":[],"name":"dailyTransferLimit","outputs":[{"internalType":"uint256","name":"","type":"uint256"}],"stateMutability":"view","type":"function"},{"inputs":[{"internalType":"address","name":"to","type":"address"},{"internalType":"uint256","name":"amount","type":"uint256"}],"name":"emergencyWithdraw","outputs":[],"stateMutability":"nonpayable","type":"function"},{"inputs":[{"internalType":"bytes32","name":"phoneHash","type":"bytes32"}],"name":"getDailyTransferStatus","outputs":[{"internalType":"uint256","name":"total","type":"uint256"},{"internalType":"uint256","name":"remaining","type":"uint256"}],"stateMutability":"view","type":"function"},{"inputs":[{"internalType":"bytes32","name":"txHash","type":"bytes32"}],"name":"getTransaction","outputs":[{"components":[{"internalType":"bytes32","name":"fromPhoneHash","type":"bytes32"},{"internalType":"bytes32","name":"toPhoneHash","type":"bytes32"},{"internalType":"uint256","name":"amount","type":"uint256"},{"internalType":"uint256","name":"fee","type":"uint256"},{"internalType":"uint256","name":"timestamp","type":"uint256"},{"internalType":"bytes32","name":"txHash","type":"bytes32"}],"internalType":"struct P2PTransfer.Transaction","name":"transaction","type":"tuple"}],"stateMutability":"view","type":"function"},{"inputs":[{"internalType":"bytes32","name":"phoneHash","type":"bytes32"}],"name":"getTransactionCount","outputs":[{"internalType":"uint256","name":"count","type":"uint256"}],"stateMutability":"view","type":"function"},{"inputs":[{"internalType":"bytes32","name":"phoneHash","type":"bytes32"},{"internalType":"uint256","name":"offset","type":"uint256"},{"internalType":"uint256","name":"limit","type":"uint256"}],"name":"getTransactionHistory","outputs":[{"components":[{"internalType":"bytes32","name":"fromPhoneHash","type":"bytes32"},{"internalType":"bytes32","name":"toPhoneHash","type":"bytes32"},{"internalType":"uint256","name":"amount","type":"uint256"},{"internalType":"uint256","name":"fee","type":"uint256"},{"internalType":"uint256","name":"timestamp","type":"uint256"},{"internalType":"bytes32","name":"txHash","type":"bytes32"}],"internalType":"struct P2PTransfer.Transaction[]","name":"transactions","type":"tuple[]"}],"stateMutability":"view","type":"function"},{"inputs":[],"name":"maxTransferAmount","outputs":[{"internalType":"uint256","name":"","type":"uint256"}],"stateMutability":"view","type":"function"},{"inputs":[],"name":"minTransferAmount","outputs":[{"internalType":"uint256","name":"","type":"uint256"}],"stateMutability":"view","type":"function"},{"inputs":[],"name":"owner","outputs":[{"internalType":"address","name":"","type":"address"}],"stateMutability":"view","type":"function"},{"inputs":[],"name":"pause","outputs":[],"stateMutability":"nonpayable","type":"function"},{"inputs":[],"name":"paused","outputs":[{"internalType":"bool","name":"","type":"bool"}],"stateMutability":"view","type":"function"},{"inputs":[{"internalType":"address","name":"backend","type":"address"}],"name":"removeAuthorizedBackend","outputs":[],"stateMutability":"nonpayable","type":"function"},{"inputs":[],"name":"renounceOwnership","outputs":[],"stateMutability":"nonpayable","type":"function"},{"inputs":[],"name":"totalTransactions","outputs":[{"internalType":"uint256","name":"","type":"uint256"}],"stateMutability":"view","type":"function"},{"inputs":[],"name":"totalVolume","outputs":[{"internalType":"uint256","name":"","type":"uint256"}],"stateMutability":"view","type":"function"},{"inputs":[{"internalType":"bytes32","name":"fromPhoneHash","type":"bytes32"},{"internalType":"bytes32","name":"toPhoneHash","type":"bytes32"}],"name":"transfer","outputs":[],"stateMutability":"payable","type":"function"},{"inputs":[],"name":"transferFeeBps","outputs":[{"internalType":"uint256","name":"","type":"uint256"}],"stateMutability":"view","type":"function"},{"inputs":[{"internalType":"address","name":"newOwner","type":"address"}],"name":"transferOwnership","outputs":[],"stateMutability":"nonpayable","type":"function"},{"inputs":[],"name":"unpause","outputs":[],"stateMutability":"nonpayable","type":"function"},{"inputs":[{"internalType":"uint256","name":"newFeeBps","type":"uint256"}],"name":"updateFee","outputs":[],"stateMutability":"nonpayable","type":"function"},{"inputs":[{"internalType":"uint256","name":"_minAmount","type":"uint256"},{"internalType":"uint256","name":"_maxAmount","type":"uint256"},{"internalType":"uint256","name":"_dailyLimit","type":"uint256"}],"name":"updateLimits","outputs":[],"stateMutability":"nonpayable","type":"function"},{"inputs":[],"name":"walletRegistry","outputs":[{"internalType":"contract IWalletRegistry","name":"","type":"address"}],"stateMutability":"view","type":"function"},{"inputs":[{"internalType":"address","name":"to","type":"address"}],"name":"withdrawFees","outputs":[],"stateMutability":"nonpayable","type":"function"},{"stateMutability":"payable","type":"receive"}],"evm":{"bytecode":{"linkReferences":{},"object":"60a03461013a57601f61133938819003918201601f19168301916001600160401b0383118484101761013f5780849260209460405283398101031261013a57516001600160a01b03908181169081900361013a576000906001825533156101215760018054336001600160a01b03198216811790925560405194167f8be0079c531659141344cd1fd0a4f28419497f9722a3daafe3b4186f6b6457e08480a36080526032600455655af3107a4000600555678ac7230489e800006006556802b5e3af16b1880000600755338152600c60205260408120600160ff198254161790557fcaac1cded5f66c118ba915f0fc60cd20a0924fcf956320b5230e70c8d5a773ca339180a26111e3908161015682396080518181816103ab015261084b0152f35b604051631e4fbdf760e01b815260048101839052602490fd5b600080fd5b634e487b7160e01b600052604160045260246000fdfe60406080815260049081361015610020575b5050361561001e57600080fd5b005b600091823560e01c908163164e68de14610d0a57816336a0f8a514610c535781633f4ba83a14610be35781634aae13ca14610b715781634deeb4bd146107d8578163587f5ed7146107b95781635c975abb146107925781635de78d7a146107745781635f81a57c1461075557816362734325146106fa57816368841431146106db578163715018a61461067e5781638456cb591461061d5781638da5cb5b146105f45781639012c4a81461058857816395ccea67146104c657816399a5d747146104875781639ba78fd914610421578163a1fb4acb146103f9578163a9e75723146103da578163ab7aa6ad14610396578163b75e5deb146102f5578163b9a60038146102d6578163d55be8c6146102b9578163e712a35d1461027b578163f2776d2e14610212578163f2fde38b1461017e575063f714af6f03610011573461017a578160031936011261017a576020906007549051908152f35b5080fd5b90503461020e57602036600319011261020e57610199610da5565b906101a2610dc0565b6001600160a01b039182169283156101f8575050600154826bffffffffffffffffffffffff60a01b821617600155167f8be0079c531659141344cd1fd0a4f28419497f9722a3daafe3b4186f6b6457e08380a380f35b51631e4fbdf760e01b8152908101849052602490fd5b8280fd5b50503461017a57602036600319011261017a5761022d610da5565b610235610dc0565b6001600160a01b0316808352600c602052908220805460ff191660011790557fcaac1cded5f66c118ba915f0fc60cd20a0924fcf956320b5230e70c8d5a773ca8280a280f35b50503461017a57602036600319011261017a5760209160ff9082906001600160a01b036102a6610da5565b168152600c855220541690519015158152f35b50503461017a578160031936011261017a57602090516101f48152f35b50503461017a578160031936011261017a57602090600a549051908152f35b8391503461017a57606036600319011261017a5761031c8391604435906024359035611063565b81519160208080850192818652845180945285019301945b8281106103415784840385f35b9091928260c0826103876001948a5160a0809180518452602081015160208501526040810151604085015260608101516060850152608081015160808501520151910152565b01960191019492919094610334565b50503461017a578160031936011261017a57517f00000000000000000000000000000000000000000000000000000000000000006001600160a01b03168152602090f35b50503461017a578160031936011261017a576020906006549051908152f35b90503461020e57602036600319011261020e5760209282913581526002845220549051908152f35b50503461017a57602036600319011261017a5761043c610da5565b610444610dc0565b6001600160a01b0316808352600c602052908220805460ff191690557ff67d2fe786130b5e40e7072669d48d149b5f06b216df088ce137f3101d29fcf38280a280f35b905082346104c35760203660031901126104c357506104b76127106104af8335935484610e63565b048092610e76565b82519182526020820152f35b80fd5b9190503461020e578060031936011261020e576104e1610da5565b602435906104ed610dc0565b6104fa4760095490610e76565b8211610551578480809381935af1610510610f3b565b501561051a578280f35b906020606492519162461bcd60e51b8352820152601160248201527015da5d1a191c985dd85b0819985a5b1959607a1b6044820152fd5b825162461bcd60e51b815260208186015260116024820152704578636565647320617661696c61626c6560781b6044820152606490fd5b90503461020e57602036600319011261020e5780356105a5610dc0565b6101f481116105e55790817f528d9479e9f9889a87a3c30c7f7ba537e5e59c4c85a37733b16e57c62df6130293928254925582519182526020820152a180f35b5090516358d620b360e01b8152fd5b50503461017a578160031936011261017a5760015490516001600160a01b039091168152602090f35b50503461017a578160031936011261017a5760207f62e78cea01bee320cd4e420270b5ea74000d11b0c9f74754ebdbfc544b05a2589161065b610dc0565b610663610f7b565b6001805460ff60a01b1916600160a01b17905551338152a180f35b83346104c357806003193601126104c357610697610dc0565b600180546001600160a01b0319811690915581906001600160a01b03167f8be0079c531659141344cd1fd0a4f28419497f9722a3daafe3b4186f6b6457e08280a380f35b50503461017a578160031936011261017a576020906005549051908152f35b8391503461017a57602036600319011261017a57358152600860205281812062015180420482526020528181205490816007548082101560001461074657505082519182526020820152f35b6107509250610e76565b6104b7565b50503461017a578160031936011261017a57602090600b549051908152f35b90503461020e578260031936011261020e5760209250549051908152f35b50503461017a578160031936011261017a5760209060ff60015460a01c1690519015158152f35b50503461017a578160031936011261017a576020906009549051908152f35b8391508260031936011261017a578035602435913384526020600c815260ff86862054161580610b5c575b610b4d5761080f610f9c565b610817610f7b565b60055434108015610b42575b610b3357838314610b245785516317a3c10360e21b81528083018590526001600160a01b03967f000000000000000000000000000000000000000000000000000000000000000088169390918381602481885afa908115610b1a578891610ae0575b5015610ad257620151804204978588526008845282882089895284526108ae34848a2054610e40565b986007548a11610ac25790889989928860249b52600887528584209084528652848320556127106108e0845434610e63565b0494806108ed8734610e76565b9786519b8c8092633c4e9c9560e11b82528d898301525afa918215610ab857899a8493610a7a575b5050828781938a83948d600a548b5190838201928584528d83015234606083015242608083015260a082015260a0815261094e81610dec565b5190209e8f908b519361096085610dec565b8085528184860152868d8601528d60608601524260808601528260a0860152875260028352838c88209061099391610eb5565b865260028252828b8720906109a791610eb5565b855260039052888420906109ee919060a060059180518455602081015160018501556040810151600285015560608101516003850155608081015160048501550151910155565b88600954906109fc91610e40565b600955600a54610a0b90610f2c565b600a5581600b5490610a1c91610e40565b600b555af1610a29610f3b565b5015610a6c57505191825260208201524260408201527f357b49f3c92c28f6ed04f03ea3c5c888690fc6902b2c17b9cdbfc36fd6a1a03e90606090a46001815580f35b90516312171d8360e31b8152fd5b828094508193929b503d8311610ab1575b610a958183610e1e565b8101031261020e5751978816880361017a578897908287610915565b503d610a8b565b85513d85823e3d90fd5b8351630652f4c560e21b81528390fd5b9051635283857b60e11b8152fd5b90508381813d8311610b13575b610af78183610e1e565b81010312610b0f57518015158103610b0f5789610885565b8780fd5b503d610aed565b83513d8a823e3d90fd5b5084516352a7f8fb60e01b8152fd5b50845163162908e360e11b8152fd5b506006543411610823565b50845163ea8e4eb560e01b8152fd5b506001546001600160a01b0316331415610803565b90503461020e57602036600319011261020e57610ba68260c094610be193610b97610fd7565b5035815260036020522061101d565b9151809260a0809180518452602081015160208501526040810151604085015260608101516060850152608081015160808501520151910152565bf35b90503461020e578260031936011261020e57610bfd610dc0565b6001549060ff8260a01c1615610c45575060ff60a01b1916600155513381527f5db9ee0a495bf2e6ff9c91a7834c1ba4fdd244a5e8aa4e537bd38aeae4b073aa90602090a180f35b8251638dfc202b60e01b8152fd5b8391503461017a57606036600319011261017a5780356024359160443590610c79610dc0565b83831015610cd65750610cd0907faa2ef8ba434f2f6bdaad3fcc2d5c35f02b08a47173c94877259407614bc46b55949583600555846006558160075551938493846040919493926060820195825260208201520152565b0390a180f35b606490602087519162461bcd60e51b8352820152600e60248201526d496e76616c6964206c696d69747360901b6044820152fd5b9190503461020e57602036600319011261020e57610d26610da5565b90610d2f610dc0565b610d37610f9c565b600954928315610d9757846009558480808087875af1610d55610f3b565b5015610a6c5750519182526001600160a01b0316907fc0819c13be868895eb93e40eaceb96de976442fa1d404e5c55f14bb65a8c489a90602090a26001815580f35b9051630d00db4d60e31b8152fd5b600435906001600160a01b0382168203610dbb57565b600080fd5b6001546001600160a01b03163303610dd457565b60405163118cdaa760e01b8152336004820152602490fd5b60c0810190811067ffffffffffffffff821117610e0857604052565b634e487b7160e01b600052604160045260246000fd5b90601f8019910116810190811067ffffffffffffffff821117610e0857604052565b91908201809211610e4d57565b634e487b7160e01b600052601160045260246000fd5b81810292918115918404141715610e4d57565b91908203918211610e4d57565b8054821015610e9f576000526006602060002091020190600090565b634e487b7160e01b600052603260045260246000fd5b805468010000000000000000811015610e0857610ed791600182018155610e83565b919091610f1657805182556020810151600183015560408101516002830155606081015160038301556080810151600483015560a00151600590910155565b634e487b7160e01b600052600060045260246000fd5b6000198114610e4d5760010190565b3d15610f76573d9067ffffffffffffffff8211610e085760405191610f6a601f8201601f191660200184610e1e565b82523d6000602084013e565b606090565b60ff60015460a01c16610f8a57565b60405163d93c066560e01b8152600490fd5b600260005414610fad576002600055565b604051633ee5aeb560e01b8152600490fd5b67ffffffffffffffff8111610e085760051b60200190565b60405190610fe482610dec565b8160a06000918281528260208201528260408201528260608201528260808201520152565b8051821015610e9f5760209160051b010190565b9060405161102a81610dec565b60a06005829480548452600181015460208501526002810154604085015260038101546060850152600481015460808501520154910152565b90916000918252602092600284526040832091825490811580156111a3575b61116a576110908383610e76565b90808210156111625750935b6110a585610fbf565b956110b36040519788610e1e565b858752601f196110c287610fbf565b01825b81811061114c575050506000198201918211815b8681106110ea575050505050505090565b81611138578061111861111261110c611133946111078a8a610e76565b610e76565b89610e83565b5061101d565b611122828b611009565b5261112d818a611009565b50610f2c565b6110d9565b634e487b7160e01b83526011600452602483fd5b8290611156610fd7565b82828c010152016110c5565b90509361109c565b5050505060405191820182811067ffffffffffffffff82111761118f57604052815290565b634e487b7160e01b82526041600452602482fd5b508183101561108256fea264697066735822122024f5338af7f3eaaea1d1511328009a6cdfca819ec61195adcc174fc3c560e01164736f6c63430008140033","opcodes":"PUSH1 0xA0 CALLVALUE PUSH2 0x13A JUMPI PUSH1 0x1F PUSH2 0x1339 CODESIZE DUP2 SWAP1 SUB SWAP2 DUP3 ADD PUSH1 0x1F NOT AND DUP4 ADD SWAP2 PUSH1 0x1 PUSH1 0x1 PUSH1 0x40 SHL SUB DUP4 GT DUP5 DUP5 LT OR PUSH2 0x13F JUMPI DUP1 DUP5 SWAP3 PUSH1 0x20 SWAP5 PUSH1 0x40 MSTORE DUP4 CODECOPY DUP2 ADD SUB SLT PUSH2 0x13A JUMPI MLOAD PUSH1 0x1 PUSH1 0x1 PUSH1 0xA0 SHL SUB SWAP1 DUP2 DUP2 AND SWAP1 DUP2 SWAP1 SUB PUSH2 0x13A JUMPI PUSH1 0x0 SWAP1 PUSH1 0x1 DUP3 SSTORE CALLER ISZERO PUSH2 0x121 JUMPI PUSH1 0x1 DUP1 SLOAD CALLER PUSH1 0x1 PUSH1 0x1 PUSH1 0xA0 SHL SUB NOT DUP3 AND DUP2 OR SWAP1 SWAP3 SSTORE PUSH1 0x40 MLOAD SWAP5 AND PUSH32 0x8BE0079C531659141344CD1FD0A4F28419497F9722A3DAAFE3B4186F6B6457E0 DUP5 DUP1 LOG3 PUSH1 0x80 MSTORE PUSH1 0x32 PUSH1 0x4 SSTORE PUSH6 0x5AF3107A4000 PUSH1 0x5 SSTORE PUSH8 0x8AC7230489E80000 PUSH1 0x6 SSTORE PUSH9 0x2B5E3AF16B1880000 PUSH1 0x7 SSTORE CALLER DUP2 MSTORE PUSH1 0xC PUSH1 0x20 MSTORE PUSH1 0x40 DUP2 KECCAK256 PUSH1 0x1 PUSH1 0xFF NOT DUP3 SLOAD AND OR SWAP1 SSTORE PUSH32 0xCAAC1CDED5F66C118BA915F0FC60CD20A0924FCF956320B5230E70C8D5A773CA CALLER SWAP2 DUP1 LOG2 PUSH2 0x11E3 SWAP1 DUP2 PUSH2 0x156 DUP3 CODECOPY PUSH1 0x80 MLOAD DUP2 DUP2 DUP2 PUSH2 0x3AB ADD MSTORE PUSH2 0x84B ADD MSTORE RETURN JUMPDEST PUSH1 0x40 MLOAD PUSH4 0x1E4FBDF7 PUSH1 0xE0 SHL DUP2 MSTORE PUSH1 0x4 DUP2 ADD DUP4 SWAP1 MSTORE PUSH1 0x24 SWAP1 REVERT JUMPDEST PUSH1 0x0 DUP1 REVERT JUMPDEST PUSH4 0x4E487B71 PUSH1 0xE0 SHL PUSH1 0x0 MSTORE PUSH1 0x41 PUSH1 0x4 MSTORE PUSH1 0x24 PUSH1 0x0 REVERT INVALID PUSH1 0x40 PUSH1 0x80 DUP2 MSTORE PUSH1 0x4 SWAP1 DUP2 CALLDATASIZE LT ISZERO PUSH2 0x20 JUMPI JUMPDEST POP POP CALLDATASIZE ISZERO PUSH2 0x1E JUMPI PUSH1 0x0 DUP1 REVERT JUMPDEST STOP JUMPDEST PUSH1 0x0 SWAP2 DUP3 CALLDATALOAD PUSH1 0xE0 SHR SWAP1 DUP2 PUSH4 0x164E68DE EQ PUSH2 0xD0A JUMPI DUP2 PUSH4 0x36A0F8A5 EQ PUSH2 0xC53 JUMPI DUP2 PUSH4 0x3F4BA83A EQ PUSH2 0xBE3 JUMPI DUP2 PUSH4 0x4AAE13CA EQ PUSH2 0xB71 JUMPI DUP2 PUSH4 0x4DEEB4BD EQ PUSH2 0x7D8 JUMPI DUP2 PUSH4 0x587F5ED7 EQ PUSH2 0x7B9 JUMPI DUP2 PUSH4 0x5C975ABB EQ PUSH2 0x792 JUMPI DUP2 PUSH4 0x5DE78D7A EQ PUSH2 0x774 JUMPI DUP2 PUSH4 0x5F81A57C EQ PUSH2 0x755 JUMPI DUP2 PUSH4 0x62734325 EQ PUSH2 0x6FA JUMPI DUP2 PUSH4 0x68841431 EQ PUSH2 0x6DB JUMPI DUP2 PUSH4 0x715018A6 EQ PUSH2 0x67E JUMPI DUP2 PUSH4 0x8456CB59 EQ PUSH2 0x61D JUMPI DUP2 PUSH4 0x8DA5CB5B EQ PUSH2 0x5F4 JUMPI DUP2 PUSH4 0x9012C4A8 EQ PUSH2 0x588 JUMPI DUP2 PUSH4 0x95CCEA67 EQ PUSH2 0x4C6 JUMPI DUP2 PUSH4 0x99A5D747 EQ PUSH2 0x487 JUMPI DUP2 PUSH4 0x9BA78FD9 EQ PUSH2 0x421 JUMPI DUP2 PUSH4 0xA1FB4ACB EQ PUSH2 0x3F9 JUMPI DUP2 PUSH4 0xA9E75723 EQ PUSH2 0x3DA JUMPI DUP2 PUSH4 0xAB7AA6AD EQ PUSH2 0x396 JUMPI DUP2 PUSH4 0xB75E5DEB EQ PUSH2 0x2F5 JUMPI DUP2 PUSH4 0xB9A60038 EQ PUSH2 0x2D6 JUMPI DUP2 PUSH4 0xD55BE8C6 EQ PUSH2 0x2B9 JUMPI DUP2 PUSH4 0xE712A35D EQ PUSH2 0x27B JUMPI DUP2 PUSH4 0xF2776D2E EQ PUSH2 0x212 JUMPI DUP2 PUSH4 0xF2FDE38B EQ PUSH2 0x17E JUMPI POP PUSH4 0xF714AF6F SUB PUSH2 0x11 JUMPI CALLVALUE PUSH2 0x17A JUMPI DUP2 PUSH1 0x3 NOT CALLDATASIZE ADD SLT PUSH2 0x17A JUMPI PUSH1 0x20 SWAP1 PUSH1 0x7 SLOAD SWAP1 MLOAD SWAP1 DUP2 MSTORE RETURN JUMPDEST POP DUP1 REVERT JUMPDEST SWAP1 POP CALLVALUE PUSH2 0x20E JUMPI PUSH1 0x20 CALLDATASIZE PUSH1 0x3 NOT ADD SLT PUSH2 0x20E JUMPI PUSH2 0x199 PUSH2 0xDA5 JUMP JUMPDEST SWAP1 PUSH2 0x1A2 PUSH2 0xDC0 JUMP JUMPDEST PUSH1 0x1 PUSH1 0x1 PUSH1 0xA0 SHL SUB SWAP2 DUP3 AND SWAP3 DUP4 ISZERO PUSH2 0x1F8 JUMPI POP POP PUSH1 0x1 SLOAD DUP3 PUSH12 0xFFFFFFFFFFFFFFFFFFFFFFFF PUSH1 0xA0 SHL DUP3 AND OR PUSH1 0x1 SSTORE AND PUSH32 0x8BE0079C531659141344CD1FD0A4F28419497F9722A3DAAFE3B4186F6B6457E0 DUP4 DUP1 LOG3 DUP1 RETURN JUMPDEST MLOAD PUSH4 0x1E4FBDF7 PUSH1 0xE0 SHL DUP2 MSTORE SWAP1 DUP2 ADD DUP5 SWAP1 MSTORE PUSH1 0x24 SWAP1 REVERT JUMPDEST DUP3 DUP1 REVERT JUMPDEST POP POP CALLVALUE PUSH2 0x17A JUMPI PUSH1 0x20 CALLDATASIZE PUSH1 0x3 NOT ADD SLT PUSH2 0x17A JUMPI PUSH2 0x22D PUSH2 0xDA5 JUMP JUMPDEST PUSH2 0x235 PUSH2 0xDC0 JUMP JUMPDEST PUSH1 0x1 PUSH1 0x1 PUSH1 0xA0 SHL SUB AND DUP1 DUP4 MSTORE PUSH1 0xC PUSH1 0x20 MSTORE SWAP1 DUP3 KECCAK256 DUP1 SLOAD PUSH1 0xFF NOT AND PUSH1 0x1 OR SWAP1 SSTORE PUSH32 0xCAAC1CDED5F66C118BA915F0FC60CD20A0924FCF956320B5230E70C8D5A773CA DUP3 DUP1 LOG2 DUP1 RETURN JUMPDEST POP POP CALLVALUE PUSH2 0x17A JUMPI PUSH1 0x20 CALLDATASIZE PUSH1 0x3 NOT ADD SLT PUSH2 0x17A JUMPI PUSH1 0x20 SWAP2 PUSH1 0xFF SWAP1 DUP3 SWAP1 PUSH1 0x1 PUSH1 0x1 PUSH1 0xA0 SHL SUB PUSH2 0x2A6 PUSH2 0xDA5 JUMP JUMPDEST AND DUP2 MSTORE PUSH1 0xC DUP6 MSTORE KECCAK256 SLOAD AND SWAP1 MLOAD SWAP1 ISZERO ISZERO DUP2 MSTORE RETURN JUMPDEST POP POP CALLVALUE PUSH2 0x17A JUMPI DUP2 PUSH1 0x3 NOT CALLDATASIZE ADD SLT PUSH2 0x17A JUMPI PUSH1 0x20 SWAP1 MLOAD PUSH2 0x1F4 DUP2 MSTORE RETURN JUMPDEST POP POP CALLVALUE PUSH2 0x17A JUMPI DUP2 PUSH1 0x3 NOT CALLDATASIZE ADD SLT PUSH2 0x17A JUMPI PUSH1 0x20 SWAP1 PUSH1 0xA SLOAD SWAP1 MLOAD SWAP1 DUP2 MSTORE RETURN JUMPDEST DUP4 SWAP2 POP CALLVALUE PUSH2 0x17A JUMPI PUSH1 0x60 CALLDATASIZE PUSH1 0x3 NOT ADD SLT PUSH2 0x17A JUMPI PUSH2 0x31C DUP4 SWAP2 PUSH1 0x44 CALLDATALOAD SWAP1 PUSH1 0x24 CALLDATALOAD SWAP1 CALLDATALOAD PUSH2 0x1063 JUMP JUMPDEST DUP2 MLOAD SWAP2 PUSH1 0x20 DUP1 DUP1 DUP6 ADD SWAP3 DUP2 DUP7 MSTORE DUP5 MLOAD DUP1 SWAP5 MSTORE DUP6 ADD SWAP4 ADD SWAP5 JUMPDEST DUP3 DUP2 LT PUSH2 0x341 JUMPI DUP5 DUP5 SUB DUP6 RETURN JUMPDEST SWAP1 SWAP2 SWAP3 DUP3 PUSH1 0xC0 DUP3 PUSH2 0x387 PUSH1 0x1 SWAP5 DUP11 MLOAD PUSH1 0xA0 DUP1 SWAP2 DUP1 MLOAD DUP5 MSTORE PUSH1 0x20 DUP2 ADD MLOAD PUSH1 0x20 DUP6 ADD MSTORE PUSH1 0x40 DUP2 ADD MLOAD PUSH1 0x40 DUP6 ADD MSTORE PUSH1 0x60 DUP2 ADD MLOAD PUSH1 0x60 DUP6 ADD MSTORE PUSH1 0x80 DUP2 ADD MLOAD PUSH1 0x80 DUP6 ADD MSTORE ADD MLOAD SWAP2 ADD MSTORE JUMP JUMPDEST ADD SWAP7 ADD SWAP2 ADD SWAP5 SWAP3 SWAP2 SWAP1 SWAP5 PUSH2 0x334 JUMP JUMPDEST POP POP CALLVALUE PUSH2 0x17A JUMPI DUP2 PUSH1 0x3 NOT CALLDATASIZE ADD SLT PUSH2 0x17A JUMPI MLOAD PUSH32 0x0 PUSH1 0x1 PUSH1 0x1 PUSH1 0xA0 SHL SUB AND DUP2 MSTORE PUSH1 0x20 SWAP1 RETURN JUMPDEST POP POP CALLVALUE PUSH2 0x17A JUMPI DUP2 PUSH1 0x3 NOT CALLDATASIZE ADD SLT PUSH2 0x17A JUMPI PUSH1 0x20 SWAP1 PUSH1 0x6 SLOAD SWAP1 MLOAD SWAP1 DUP2 MSTORE RETURN JUMPDEST SWAP1 POP CALLVALUE PUSH2 0x20E JUMPI PUSH1 0x20 CALLDATASIZE PUSH1 0x3 NOT ADD SLT PUSH2 0x20E JUMPI PUSH1 0x20 SWAP3 DUP3 SWAP2 CALLDATALOAD DUP2 MSTORE PUSH1 0x2 DUP5 MSTORE KECCAK256 SLOAD SWAP1 MLOAD SWAP1 DUP2 MSTORE RETURN JUMPDEST POP POP CALLVALUE PUSH2 0x17A JUMPI PUSH1 0x20 CALLDATASIZE PUSH1 0x3 NOT ADD SLT PUSH2 0x17A JUMPI PUSH2 0x43C PUSH2 0xDA5 JUMP JUMPDEST PUSH2 0x444 PUSH2 0xDC0 JUMP JUMPDEST PUSH1 0x1 PUSH1 0x1 PUSH1 0xA0 SHL SUB AND DUP1 DUP4 MSTORE PUSH1 0xC PUSH1 0x20 MSTORE SWAP1 DUP3 KECCAK256 DUP1 SLOAD PUSH1 0xFF NOT AND SWAP1 SSTORE PUSH32 0xF67D2FE786130B5E40E7072669D48D149B5F06B216DF088CE137F3101D29FCF3 DUP3 DUP1 LOG2 DUP1 RETURN JUMPDEST SWAP1 POP DUP3 CALLVALUE PUSH2 0x4C3 JUMPI PUSH1 0x20 CALLDATASIZE PUSH1 0x3 NOT ADD SLT PUSH2 0x4C3 JUMPI POP PUSH2 0x4B7 PUSH2 0x2710 PUSH2 0x4AF DUP4 CALLDATALOAD SWAP4 SLOAD DUP5 PUSH2 0xE63 JUMP JUMPDEST DIV DUP1 SWAP3 PUSH2 0xE76 JUMP JUMPDEST DUP3 MLOAD SWAP2 DUP3 MSTORE PUSH1 0x20 DUP3 ADD MSTORE RETURN JUMPDEST DUP1 REVERT JUMPDEST SWAP2 SWAP1 POP CALLVALUE PUSH2 0x20E JUMPI DUP1 PUSH1 0x3 NOT CALLDATASIZE ADD SLT PUSH2 0x20E JUMPI PUSH2 0x4E1 PUSH2 0xDA5 JUMP JUMPDEST PUSH1 0x24 CALLDATALOAD SWAP1 PUSH2 0x4ED PUSH2 0xDC0 JUMP JUMPDEST PUSH2 0x4FA SELFBALANCE PUSH1 0x9 SLOAD SWAP1 PUSH2 0xE76 JUMP JUMPDEST DUP3 GT PUSH2 0x551 JUMPI DUP5 DUP1 DUP1 SWAP4 DUP2 SWAP4 GAS CALL PUSH2 0x510 PUSH2 0xF3B JUMP JUMPDEST POP ISZERO PUSH2 0x51A JUMPI DUP3 DUP1 RETURN JUMPDEST SWAP1 PUSH1 0x20 PUSH1 0x64 SWAP3 MLOAD SWAP2 PUSH3 0x461BCD PUSH1 0xE5 SHL DUP4 MSTORE DUP3 ADD MSTORE PUSH1 0x11 PUSH1 0x24 DUP3 ADD MSTORE PUSH17 0x15DA5D1A191C985DD85B0819985A5B1959 PUSH1 0x7A SHL PUSH1 0x44 DUP3 ADD MSTORE REVERT JUMPDEST DUP3 MLOAD PUSH3 0x461BCD PUSH1 0xE5 SHL DUP2 MSTORE PUSH1 0x20 DUP2 DUP7 ADD MSTORE PUSH1 0x11 PUSH1 0x24 DUP3 ADD MSTORE PUSH17 0x4578636565647320617661696C61626C65 PUSH1 0x78 SHL PUSH1 0x44 DUP3 ADD MSTORE PUSH1 0x64 SWAP1 REVERT JUMPDEST SWAP1 POP CALLVALUE PUSH2 0x20E JUMPI PUSH1 0x20 CALLDATASIZE PUSH1 0x3 NOT ADD SLT PUSH2 0x20E JUMPI DUP1 CALLDATALOAD PUSH2 0x5A5 PUSH2 0xDC0 JUMP JUMPDEST PUSH2 0x1F4 DUP2 GT PUSH2 0x5E5 JUMPI SWAP1 DUP2 PUSH32 0x528D9479E9F9889A87A3C30C7F7BA537E5E59C4C85A37733B16E57C62DF61302 SWAP4 SWAP3 DUP3 SLOAD SWAP3 SSTORE DUP3 MLOAD SWAP2 DUP3 MSTORE PUSH1 0x20 DUP3 ADD MSTORE LOG1 DUP1 RETURN JUMPDEST POP SWAP1 MLOAD PUSH4 0x58D620B3 PUSH1 0xE0 SHL DUP2 MSTORE REVERT JUMPDEST POP POP CALLVALUE PUSH2 0x17A JUMPI DUP2 PUSH1 0x3 NOT CALLDATASIZE ADD SLT PUSH2 0x17A JUMPI PUSH1 0x1 SLOAD SWAP1 MLOAD PUSH1 0x1 PUSH1 0x1 PUSH1 0xA0 SHL SUB SWAP1 SWAP2 AND DUP2 MSTORE PUSH1 0x20 SWAP1 RETURN JUMPDEST POP POP CALLVALUE PUSH2 0x17A JUMPI DUP2 PUSH1 0x3 NOT CALLDATASIZE ADD SLT PUSH2 0x17A JUMPI PUSH1 0x20 PUSH32 0x62E78CEA01BEE320CD4E420270B5EA74000D11B0C9F74754EBDBFC544B05A258 SWAP2 PUSH2 0x65B PUSH2 0xDC0 JUMP JUMPDEST PUSH2 0x663 PUSH2 0xF7B JUMP JUMPDEST PUSH1 0x1 DUP1 SLOAD PUSH1 0xFF PUSH1 0xA0 SHL NOT AND PUSH1 0x1 PUSH1 0xA0 SHL OR SWAP1 SSTORE MLOAD CALLER DUP2 MSTORE LOG1 DUP1 RETURN JUMPDEST DUP4 CALLVALUE PUSH2 0x4C3 JUMPI DUP1 PUSH1 0x3 NOT CALLDATASIZE ADD SLT PUSH2 0x4C3 JUMPI PUSH2 0x697 PUSH2 0xDC0 JUMP JUMPDEST PUSH1 0x1 DUP1 SLOAD PUSH1 0x1 PUSH1 0x1 PUSH1 0xA0 SHL SUB NOT DUP2 AND SWAP1 SWAP2 SSTORE DUP2 SWAP1 PUSH1 0x1 PUSH1 0x1 PUSH1 0xA0 SHL SUB AND PUSH32 0x8BE0079C531659141344CD1FD0A4F28419497F9722A3DAAFE3B4186F6B6457E0 DUP3 DUP1 LOG3 DUP1 RETURN JUMPDEST POP POP CALLVALUE PUSH2 0x17A JUMPI DUP2 PUSH1 0x3 NOT CALLDATASIZE ADD SLT PUSH2 0x17A JUMPI PUSH1 0x20 SWAP1 PUSH1 0x5 SLOAD SWAP1 MLOAD SWAP1 DUP2 MSTORE RETURN JUMPDEST DUP4 SWAP2 POP CALLVALUE PUSH2 0x17A JUMPI PUSH1 0x20 CALLDATASIZE PUSH1 0x3 NOT ADD SLT PUSH2 0x17A JUMPI CALLDATALOAD DUP2 MSTORE PUSH1 0x8 PUSH1 0x20 MSTORE DUP2 DUP2 KECCAK256 PUSH3 0x15180 TIMESTAMP DIV DUP3 MSTORE PUSH1 0x20 MSTORE DUP2 DUP2 KECCAK256 SLOAD SWAP1 DUP2 PUSH1 0x7 SLOAD DUP1 DUP3 LT ISZERO PUSH1 0x0 EQ PUSH2 0x746 JUMPI POP POP DUP3 MLOAD SWAP2 DUP3 MSTORE PUSH1 0x20 DUP3 ADD MSTORE RETURN JUMPDEST PUSH2 0x750 SWAP3 POP PUSH2 0xE76 JUMP JUMPDEST PUSH2 0x4B7 JUMP JUMPDEST POP POP CALLVALUE PUSH2 0x17A JUMPI DUP2 PUSH1 0x3 NOT CALLDATASIZE ADD SLT PUSH2 0x17A JUMPI PUSH1 0x20 SWAP1 PUSH1 0xB SLOAD SWAP1 MLOAD SWAP1 DUP2 MSTORE RETURN JUMPDEST SWAP1 POP CALLVALUE PUSH2 0x20E JUMPI DUP3 PUSH1 0x3 NOT CALLDATASIZE ADD SLT PUSH2 0x20E JUMPI PUSH1 0x20 SWAP3 POP SLOAD SWAP1 MLOAD SWAP1 DUP2 MSTORE RETURN JUMPDEST POP POP CALLVALUE PUSH2 0x17A JUMPI DUP2 PUSH1 0x3 NOT CALLDATASIZE ADD SLT PUSH2 0x17A JUMPI PUSH1 0x20 SWAP1 PUSH1 0xFF PUSH1 0x1 SLOAD PUSH1 0xA0 SHR AND SWAP1 MLOAD SWAP1 ISZERO ISZERO DUP2 MSTORE RETURN JUMPDEST POP POP CALLVALUE PUSH2 0x17A JUMPI DUP2 PUSH1 0x3 NOT CALLDATASIZE ADD SLT PUSH2 0x17A JUMPI PUSH1 0x20 SWAP1 PUSH1 0x9 SLOAD SWAP1 MLOAD SWAP1 DUP2 MSTORE RETURN JUMPDEST DUP4 SWAP2 POP DUP3 PUSH1 0x3 NOT CALLDATASIZE ADD SLT PUSH2 0x17A JUMPI DUP1 CALLDATALOAD PUSH1 0x24 CALLDATALOAD SWAP2 CALLER DUP5 MSTORE PUSH1 0x20 PUSH1 0xC DUP2 MSTORE PUSH1 0xFF DUP7 DUP7 KECCAK256 SLOAD AND ISZERO DUP1 PUSH2 0xB5C JUMPI JUMPDEST PUSH2 0xB4D JUMPI PUSH2 0x80F PUSH2 0xF9C JUMP JUMPDEST PUSH2 0x817 PUSH2 0xF7B JUMP JUMPDEST PUSH1 0x5 SLOAD CALLVALUE LT DUP1 ISZERO PUSH2 0xB42 JUMPI JUMPDEST PUSH2 0xB33 JUMPI DUP4 DUP4 EQ PUSH2 0xB24 JUMPI DUP6 MLOAD PUSH4 0x17A3C103 PUSH1 0xE2 SHL DUP2 MSTORE DUP1 DUP4 ADD DUP6 SWAP1 MSTORE PUSH1 0x1 PUSH1 0x1 PUSH1 0xA0 SHL SUB SWAP7 PUSH32 0x0 DUP9 AND SWAP4 SWAP1 SWAP2 DUP4 DUP2 PUSH1 0x24 DUP2 DUP9 GAS STATICCALL SWAP1 DUP2 ISZERO PUSH2 0xB1A JUMPI DUP9 SWAP2 PUSH2 0xAE0 JUMPI JUMPDEST POP ISZERO PUSH2 0xAD2 JUMPI PUSH3 0x15180 TIMESTAMP DIV SWAP8 DUP6 DUP9 MSTORE PUSH1 0x8 DUP5 MSTORE DUP3 DUP9 KECCAK256 DUP10 DUP10 MSTORE DUP5 MSTORE PUSH2 0x8AE CALLVALUE DUP5 DUP11 KECCAK256 SLOAD PUSH2 0xE40 JUMP JUMPDEST SWAP9 PUSH1 0x7 SLOAD DUP11 GT PUSH2 0xAC2 JUMPI SWAP1 DUP9 SWAP10 DUP10 SWAP3 DUP9 PUSH1 0x24 SWAP12 MSTORE PUSH1 0x8 DUP8 MSTORE DUP6 DUP5 KECCAK256 SWAP1 DUP5 MSTORE DUP7 MSTORE DUP5 DUP4 KECCAK256 SSTORE PUSH2 0x2710 PUSH2 0x8E0 DUP5 SLOAD CALLVALUE PUSH2 0xE63 JUMP JUMPDEST DIV SWAP5 DUP1 PUSH2 0x8ED DUP8 CALLVALUE PUSH2 0xE76 JUMP JUMPDEST SWAP8 DUP7 MLOAD SWAP12 DUP13 DUP1 SWAP3 PUSH4 0x3C4E9C95 PUSH1 0xE1 SHL DUP3 MSTORE DUP14 DUP10 DUP4 ADD MSTORE GAS STATICCALL SWAP2 DUP3 ISZERO PUSH2 0xAB8 JUMPI DUP10 SWAP11 DUP5 SWAP4 PUSH2 0xA7A JUMPI JUMPDEST POP POP DUP3 DUP8 DUP2 SWAP4 DUP11 DUP4 SWAP5 DUP14 PUSH1 0xA SLOAD DUP12 MLOAD SWAP1 DUP4 DUP3 ADD SWAP3 DUP6 DUP5 MSTORE DUP14 DUP4 ADD MSTORE CALLVALUE PUSH1 0x60 DUP4 ADD MSTORE TIMESTAMP PUSH1 0x80 DUP4 ADD MSTORE PUSH1 0xA0 DUP3 ADD MSTORE PUSH1 0xA0 DUP2 MSTORE PUSH2 0x94E DUP2 PUSH2 0xDEC JUMP JUMPDEST MLOAD SWAP1 KECCAK256 SWAP15 DUP16 SWAP1 DUP12 MLOAD SWAP4 PUSH2 0x960 DUP6 PUSH2 0xDEC JUMP JUMPDEST DUP1 DUP6 MSTORE DUP2 DUP5 DUP7 ADD MSTORE DUP7 DUP14 DUP7 ADD MSTORE DUP14 PUSH1 0x60 DUP7 ADD MSTORE TIMESTAMP PUSH1 0x80 DUP7 ADD MSTORE DUP3 PUSH1 0xA0 DUP7 ADD MSTORE DUP8 MSTORE PUSH1 0x2 DUP4 MSTORE DUP4 DUP13 DUP9 KECCAK256 SWAP1 PUSH2 0x993 SWAP2 PUSH2 0xEB5 JUMP JUMPDEST DUP7 MSTORE PUSH1 0x2 DUP3 MSTORE DUP3 DUP12 DUP8 KECCAK256 SWAP1 PUSH2 0x9A7 SWAP2 PUSH2 0xEB5 JUMP JUMPDEST DUP6 MSTORE PUSH1 0x3 SWAP1 MSTORE DUP9 DUP5 KECCAK256 SWAP1 PUSH2 0x9EE SWAP2 SWAP1 PUSH1 0xA0 PUSH1 0x5 SWAP2 DUP1 MLOAD DUP5 SSTORE PUSH1 0x20 DUP2 ADD MLOAD PUSH1 0x1 DUP6 ADD SSTORE PUSH1 0x40 DUP2 ADD MLOAD PUSH1 0x2 DUP6 ADD SSTORE PUSH1 0x60 DUP2 ADD MLOAD PUSH1 0x3 DUP6 ADD SSTORE PUSH1 0x80 DUP2 ADD MLOAD PUSH1 0x4 DUP6 ADD SSTORE ADD MLOAD SWAP2 ADD SSTORE JUMP JUMPDEST DUP9 PUSH1 0x9 SLOAD SWAP1 PUSH2 0x9FC SWAP2 PUSH2 0xE40 JUMP JUMPDEST PUSH1 0x9 SSTORE PUSH1 0xA SLOAD PUSH2 0xA0B SWAP1 PUSH2 0xF2C JUMP JUMPDEST PUSH1 0xA SSTORE DUP2 PUSH1 0xB SLOAD SWAP1 PUSH2 0xA1C SWAP2 PUSH2 0xE40 JUMP JUMPDEST PUSH1 0xB SSTORE GAS CALL PUSH2 0xA29 PUSH2 0xF3B JUMP JUMPDEST POP ISZERO PUSH2 0xA6C JUMPI POP MLOAD SWAP2 DUP3 MSTORE PUSH1 0x20 DUP3 ADD MSTORE TIMESTAMP PUSH1 0x40 DUP3 ADD MSTORE PUSH32 0x357B49F3C92C28F6ED04F03EA3C5C888690FC6902B2C17B9CDBFC36FD6A1A03E SWAP1 PUSH1 0x60 SWAP1 LOG4 PUSH1 0x1 DUP2 SSTORE DUP1 RETURN JUMPDEST SWAP1 MLOAD PUSH4 0x12171D83 PUSH1 0xE3 SHL DUP2 MSTORE REVERT JUMPDEST DUP3 DUP1 SWAP5 POP DUP2 SWAP4 SWAP3 SWAP12 POP RETURNDATASIZE DUP4 GT PUSH2 0xAB1 JUMPI JUMPDEST PUSH2 0xA95 DUP2 DUP4 PUSH2 0xE1E JUMP JUMPDEST DUP2 ADD SUB SLT PUSH2 0x20E JUMPI MLOAD SWAP8 DUP9 AND DUP9 SUB PUSH2 0x17A JUMPI DUP9 SWAP8 SWAP1 DUP3 DUP8 PUSH2 0x915 JUMP JUMPDEST POP RETURNDATASIZE PUSH2 0xA8B JUMP JUMPDEST DUP6 MLOAD RETURNDATASIZE DUP6 DUP3 RETURNDATACOPY RETURNDATASIZE SWAP1 REVERT JUMPDEST DUP4 MLOAD PUSH4 0x652F4C5 PUSH1 0xE2 SHL DUP2 MSTORE DUP4 SWAP1 REVERT JUMPDEST SWAP1 MLOAD PUSH4 0x5283857B PUSH1 0xE1 SHL DUP2 MSTORE REVERT JUMPDEST SWAP1 POP DUP4 DUP2 DUP2 RETURNDATASIZE DUP4 GT PUSH2 0xB13 JUMPI JUMPDEST PUSH2 0xAF7 DUP2 DUP4 PUSH2 0xE1E JUMP JUMPDEST DUP2 ADD SUB SLT PUSH2 0xB0F JUMPI MLOAD DUP1 ISZERO ISZERO DUP2 SUB PUSH2 0xB0F JUMPI DUP10 PUSH2 0x885 JUMP JUMPDEST DUP8 DUP1 REVERT JUMPDEST POP RETURNDATASIZE PUSH2 0xAED JUMP JUMPDEST DUP4 MLOAD RETURNDATASIZE DUP11 DUP3 RETURNDATACOPY RETURNDATASIZE SWAP1 REVERT JUMPDEST POP DUP5 MLOAD PUSH4 0x52A7F8FB PUSH1 0xE0 SHL DUP2 MSTORE REVERT JUMPDEST POP DUP5 MLOAD PUSH4 0x162908E3 PUSH1 0xE1 SHL DUP2 MSTORE REVERT JUMPDEST POP PUSH1 0x6 SLOAD CALLVALUE GT PUSH2 0x823 JUMP JUMPDEST POP DUP5 MLOAD PUSH4 0xEA8E4EB5 PUSH1 0xE0 SHL DUP2 MSTORE REVERT JUMPDEST POP PUSH1 0x1 SLOAD PUSH1 0x1 PUSH1 0x1 PUSH1 0xA0 SHL SUB AND CALLER EQ ISZERO PUSH2 0x803 JUMP JUMPDEST SWAP1 POP CALLVALUE PUSH2 0x20E JUMPI PUSH1 0x20 CALLDATASIZE PUSH1 0x3 NOT ADD SLT PUSH2 0x20E JUMPI PUSH2 0xBA6 DUP3 PUSH1 0xC0 SWAP5 PUSH2 0xBE1 SWAP4 PUSH2 0xB97 PUSH2 0xFD7 JUMP JUMPDEST POP CALLDATALOAD DUP2 MSTORE PUSH1 0x3 PUSH1 0x20 MSTORE KECCAK256 PUSH2 0x101D JUMP JUMPDEST SWAP2 MLOAD DUP1 SWAP3 PUSH1 0xA0 DUP1 SWAP2 DUP1 MLOAD DUP5 MSTORE PUSH1 0x20 DUP2 ADD MLOAD PUSH1 0x20 DUP6 ADD MSTORE PUSH1 0x40 DUP2 ADD MLOAD PUSH1 0x40 DUP6 ADD MSTORE PUSH1 0x60 DUP2 ADD MLOAD PUSH1 0x60 DUP6 ADD MSTORE PUSH1 0x80 DUP2 ADD MLOAD PUSH1 0x80 DUP6 ADD MSTORE ADD MLOAD SWAP2 ADD MSTORE JUMP JUMPDEST RETURN JUMPDEST SWAP1 POP CALLVALUE PUSH2 0x20E JUMPI DUP3 PUSH1 0x3 NOT CALLDATASIZE ADD SLT PUSH2 0x20E JUMPI PUSH2 0xBFD PUSH2 0xDC0 JUMP JUMPDEST PUSH1 0x1 SLOAD SWAP1 PUSH1 0xFF DUP3 PUSH1 0xA0 SHR AND ISZERO PUSH2 0xC45 JUMPI POP PUSH1 0xFF PUSH1 0xA0 SHL NOT AND PUSH1 0x1 SSTORE MLOAD CALLER DUP2 MSTORE PUSH32 0x5DB9EE0A495BF2E6FF9C91A7834C1BA4FDD244A5E8AA4E537BD38AEAE4B073AA SWAP1 PUSH1 0x20 SWAP1 LOG1 DUP1 RETURN JUMPDEST DUP3 MLOAD PUSH4 0x8DFC202B PUSH1 0xE0 SHL DUP2 MSTORE REVERT JUMPDEST DUP4 SWAP2 POP CALLVALUE PUSH2 0x17A JUMPI PUSH1 0x60 CALLDATASIZE PUSH1 0x3 NOT ADD SLT PUSH2 0x17A JUMPI DUP1 CALLDATALOAD PUSH1 0x24 CALLDATALOAD SWAP2 PUSH1 0x44 CALLDATALOAD SWAP1 PUSH2 0xC79 PUSH2 0xDC0 JUMP JUMPDEST DUP4 DUP4 LT ISZERO PUSH2 0xCD6 JUMPI POP PUSH2 0xCD0 SWAP1 PUSH32 0xAA2EF8BA434F2F6BDAAD3FCC2D5C35F02B08A47173C94877259407614BC46B55 SWAP5 SWAP6 DUP4 PUSH1 0x5 SSTORE DUP5 PUSH1 0x6 SSTORE DUP2 PUSH1 0x7 SSTORE MLOAD SWAP4 DUP5 SWAP4 DUP5 PUSH1 0x40 SWAP2 SWAP5 SWAP4 SWAP3 PUSH1 0x60 DUP3 ADD SWAP6 DUP3 MSTORE PUSH1 0x20 DUP3 ADD MSTORE ADD MSTORE JUMP JUMPDEST SUB SWAP1 LOG1 DUP1 RETURN JUMPDEST PUSH1 0x64 SWAP1 PUSH1 0x20 DUP8 MLOAD SWAP2 PUSH3 0x461BCD PUSH1 0xE5 SHL DUP4 MSTORE DUP3 ADD MSTORE PUSH1 0xE PUSH1 0x24 DUP3 ADD MSTORE PUSH14 0x496E76616C6964206C696D697473 PUSH1 0x90 SHL PUSH1 0x44 DUP3 ADD MSTORE REVERT JUMPDEST SWAP2 SWAP1 POP CALLVALUE PUSH2 0x20E JUMPI PUSH1 0x20 CALLDATASIZE PUSH1 0x3 NOT ADD SLT PUSH2 0x20E JUMPI PUSH2 0xD26 PUSH2 0xDA5 JUMP JUMPDEST SWAP1 PUSH2 0xD2F PUSH2 0xDC0 JUMP JUMPDEST PUSH2 0xD37 PUSH2 0xF9C JUMP JUMPDEST PUSH1 0x9 SLOAD SWAP3 DUP4 ISZERO PUSH2 0xD97 JUMPI DUP5 PUSH1 0x9 SSTORE DUP5 DUP1 DUP1 DUP1 DUP8 DUP8 GAS CALL PUSH2 0xD55 PUSH2 0xF3B JUMP JUMPDEST POP ISZERO PUSH2 0xA6C JUMPI POP MLOAD SWAP2 DUP3 MSTORE PUSH1 0x1 PUSH1 0x1 PUSH1 0xA0 SHL SUB AND SWAP1 PUSH32 0xC0819C13BE868895EB93E40EACEB96DE976442FA1D404E5C55F14BB65A8C489A SWAP1 PUSH1 0x20 SWAP1 LOG2 PUSH1 0x1 DUP2 SSTORE DUP1 RETURN JUMPDEST SWAP1 MLOAD PUSH4 0xD00DB4D PUSH1 0xE3 SHL DUP2 MSTORE REVERT JUMPDEST PUSH1 0x4 CALLDATALOAD SWAP1 PUSH1 0x1 PUSH1 0x1 PUSH1 0xA0 SHL SUB DUP3 AND DUP3 SUB PUSH2 0xDBB JUMPI JUMP JUMPDEST PUSH1 0x0 DUP1 REVERT JUMPDEST PUSH1 0x1 SLOAD PUSH1 0x1 PUSH1 0x1 PUSH1 0xA0 SHL SUB AND CALLER SUB PUSH2 0xDD4 JUMPI JUMP JUMPDEST PUSH1 0x40 MLOAD PUSH4 0x118CDAA7 PUSH1 0xE0 SHL DUP2 MSTORE CALLER PUSH1 0x4 DUP3 ADD MSTORE PUSH1 0x24 SWAP1 REVERT JUMPDEST PUSH1 0xC0 DUP2 ADD SWAP1 DUP2 LT PUSH8 0xFFFFFFFFFFFFFFFF DUP3 GT OR PUSH2 0xE08 JUMPI PUSH1 0x40 MSTORE JUMP JUMPDEST PUSH4 0x4E487B71 PUSH1 0xE0 SHL PUSH1 0x0 MSTORE PUSH1 0x41 PUSH1 0x4 MSTORE PUSH1 0x24 PUSH1 0x0 REVERT JUMPDEST SWAP1 PUSH1 0x1F DUP1 NOT SWAP2 ADD AND DUP2 ADD SWAP1 DUP2 LT PUSH8 0xFFFFFFFFFFFFFFFF DUP3 GT OR PUSH2 0xE08 JUMPI PUSH1 0x40 MSTORE JUMP JUMPDEST SWAP2 SWAP1 DUP3 ADD DUP1 SWAP3 GT PUSH2 0xE4D JUMPI JUMP JUMPDEST PUSH4 0x4E487B71 PUSH1 0xE0 SHL PUSH1 0x0 MSTORE PUSH1 0x11 PUSH1 0x4 MSTORE PUSH1 0x24 PUSH1 0x0 REVERT JUMPDEST DUP2 DUP2 MUL SWAP3 SWAP2 DUP2 ISZERO SWAP2 DUP5 DIV EQ OR ISZERO PUSH2 0xE4D JUMPI JUMP JUMPDEST SWAP2 SWAP1 DUP3 SUB SWAP2 DUP3 GT PUSH2 0xE4D JUMPI JUMP JUMPDEST DUP1 SLOAD DUP3 LT ISZERO PUSH2 0xE9F JUMPI PUSH1 0x0 MSTORE PUSH1 0x6 PUSH1 0x20 PUSH1 0x0 KECCAK256 SWAP2 MUL ADD SWAP1 PUSH1 0x0 SWAP1 JUMP JUMPDEST PUSH4 0x4E487B71 PUSH1 0xE0 SHL PUSH1 0x0 MSTORE PUSH1 0x32 PUSH1 0x4 MSTORE PUSH1 0x24 PUSH1 0x0 REVERT JUMPDEST DUP1 SLOAD PUSH9 0x10000000000000000 DUP2 LT ISZERO PUSH2 0xE08 JUMPI PUSH2 0xED7 SWAP2 PUSH1 0x1 DUP3 ADD DUP2 SSTORE PUSH2 0xE83 JUMP JUMPDEST SWAP2 SWAP1 SWAP2 PUSH2 0xF16 JUMPI DUP1 MLOAD DUP3 SSTORE PUSH1 0x20 DUP2 ADD MLOAD PUSH1 0x1 DUP4 ADD SSTORE PUSH1 0x40 DUP2 ADD MLOAD PUSH1 0x2 DUP4 ADD SSTORE PUSH1 0x60 DUP2 ADD MLOAD PUSH1 0x3 DUP4 ADD SSTORE PUSH1 0x80 DUP2 ADD MLOAD PUSH1 0x4 DUP4 ADD SSTORE PUSH1 0xA0 ADD MLOAD PUSH1 0x5 SWAP1 SWAP2 ADD SSTORE JUMP JUMPDEST PUSH4 0x4E487B71 PUSH1 0xE0 SHL PUSH1 0x0 MSTORE PUSH1 0x0 PUSH1 0x4 MSTORE PUSH1 0x24 PUSH1 0x0 REVERT JUMPDEST PUSH1 0x0 NOT DUP2 EQ PUSH2 0xE4D JUMPI PUSH1 0x1 ADD SWAP1 JUMP JUMPDEST RETURNDATASIZE ISZERO PUSH2 0xF76 JUMPI RETURNDATASIZE SWAP1 PUSH8 0xFFFFFFFFFFFFFFFF DUP3 GT PUSH2 0xE08 JUMPI PUSH1 0x40 MLOAD SWAP2 PUSH2 0xF6A PUSH1 0x1F DUP3 ADD PUSH1 0x1F NOT AND PUSH1 0x20 ADD DUP5 PUSH2 0xE1E JUMP JUMPDEST DUP3 MSTORE RETURNDATASIZE PUSH1 0x0 PUSH1 0x20 DUP5 ADD RETURNDATACOPY JUMP JUMPDEST PUSH1 0x60 SWAP1 JUMP JUMPDEST PUSH1 0xFF PUSH1 0x1 SLOAD PUSH1 0xA0 SHR AND PUSH2 0xF8A JUMPI JUMP JUMPDEST PUSH1 0x40 MLOAD PUSH4 0xD93C0665 PUSH1 0xE0 SHL DUP2 MSTORE PUSH1 0x4 SWAP1 REVERT JUMPDEST PUSH1 0x2 PUSH1 0x0 SLOAD EQ PUSH2 0xFAD JUMPI PUSH1 0x2 PUSH1 0x0 SSTORE JUMP JUMPDEST PUSH1 0x40 MLOAD PUSH4 0x3EE5AEB5 PUSH1 0xE0 SHL DUP2 MSTORE PUSH1 0x4 SWAP1 REVERT JUMPDEST PUSH8 0xFFFFFFFFFFFFFFFF DUP2 GT PUSH2 0xE08 JUMPI PUSH1 0x5 SHL PUSH1 0x20 ADD SWAP1 JUMP JUMPDEST PUSH1 0x40 MLOAD SWAP1 PUSH2 0xFE4 DUP3 PUSH2 0xDEC JUMP JUMPDEST DUP2 PUSH1 0xA0 PUSH1 0x0 SWAP2 DUP3 DUP2 MSTORE DUP3 PUSH1 0x20 DUP3 ADD MSTORE DUP3 PUSH1 0x40 DUP3 ADD MSTORE DUP3 PUSH1 0x60 DUP3 ADD MSTORE DUP3 PUSH1 0x80 DUP3 ADD MSTORE ADD MSTORE JUMP JUMPDEST DUP1 MLOAD DUP3 LT ISZERO PUSH2 0xE9F JUMPI PUSH1 0x20 SWAP2 PUSH1 0x5 SHL ADD ADD SWAP1 JUMP JUMPDEST SWAP1 PUSH1 0x40 MLOAD PUSH2 0x102A DUP2 PUSH2 0xDEC JUMP JUMPDEST PUSH1 0xA0 PUSH1 0x5 DUP3 SWAP5 DUP1 SLOAD DUP5 MSTORE PUSH1 0x1 DUP2 ADD SLOAD PUSH1 0x20 DUP6 ADD MSTORE PUSH1 0x2 DUP2 ADD SLOAD PUSH1 0x40 DUP6 ADD MSTORE PUSH1 0x3 DUP2 ADD SLOAD PUSH1 0x60 DUP6 ADD MSTORE PUSH1 0x4 DUP2 ADD SLOAD PUSH1 0x80 DUP6 ADD MSTORE ADD SLOAD SWAP2 ADD MSTORE JUMP JUMPDEST SWAP1 SWAP2 PUSH1 0x0 SWAP2 DUP3 MSTORE PUSH1 0x20 SWAP3 PUSH1 0x2 DUP5 MSTORE PUSH1 0x40 DUP4 KECCAK256 SWAP2 DUP3 SLOAD SWAP1 DUP2 ISZERO DUP1 ISZERO PUSH2 0x11A3 JUMPI JUMPDEST PUSH2 0x116A JUMPI PUSH2 0x1090 DUP4 DUP4 PUSH2 0xE76 JUMP JUMPDEST SWAP1 DUP1 DUP3 LT ISZERO PUSH2 0x1162 JUMPI POP SWAP4 JUMPDEST PUSH2 0x10A5 DUP6 PUSH2 0xFBF JUMP JUMPDEST SWAP6 PUSH2 0x10B3 PUSH1 0x40 MLOAD SWAP8 DUP9 PUSH2 0xE1E JUMP JUMPDEST DUP6 DUP8 MSTORE PUSH1 0x1F NOT PUSH2 0x10C2 DUP8 PUSH2 0xFBF JUMP JUMPDEST ADD DUP3 JUMPDEST DUP2 DUP2 LT PUSH2 0x114C JUMPI POP POP POP PUSH1 0x0 NOT DUP3 ADD SWAP2 DUP3 GT DUP2 JUMPDEST DUP7 DUP2 LT PUSH2 0x10EA JUMPI POP POP POP POP POP POP POP SWAP1 JUMP JUMPDEST DUP2 PUSH2 0x1138 JUMPI DUP1 PUSH2 0x1118 PUSH2 0x1112 PUSH2 0x110C PUSH2 0x1133 SWAP5 PUSH2 0x1107 DUP11 DUP11 PUSH2 0xE76 JUMP JUMPDEST PUSH2 0xE76 JUMP JUMPDEST DUP10 PUSH2 0xE83 JUMP JUMPDEST POP PUSH2 0x101D JUMP JUMPDEST PUSH2 0x1122 DUP3 DUP12 PUSH2 0x1009 JUMP JUMPDEST MSTORE PUSH2 0x112D DUP2 DUP11 PUSH2 0x1009 JUMP JUMPDEST POP PUSH2 0xF2C JUMP JUMPDEST PUSH2 0x10D9 JUMP JUMPDEST PUSH4 0x4E487B71 PUSH1 0xE0 SHL DUP4 MSTORE PUSH1 0x11 PUSH1 0x4 MSTORE PUSH1 0x24 DUP4 REVERT JUMPDEST DUP3 SWAP1 PUSH2 0x1156 PUSH2 0xFD7 JUMP JUMPDEST DUP3 DUP3 DUP13 ADD ADD MSTORE ADD PUSH2 0x10C5 JUMP JUMPDEST SWAP1 POP SWAP4 PUSH2 0x109C JUMP JUMPDEST POP POP POP POP PUSH1 0x40 MLOAD SWAP2 DUP3 ADD DUP3 DUP2 LT PUSH8 0xFFFFFFFFFFFFFFFF DUP3 GT OR PUSH2 0x118F JUMPI PUSH1 0x40 MSTORE DUP2 MSTORE SWAP1 JUMP JUMPDEST PUSH4 0x4E487B71 PUSH1 0xE0 SHL DUP3 MSTORE PUSH1 0x41 PUSH1 0x4 MSTORE PUSH1 0x24 DUP3 REVERT JUMPDEST POP DUP2 DUP4 LT ISZERO PUSH2 0x1082 JUMP INVALID LOG2 PUSH5 0x6970667358 0x22 SLT KECCAK256 0x24 CREATE2 CALLER DUP11 0xF7 RETURN 0xEA 0xAE LOG1 0xD1 MLOAD SGT 0x28 STOP SWAP11 PUSH13 0xDFCA819EC61195ADCC174FC3C5 PUSH1 0xE0 GT PUSH5 0x736F6C6343 STOP ADDMOD EQ STOP CALLER "},"methodIdentifiers":{"MAX_FEE_BPS()":"d55be8c6","accumulatedFees()":"587f5ed7","addAuthorizedBackend(address)":"f2776d2e","authorizedBackends(address)":"e712a35d","calculateFee(uint256)":"99a5d747","dailyTransferLimit()":"f714af6f","emergencyWithdraw(address,uint256)":"95ccea67","getDailyTransferStatus(bytes32)":"62734325","getTransaction(bytes32)":"4aae13ca","getTransactionCount(bytes32)":"a1fb4acb","getTransactionHistory(bytes32,uint256,uint256)":"b75e5deb","maxTransferAmount()":"a9e75723","minTransferAmount()":"68841431","owner()":"8da5cb5b","pause()":"8456cb59","paused()":"5c975abb","removeAuthorizedBackend(address)":"9ba78fd9","renounceOwnership()":"715018a6","totalTransactions()":"b9a60038","totalVolume()":"5f81a57c","transfer(bytes32,bytes32)":"4deeb4bd","transferFeeBps()":"5de78d7a","transferOwnership(address)":"f2fde38b","unpause()":"3f4ba83a","updateFee(uint256)":"9012c4a8","updateLimits(uint256,uint256,uint256)":"36a0f8a5","walletRegistry()":"ab7aa6ad","withdrawFees(address)":"164e68de"}}}}}