{
  "_format": "hh-sol-artifact-1",
  "contractName": "P2PTransfer",
  "sourceName": "contracts/P2PTransfer.sol",
  "abi": [
    {
      "inputs": [
        {
          "internalType": "address",
          "name": "_walletRegistry",
          "type": "address"
        }
      ],
      "stateMutability": "nonpayable",
      "type": "constructor"
    },
    {
      "inputs": [],
      "name": "DailyLimitExceeded",
      "type": "error"
    },
    {
      "inputs": [],
      "name": "EnforcedPause",
      "type": "error"
    },
    {
      "inputs": [],
      "name": "ExpectedPause",
      "type": "error"
    },
    {
      "inputs": [],
      "name": "InsufficientFunds",
      "type": "error"
    },
    {
      "inputs": [],
      "name": "InvalidAmount",
      "type": "error"
    },
    {
      "inputs": [],
      "name": "InvalidFee",
      "type": "error"
    },
    {
      "inputs": [],
      "name": "NoFeesToWithdraw",
      "type": "error"
    },
    {
      "inputs": [],
      "name": "NotAuthorized",
      "type": "error"
    },
    {
      "inputs": [
        {
          "internalType": "address",
          "name": "owner",
          "type": "address"
        }
      ],
      "name": "OwnableInvalidOwner",
      "type": "error"
    },
    {
      "inputs": [
        {
          "internalType": "address",
          "name": "account",
          "type": "address"
        }
      ],
      "name": "OwnableUnauthorizedAccount",
      "type": "error"
    },
    {
      "inputs": [],
      "name": "RecipientNotRegistered",
      "type": "error"
    },
    {
      "inputs": [],
      "name": "ReentrancyGuardReentrantCall",
      "type": "error"
    },
    {
      "inputs": [],
      "name": "SelfTransferNotAllowed",
      "type": "error"
    },
    {
      "inputs": [],
      "name": "TransferFailed",
      "type": "error"
    },
    {
      "anonymous": false,
      "inputs": [
        {
          "indexed": true,
          "internalType": "address",
          "name": "backend",
          "type": "address"
        }
      ],
      "name": "BackendAuthorized",
      "type": "event"
    },
    {
      "anonymous": false,
      "inputs": [
        {
          "indexed": true,
          "internalType": "address",
          "name": "backend",
          "type": "address"
        }
      ],
      "name": "BackendRevoked",
      "type": "event"
    },
    {
      "anonymous": false,
      "inputs": [
        {
          "indexed": false,
          "internalType": "uint256",
          "name": "oldFee",
          "type": "uint256"
        },
        {
          "indexed": false,
          "internalType": "uint256",
          "name": "newFee",
          "type": "uint256"
        }
      ],
      "name": "FeeUpdated",
      "type": "event"
    },
    {
      "anonymous": false,
      "inputs": [
        {
          "indexed": true,
          "internalType": "address",
          "name": "to",
          "type": "address"
        },
        {
          "indexed": false,
          "internalType": "uint256",
          "name": "amount",
          "type": "uint256"
        }
      ],
      "name": "FeesWithdrawn",
      "type": "event"
    },
    {
      "anonymous": false,
      "inputs": [
        {
          "indexed": false,
          "internalType": "uint256",
          "name": "minAmount",
          "type": "uint256"
        },
        {
          "indexed": false,
          "internalType": "uint256",
          "name": "maxAmount",
          "type": "uint256"
        },
        {
          "indexed": false,
          "internalType": "uint256",
          "name": "dailyLimit",
          "type": "uint256"
        }
      ],
      "name": "LimitsUpdated",
      "type": "event"
    },
    {
      "anonymous": false,
      "inputs": [
        {
          "indexed": true,
          "internalType": "address",
          "name": "previousOwner",
          "type": "address"
        },
        {
          "indexed": true,
          "internalType": "address",
          "name": "newOwner",
          "type": "address"
        }
      ],
      "name": "OwnershipTransferred",
      "type": "event"
    },
    {
      "anonymous": false,
      "inputs": [
        {
          "indexed": false,
          "internalType": "address",
          "name": "account",
          "type": "address"
        }
      ],
      "name": "Paused",
      "type": "event"
    },
    {
      "anonymous": false,
      "inputs": [
        {
          "indexed": true,
          "internalType": "bytes32",
          "name": "fromPhoneHash",
          "type": "bytes32"
        },
        {
          "indexed": true,
          "internalType": "bytes32",
          "name": "toPhoneHash",
          "type": "bytes32"
        },
        {
          "indexed": false,
          "internalType": "uint256",
          "name": "amount",
          "type": "uint256"
        },
        {
          "indexed": false,
          "internalType": "uint256",
          "name": "fee",
          "type": "uint256"
        },
        {
          "indexed": true,
          "internalType": "bytes32",
          "name": "txHash",
          "type": "bytes32"
        },
        {
          "indexed": false,
          "internalType": "uint256",
          "name": "timestamp",
          "type": "uint256"
        }
      ],
      "name": "TransferExecuted",
      "type": "event"
    },
    {
      "anonymous": false,
      "inputs": [
        {
          "indexed": false,
          "internalType": "address",
          "name": "account",
          "type": "address"
        }
      ],
      "name": "Unpaused",
      "type": "event"
    },
    {
      "inputs": [],
      "name": "MAX_FEE_BPS",
      "outputs": [
        {
          "internalType": "uint256",
          "name": "",
          "type": "uint256"
        }
      ],
      "stateMutability": "view",
      "type": "function"
    },
    {
      "inputs": [],
      "name": "accumulatedFees",
      "outputs": [
        {
          "internalType": "uint256",
          "name": "",
          "type": "uint256"
        }
      ],
      "stateMutability": "view",
      "type": "function"
    },
    {
      "inputs": [
        {
          "internalType": "address",
          "name": "backend",
          "type": "address"
        }
      ],
      "name": "addAuthorizedBackend",
      "outputs": [],
      "stateMutability": "nonpayable",
      "type": "function"
    },
    {
      "inputs": [
        {
          "internalType": "address",
          "name": "",
          "type": "address"
        }
      ],
      "name": "authorizedBackends",
      "outputs": [
        {
          "internalType": "bool",
          "name": "",
          "type": "bool"
        }
      ],
      "stateMutability": "view",
      "type": "function"
    },
    {
      "inputs": [
        {
          "internalType": "uint256",
          "name": "amount",
          "type": "uint256"
        }
      ],
      "name": "calculateFee",
      "outputs": [
        {
          "internalType": "uint256",
          "name": "fee",
          "type": "uint256"
        },
        {
          "internalType": "uint256",
          "name": "netAmount",
          "type": "uint256"
        }
      ],
      "stateMutability": "view",
      "type": "function"
    },
    {
      "inputs": [],
      "name": "dailyTransferLimit",
      "outputs": [
        {
          "internalType": "uint256",
          "name": "",
          "type": "uint256"
        }
      ],
      "stateMutability": "view",
      "type": "function"
    },
    {
      "inputs": [
        {
          "internalType": "address",
          "name": "to",
          "type": "address"
        },
        {
          "internalType": "uint256",
          "name": "amount",
          "type": "uint256"
        }
      ],
      "name": "emergencyWithdraw",
      "outputs": [],
      "stateMutability": "nonpayable",
      "type": "function"
    },
    {
      "inputs": [
        {
          "internalType": "bytes32",
          "name": "phoneHash",
          "type": "bytes32"
        }
      ],
      "name": "getDailyTransferStatus",
      "outputs": [
        {
          "internalType": "uint256",
          "name": "total",
          "type": "uint256"
        },
        {
          "internalType": "uint256",
          "name": "remaining",
          "type": "uint256"
        }
      ],
      "stateMutability": "view",
      "type": "function"
    },
    {
      "inputs": [
        {
          "internalType": "bytes32",
          "name": "txHash",
          "type": "bytes32"
        }
      ],
      "name": "getTransaction",
      "outputs": [
        {
          "components": [
            {
              "internalType": "bytes32",
              "name": "fromPhoneHash",
              "type": "bytes32"
            },
            {
              "internalType": "bytes32",
              "name": "toPhoneHash",
              "type": "bytes32"
            },
            {
              "internalType": "uint256",
              "name": "amount",
              "type": "uint256"
            },
            {
              "internalType": "uint256",
              "name": "fee",
              "type": "uint256"
            },
            {
              "internalType": "uint256",
              "name": "timestamp",
              "type": "uint256"
            },
            {
              "internalType": "bytes32",
              "name": "txHash",
              "type": "bytes32"
            }
          ],
          "internalType": "struct P2PTransfer.Transaction",
          "name": "transaction",
          "type": "tuple"
        }
      ],
      "stateMutability": "view",
      "type": "function"
    },
    {
      "inputs": [
        {
          "internalType": "bytes32",
          "name": "phoneHash",
          "type": "bytes32"
        }
      ],
      "name": "getTransactionCount",
      "outputs": [
        {
          "internalType": "uint256",
          "name": "count",
          "type": "uint256"
        }
      ],
      "stateMutability": "view",
      "type": "function"
    },
    {
      "inputs": [
        {
          "internalType": "bytes32",
          "name": "phoneHash",
          "type": "bytes32"
        },
        {
          "internalType": "uint256",
          "name": "offset",
          "type": "uint256"
        },
        {
          "internalType": "uint256",
          "name": "limit",
          "type": "uint256"
        }
      ],
      "name": "getTransactionHistory",
      "outputs": [
        {
          "components": [
            {
              "internalType": "bytes32",
              "name": "fromPhoneHash",
              "type": "bytes32"
            },
            {
              "internalType": "bytes32",
              "name": "toPhoneHash",
              "type": "bytes32"
            },
            {
              "internalType": "uint256",
              "name": "amount",
              "type": "uint256"
            },
            {
              "internalType": "uint256",
              "name": "fee",
              "type": "uint256"
            },
            {
              "internalType": "uint256",
              "name": "timestamp",
              "type": "uint256"
            },
            {
              "internalType": "bytes32",
              "name": "txHash",
              "type": "bytes32"
            }
          ],
          "internalType": "struct P2PTransfer.Transaction[]",
          "name": "transactions",
          "type": "tuple[]"
        }
      ],
      "stateMutability": "view",
      "type": "function"
    },
    {
      "inputs": [],
      "name": "maxTransferAmount",
      "outputs": [
        {
          "internalType": "uint256",
          "name": "",
          "type": "uint256"
        }
      ],
      "stateMutability": "view",
      "type": "function"
    },
    {
      "inputs": [],
      "name": "minTransferAmount",
      "outputs": [
        {
          "internalType": "uint256",
          "name": "",
          "type": "uint256"
        }
      ],
      "stateMutability": "view",
      "type": "function"
    },
    {
      "inputs": [],
      "name": "owner",
      "outputs": [
        {
          "internalType": "address",
          "name": "",
          "type": "address"
        }
      ],
      "stateMutability": "view",
      "type": "function"
    },
    {
      "inputs": [],
      "name": "pause",
      "outputs": [],
      "stateMutability": "nonpayable",
      "type": "function"
    },
    {
      "inputs": [],
      "name": "paused",
      "outputs": [
        {
          "internalType": "bool",
          "name": "",
          "type": "bool"
        }
      ],
      "stateMutability": "view",
      "type": "function"
    },
    {
      "inputs": [
        {
          "internalType": "address",
          "name": "backend",
          "type": "address"
        }
      ],
      "name": "removeAuthorizedBackend",
      "outputs": [],
      "stateMutability": "nonpayable",
      "type": "function"
    },
    {
      "inputs": [],
      "name": "renounceOwnership",
      "outputs": [],
      "stateMutability": "nonpayable",
      "type": "function"
    },
    {
      "inputs": [],
      "name": "totalTransactions",
      "outputs": [
        {
          "internalType": "uint256",
          "name": "",
          "type": "uint256"
        }
      ],
      "stateMutability": "view",
      "type": "function"
    },
    {
      "inputs": [],
      "name": "totalVolume",
      "outputs": [
        {
          "internalType": "uint256",
          "name": "",
          "type": "uint256"
        }
      ],
      "stateMutability": "view",
      "type": "function"
    },
    {
      "inputs": [
        {
          "internalType": "bytes32",
          "name": "fromPhoneHash",
          "type": "bytes32"
        },
        {
          "internalType": "bytes32",
          "name": "toPhoneHash",
          "type": "bytes32"
        }
      ],
      "name": "transfer",
      "outputs": [],
      "stateMutability": "payable",
      "type": "function"
    },
    {
      "inputs": [],
      "name": "transferFeeBps",
      "outputs": [
        {
          "internalType": "uint256",
          "name": "",
          "type": "uint256"
        }
      ],
      "stateMutability": "view",
      "type": "function"
    },
    {
      "inputs": [
        {
          "internalType": "address",
          "name": "newOwner",
          "type": "address"
        }
      ],
      "name": "transferOwnership",
      "outputs": [],
      "stateMutability": "nonpayable",
      "type": "function"
    },
    {
      "inputs": [],
      "name": "unpause",
      "outputs": [],
      "stateMutability": "nonpayable",
      "type": "function"
    },
    {
      "inputs": [
        {
          "internalType": "uint256",
          "name": "newFeeBps",
          "type": "uint256"
        }
      ],
      "name": "updateFee",
      "outputs": [],
      "stateMutability": "nonpayable",
      "type": "function"
    },
    {
      "inputs": [
        {
          "internalType": "uint256",
          "name": "_minAmount",
          "type": "uint256"
        },
        {
          "internalType": "uint256",
          "name": "_maxAmount",
          "type": "uint256"
        },
        {
          "internalType": "uint256",
          "name": "_dailyLimit",
          "type": "uint256"
        }
      ],
      "name": "updateLimits",
      "outputs": [],
      "stateMutability": "nonpayable",
      "type": "function"
    },
    {
      "inputs": [],
      "name": "walletRegistry",
      "outputs": [
        {
          "internalType": "contract IWalletRegistry",
          "name": "",
          "type": "address"
        }
      ],
      "stateMutability": "view",
      "type": "function"
    },
    {
      "inputs": [
        {
          "internalType": "address",
          "name": "to",
          "type": "address"
        }
      ],
      "name": "withdrawFees",
      "outputs": [],
      "stateMutability": "nonpayable",
      "type": "function"
    },
    {
      "stateMutability": "payable",
      "type": "receive"
    }
  ],
  "bytecode": "0x60a03461013a57601f61133938819003918201601f19168301916001600160401b0383118484101761013f5780849260209460405283398101031261013a57516001600160a01b03908181169081900361013a576000906001825533156101215760018054336001600160a01b03198216811790925560405194167f8be0079c531659141344cd1fd0a4f28419497f9722a3daafe3b4186f6b6457e08480a36080526032600455655af3107a4000600555678ac7230489e800006006556802b5e3af16b1880000600755338152600c60205260408120600160ff198254161790557fcaac1cded5f66c118ba915f0fc60cd20a0924fcf956320b5230e70c8d5a773ca339180a26111e3908161015682396080518181816103ab015261084b0152f35b604051631e4fbdf760e01b815260048101839052602490fd5b600080fd5b634e487b7160e01b600052604160045260246000fdfe60406080815260049081361015610020575b5050361561001e57600080fd5b005b600091823560e01c908163164e68de14610d0a57816336a0f8a514610c535781633f4ba83a14610be35781634aae13ca14610b715781634deeb4bd146107d8578163587f5ed7146107b95781635c975abb146107925781635de78d7a146107745781635f81a57c1461075557816362734325146106fa57816368841431146106db578163715018a61461067e5781638456cb591461061d5781638da5cb5b146105f45781639012c4a81461058857816395ccea67146104c657816399a5d747146104875781639ba78fd914610421578163a1fb4acb146103f9578163a9e75723146103da578163ab7aa6ad14610396578163b75e5deb146102f5578163b9a60038146102d6578163d55be8c6146102b9578163e712a35d1461027b578163f2776d2e14610212578163f2fde38b1461017e575063f714af6f03610011573461017a578160031936011261017a576020906007549051908152f35b5080fd5b90503461020e57602036600319011261020e57610199610da5565b906101a2610dc0565b6001600160a01b039182169283156101f8575050600154826bffffffffffffffffffffffff60a01b821617600155167f8be0079c531659141344cd1fd0a4f28419497f9722a3daafe3b4186f6b6457e08380a380f35b51631e4fbdf760e01b8152908101849052602490fd5b8280fd5b50503461017a57602036600319011261017a5761022d610da5565b610235610dc0565b6001600160a01b0316808352600c602052908220805460ff191660011790557fcaac1cded5f66c118ba915f0fc60cd20a0924fcf956320b5230e70c8d5a773ca8280a280f35b50503461017a57602036600319011261017a5760209160ff9082906001600160a01b036102a6610da5565b168152600c855220541690519015158152f35b50503461017a578160031936011261017a57602090516101f48152f35b50503461017a578160031936011261017a57602090600a549051908152f35b8391503461017a57606036600319011261017a5761031c8391604435906024359035611063565b81519160208080850192818652845180945285019301945b8281106103415784840385f35b9091928260c0826103876001948a5160a0809180518452602081015160208501526040810151604085015260608101516060850152608081015160808501520151910152565b01960191019492919094610334565b50503461017a578160031936011261017a57517f00000000000000000000000000000000000000000000000000000000000000006001600160a01b03168152602090f35b50503461017a578160031936011261017a576020906006549051908152f35b90503461020e57602036600319011261020e5760209282913581526002845220549051908152f35b50503461017a57602036600319011261017a5761043c610da5565b610444610dc0565b6001600160a01b0316808352600c602052908220805460ff191690557ff67d2fe786130b5e40e7072669d48d149b5f06b216df088ce137f3101d29fcf38280a280f35b905082346104c35760203660031901126104c357506104b76127106104af8335935484610e63565b048092610e76565b82519182526020820152f35b80fd5b9190503461020e578060031936011261020e576104e1610da5565b602435906104ed610dc0565b6104fa4760095490610e76565b8211610551578480809381935af1610510610f3b565b501561051a578280f35b906020606492519162461bcd60e51b8352820152601160248201527015da5d1a191c985dd85b0819985a5b1959607a1b6044820152fd5b825162461bcd60e51b815260208186015260116024820152704578636565647320617661696c61626c6560781b6044820152606490fd5b90503461020e57602036600319011261020e5780356105a5610dc0565b6101f481116105e55790817f528d9479e9f9889a87a3c30c7f7ba537e5e59c4c85a37733b16e57c62df6130293928254925582519182526020820152a180f35b5090516358d620b360e01b8152fd5b50503461017a578160031936011261017a5760015490516001600160a01b039091168152602090f35b50503461017a578160031936011261017a5760207f62e78cea01bee320cd4e420270b5ea74000d11b0c9f74754ebdbfc544b05a2589161065b610dc0565b610663610f7b565b6001805460ff60a01b1916600160a01b17905551338152a180f35b83346104c357806003193601126104c357610697610dc0565b600180546001600160a01b0319811690915581906001600160a01b03167f8be0079c531659141344cd1fd0a4f28419497f9722a3daafe3b4186f6b6457e08280a380f35b50503461017a578160031936011261017a576020906005549051908152f35b8391503461017a57602036600319011261017a57358152600860205281812062015180420482526020528181205490816007548082101560001461074657505082519182526020820152f35b6107509250610e76565b6104b7565b50503461017a578160031936011261017a57602090600b549051908152f35b90503461020e578260031936011261020e5760209250549051908152f35b50503461017a578160031936011261017a5760209060ff60015460a01c1690519015158152f35b50503461017a578160031936011261017a576020906009549051908152f35b8391508260031936011261017a578035602435913384526020600c815260ff86862054161580610b5c575b610b4d5761080f610f9c565b610817610f7b565b60055434108015610b42575b610b3357838314610b245785516317a3c10360e21b81528083018590526001600160a01b03967f000000000000000000000000000000000000000000000000000000000000000088169390918381602481885afa908115610b1a578891610ae0575b5015610ad257620151804204978588526008845282882089895284526108ae34848a2054610e40565b986007548a11610ac25790889989928860249b52600887528584209084528652848320556127106108e0845434610e63565b0494806108ed8734610e76565b9786519b8c8092633c4e9c9560e11b82528d898301525afa918215610ab857899a8493610a7a575b5050828781938a83948d600a548b5190838201928584528d83015234606083015242608083015260a082015260a0815261094e81610dec565b5190209e8f908b519361096085610dec565b8085528184860152868d8601528d60608601524260808601528260a0860152875260028352838c88209061099391610eb5565b865260028252828b8720906109a791610eb5565b855260039052888420906109ee919060a060059180518455602081015160018501556040810151600285015560608101516003850155608081015160048501550151910155565b88600954906109fc91610e40565b600955600a54610a0b90610f2c565b600a5581600b5490610a1c91610e40565b600b555af1610a29610f3b565b5015610a6c57505191825260208201524260408201527f357b49f3c92c28f6ed04f03ea3c5c888690fc6902b2c17b9cdbfc36fd6a1a03e90606090a46001815580f35b90516312171d8360e31b8152fd5b828094508193929b503d8311610ab1575b610a958183610e1e565b8101031261020e5751978816880361017a578897908287610915565b503d610a8b565b85513d85823e3d90fd5b8351630652f4c560e21b81528390fd5b9051635283857b60e11b8152fd5b90508381813d8311610b13575b610af78183610e1e565b81010312610b0f57518015158103610b0f5789610885565b8780fd5b503d610aed565b83513d8a823e3d90fd5b5084516352a7f8fb60e01b8152fd5b50845163162908e360e11b8152fd5b506006543411610823565b50845163ea8e4eb560e01b8152fd5b506001546001600160a01b0316331415610803565b90503461020e57602036600319011261020e57610ba68260c094610be193610b97610fd7565b5035815260036020522061101d565b9151809260a0809180518452602081015160208501526040810151604085015260608101516060850152608081015160808501520151910152565bf35b90503461020e578260031936011261020e57610bfd610dc0565b6001549060ff8260a01c1615610c45575060ff60a01b1916600155513381527f5db9ee0a495bf2e6ff9c91a7834c1ba4fdd244a5e8aa4e537bd38aeae4b073aa90602090a180f35b8251638dfc202b60e01b8152fd5b8391503461017a57606036600319011261017a5780356024359160443590610c79610dc0565b83831015610cd65750610cd0907faa2ef8ba434f2f6bdaad3fcc2d5c35f02b08a47173c94877259407614bc46b55949583600555846006558160075551938493846040919493926060820195825260208201520152565b0390a180f35b606490602087519162461bcd60e51b8352820152600e60248201526d496e76616c6964206c696d69747360901b6044820152fd5b9190503461020e57602036600319011261020e57610d26610da5565b90610d2f610dc0565b610d37610f9c565b600954928315610d9757846009558480808087875af1610d55610f3b565b5015610a6c5750519182526001600160a01b0316907fc0819c13be868895eb93e40eaceb96de976442fa1d404e5c55f14bb65a8c489a90602090a26001815580f35b9051630d00db4d60e31b8152fd5b600435906001600160a01b0382168203610dbb57565b600080fd5b6001546001600160a01b03163303610dd457565b60405163118cdaa760e01b8152336004820152602490fd5b60c0810190811067ffffffffffffffff821117610e0857604052565b634e487b7160e01b600052604160045260246000fd5b90601f8019910116810190811067ffffffffffffffff821117610e0857604052565b91908201809211610e4d57565b634e487b7160e01b600052601160045260246000fd5b81810292918115918404141715610e4d57565b91908203918211610e4d57565b8054821015610e9f576000526006602060002091020190600090565b634e487b7160e01b600052603260045260246000fd5b805468010000000000000000811015610e0857610ed791600182018155610e83565b919091610f1657805182556020810151600183015560408101516002830155606081015160038301556080810151600483015560a00151600590910155565b634e487b7160e01b600052600060045260246000fd5b6000198114610e4d5760010190565b3d15610f76573d9067ffffffffffffffff8211610e085760405191610f6a601f8201601f191660200184610e1e565b82523d6000602084013e565b606090565b60ff60015460a01c16610f8a57565b60405163d93c066560e01b8152600490fd5b600260005414610fad576002600055565b604051633ee5aeb560e01b8152600490fd5b67ffffffffffffffff8111610e085760051b60200190565b60405190610fe482610dec565b8160a06000918281528260208201528260408201528260608201528260808201520152565b8051821015610e9f5760209160051b010190565b9060405161102a81610dec565b60a06005829480548452600181015460208501526002810154604085015260038101546060850152600481015460808501520154910152565b90916000918252602092600284526040832091825490811580156111a3575b61116a576110908383610e76565b90808210156111625750935b6110a585610fbf565b956110b36040519788610e1e565b858752601f196110c287610fbf565b01825b81811061114c575050506000198201918211815b8681106110ea575050505050505090565b81611138578061111861111261110c611133946111078a8a610e76565b610e76565b89610e83565b5061101d565b611122828b611009565b5261112d818a611009565b50610f2c565b6110d9565b634e487b7160e01b83526011600452602483fd5b8290611156610fd7565b82828c010152016110c5565b90509361109c565b5050505060405191820182811067ffffffffffffffff82111761118f57604052815290565b634e487b7160e01b82526041600452602482fd5b508183101561108256fea264697066735822122024f5338af7f3eaaea1d1511328009a6cdfca819ec61195adcc174fc3c560e01164736f6c63430008140033",
  "linkReferences": {},
  "deployedLinkReferences": {}
}